Archive member included because of file (symbol)

c:/users/niggi/gcc-arm-none-eabi-4_8-2014q3-20140805-win32/bin/../lib/gcc/arm-none-eabi/4.8.4/../../../../arm-none-eabi/lib/armv7e-m/fpu\libm.a(lib_a-s_round.o)
                              ..\obj\dw1000_driver.o (round)
c:/users/niggi/gcc-arm-none-eabi-4_8-2014q3-20140805-win32/bin/../lib/gcc/arm-none-eabi/4.8.4/../../../../arm-none-eabi/lib/armv7e-m/fpu\libm.a(lib_a-w_log10.o)
                              ..\obj\dw1000_driver.o (log10)
c:/users/niggi/gcc-arm-none-eabi-4_8-2014q3-20140805-win32/bin/../lib/gcc/arm-none-eabi/4.8.4/../../../../arm-none-eabi/lib/armv7e-m/fpu\libm.a(lib_a-w_pow.o)
                              ..\obj\dw1000_driver.o (pow)
c:/users/niggi/gcc-arm-none-eabi-4_8-2014q3-20140805-win32/bin/../lib/gcc/arm-none-eabi/4.8.4/../../../../arm-none-eabi/lib/armv7e-m/fpu\libm.a(lib_a-w_sqrt.o)
                              ..\obj\mpu9250_math.o (sqrt)
c:/users/niggi/gcc-arm-none-eabi-4_8-2014q3-20140805-win32/bin/../lib/gcc/arm-none-eabi/4.8.4/../../../../arm-none-eabi/lib/armv7e-m/fpu\libm.a(lib_a-e_log10.o)
                              c:/users/niggi/gcc-arm-none-eabi-4_8-2014q3-20140805-win32/bin/../lib/gcc/arm-none-eabi/4.8.4/../../../../arm-none-eabi/lib/armv7e-m/fpu\libm.a(lib_a-w_log10.o) (__ieee754_log10)
c:/users/niggi/gcc-arm-none-eabi-4_8-2014q3-20140805-win32/bin/../lib/gcc/arm-none-eabi/4.8.4/../../../../arm-none-eabi/lib/armv7e-m/fpu\libm.a(lib_a-e_pow.o)
                              c:/users/niggi/gcc-arm-none-eabi-4_8-2014q3-20140805-win32/bin/../lib/gcc/arm-none-eabi/4.8.4/../../../../arm-none-eabi/lib/armv7e-m/fpu\libm.a(lib_a-w_pow.o) (__ieee754_pow)
c:/users/niggi/gcc-arm-none-eabi-4_8-2014q3-20140805-win32/bin/../lib/gcc/arm-none-eabi/4.8.4/../../../../arm-none-eabi/lib/armv7e-m/fpu\libm.a(lib_a-e_sqrt.o)
                              c:/users/niggi/gcc-arm-none-eabi-4_8-2014q3-20140805-win32/bin/../lib/gcc/arm-none-eabi/4.8.4/../../../../arm-none-eabi/lib/armv7e-m/fpu\libm.a(lib_a-w_sqrt.o) (__ieee754_sqrt)
c:/users/niggi/gcc-arm-none-eabi-4_8-2014q3-20140805-win32/bin/../lib/gcc/arm-none-eabi/4.8.4/../../../../arm-none-eabi/lib/armv7e-m/fpu\libm.a(lib_a-s_fabs.o)
                              c:/users/niggi/gcc-arm-none-eabi-4_8-2014q3-20140805-win32/bin/../lib/gcc/arm-none-eabi/4.8.4/../../../../arm-none-eabi/lib/armv7e-m/fpu\libm.a(lib_a-e_pow.o) (fabs)
c:/users/niggi/gcc-arm-none-eabi-4_8-2014q3-20140805-win32/bin/../lib/gcc/arm-none-eabi/4.8.4/../../../../arm-none-eabi/lib/armv7e-m/fpu\libm.a(lib_a-s_finite.o)
                              c:/users/niggi/gcc-arm-none-eabi-4_8-2014q3-20140805-win32/bin/../lib/gcc/arm-none-eabi/4.8.4/../../../../arm-none-eabi/lib/armv7e-m/fpu\libm.a(lib_a-w_pow.o) (finite)
c:/users/niggi/gcc-arm-none-eabi-4_8-2014q3-20140805-win32/bin/../lib/gcc/arm-none-eabi/4.8.4/../../../../arm-none-eabi/lib/armv7e-m/fpu\libm.a(lib_a-s_fpclassify.o)
                              c:/users/niggi/gcc-arm-none-eabi-4_8-2014q3-20140805-win32/bin/../lib/gcc/arm-none-eabi/4.8.4/../../../../arm-none-eabi/lib/armv7e-m/fpu\libm.a(lib_a-w_log10.o) (__fpclassifyd)
c:/users/niggi/gcc-arm-none-eabi-4_8-2014q3-20140805-win32/bin/../lib/gcc/arm-none-eabi/4.8.4/../../../../arm-none-eabi/lib/armv7e-m/fpu\libm.a(lib_a-s_lib_ver.o)
                              c:/users/niggi/gcc-arm-none-eabi-4_8-2014q3-20140805-win32/bin/../lib/gcc/arm-none-eabi/4.8.4/../../../../arm-none-eabi/lib/armv7e-m/fpu\libm.a(lib_a-w_log10.o) (__fdlib_version)
c:/users/niggi/gcc-arm-none-eabi-4_8-2014q3-20140805-win32/bin/../lib/gcc/arm-none-eabi/4.8.4/../../../../arm-none-eabi/lib/armv7e-m/fpu\libm.a(lib_a-s_matherr.o)
                              c:/users/niggi/gcc-arm-none-eabi-4_8-2014q3-20140805-win32/bin/../lib/gcc/arm-none-eabi/4.8.4/../../../../arm-none-eabi/lib/armv7e-m/fpu\libm.a(lib_a-w_log10.o) (matherr)
c:/users/niggi/gcc-arm-none-eabi-4_8-2014q3-20140805-win32/bin/../lib/gcc/arm-none-eabi/4.8.4/../../../../arm-none-eabi/lib/armv7e-m/fpu\libm.a(lib_a-s_nan.o)
                              c:/users/niggi/gcc-arm-none-eabi-4_8-2014q3-20140805-win32/bin/../lib/gcc/arm-none-eabi/4.8.4/../../../../arm-none-eabi/lib/armv7e-m/fpu\libm.a(lib_a-w_log10.o) (nan)
c:/users/niggi/gcc-arm-none-eabi-4_8-2014q3-20140805-win32/bin/../lib/gcc/arm-none-eabi/4.8.4/../../../../arm-none-eabi/lib/armv7e-m/fpu\libm.a(lib_a-s_rint.o)
                              c:/users/niggi/gcc-arm-none-eabi-4_8-2014q3-20140805-win32/bin/../lib/gcc/arm-none-eabi/4.8.4/../../../../arm-none-eabi/lib/armv7e-m/fpu\libm.a(lib_a-w_pow.o) (rint)
c:/users/niggi/gcc-arm-none-eabi-4_8-2014q3-20140805-win32/bin/../lib/gcc/arm-none-eabi/4.8.4/../../../../arm-none-eabi/lib/armv7e-m/fpu\libm.a(lib_a-s_scalbn.o)
                              c:/users/niggi/gcc-arm-none-eabi-4_8-2014q3-20140805-win32/bin/../lib/gcc/arm-none-eabi/4.8.4/../../../../arm-none-eabi/lib/armv7e-m/fpu\libm.a(lib_a-e_pow.o) (scalbn)
c:/users/niggi/gcc-arm-none-eabi-4_8-2014q3-20140805-win32/bin/../lib/gcc/arm-none-eabi/4.8.4/../../../../arm-none-eabi/lib/armv7e-m/fpu\libm.a(lib_a-e_log.o)
                              c:/users/niggi/gcc-arm-none-eabi-4_8-2014q3-20140805-win32/bin/../lib/gcc/arm-none-eabi/4.8.4/../../../../arm-none-eabi/lib/armv7e-m/fpu\libm.a(lib_a-e_log10.o) (__ieee754_log)
c:/users/niggi/gcc-arm-none-eabi-4_8-2014q3-20140805-win32/bin/../lib/gcc/arm-none-eabi/4.8.4/../../../../arm-none-eabi/lib/armv7e-m/fpu\libm.a(lib_a-s_copysign.o)
                              c:/users/niggi/gcc-arm-none-eabi-4_8-2014q3-20140805-win32/bin/../lib/gcc/arm-none-eabi/4.8.4/../../../../arm-none-eabi/lib/armv7e-m/fpu\libm.a(lib_a-s_scalbn.o) (copysign)
c:/users/niggi/gcc-arm-none-eabi-4_8-2014q3-20140805-win32/bin/../lib/gcc/arm-none-eabi/4.8.4/armv7e-m/fpu\libgcc.a(_arm_addsubdf3.o)
                              ..\obj\dw1000_driver.o (__aeabi_dsub)
c:/users/niggi/gcc-arm-none-eabi-4_8-2014q3-20140805-win32/bin/../lib/gcc/arm-none-eabi/4.8.4/armv7e-m/fpu\libgcc.a(_arm_muldivdf3.o)
                              ..\obj\dw1000_driver.o (__aeabi_dmul)
c:/users/niggi/gcc-arm-none-eabi-4_8-2014q3-20140805-win32/bin/../lib/gcc/arm-none-eabi/4.8.4/armv7e-m/fpu\libgcc.a(_arm_cmpdf2.o)
                              ..\obj\mpu9250_math.o (__aeabi_dcmpeq)
c:/users/niggi/gcc-arm-none-eabi-4_8-2014q3-20140805-win32/bin/../lib/gcc/arm-none-eabi/4.8.4/armv7e-m/fpu\libgcc.a(_arm_fixdfsi.o)
                              ..\obj\dw1000_driver.o (__aeabi_d2iz)
c:/users/niggi/gcc-arm-none-eabi-4_8-2014q3-20140805-win32/bin/../lib/gcc/arm-none-eabi/4.8.4/armv7e-m/fpu\libgcc.a(_arm_fixunsdfsi.o)
                              ..\obj\dw1000_driver.o (__aeabi_d2uiz)
c:/users/niggi/gcc-arm-none-eabi-4_8-2014q3-20140805-win32/bin/../lib/gcc/arm-none-eabi/4.8.4/armv7e-m/fpu\libgcc.a(_arm_truncdfsf2.o)
                              ..\obj\test.o (__aeabi_d2f)
c:/users/niggi/gcc-arm-none-eabi-4_8-2014q3-20140805-win32/bin/../lib/gcc/arm-none-eabi/4.8.4/armv7e-m/fpu\libgcc.a(_arm_addsubsf3.o)
                              ..\obj\dw1000_ranging.o (__aeabi_ul2f)
c:/users/niggi/gcc-arm-none-eabi-4_8-2014q3-20140805-win32/bin/../lib/gcc/arm-none-eabi/4.8.4/../../../../arm-none-eabi/lib/armv7e-m/fpu\libg.a(lib_a-atoi.o)
                              ..\obj\client_ftp.o (atoi)
c:/users/niggi/gcc-arm-none-eabi-4_8-2014q3-20140805-win32/bin/../lib/gcc/arm-none-eabi/4.8.4/../../../../arm-none-eabi/lib/armv7e-m/fpu\libg.a(lib_a-errno.o)
                              c:/users/niggi/gcc-arm-none-eabi-4_8-2014q3-20140805-win32/bin/../lib/gcc/arm-none-eabi/4.8.4/../../../../arm-none-eabi/lib/armv7e-m/fpu\libm.a(lib_a-w_log10.o) (__errno)
c:/users/niggi/gcc-arm-none-eabi-4_8-2014q3-20140805-win32/bin/../lib/gcc/arm-none-eabi/4.8.4/../../../../arm-none-eabi/lib/armv7e-m/fpu\libg.a(lib_a-impure.o)
                              c:/users/niggi/gcc-arm-none-eabi-4_8-2014q3-20140805-win32/bin/../lib/gcc/arm-none-eabi/4.8.4/../../../../arm-none-eabi/lib/armv7e-m/fpu\libg.a(lib_a-errno.o) (_impure_ptr)
c:/users/niggi/gcc-arm-none-eabi-4_8-2014q3-20140805-win32/bin/../lib/gcc/arm-none-eabi/4.8.4/../../../../arm-none-eabi/lib/armv7e-m/fpu\libg.a(lib_a-memcmp.o)
                              ..\obj\MQTTConnectServer.o (memcmp)
c:/users/niggi/gcc-arm-none-eabi-4_8-2014q3-20140805-win32/bin/../lib/gcc/arm-none-eabi/4.8.4/../../../../arm-none-eabi/lib/armv7e-m/fpu\libg.a(lib_a-memcpy.o)
                              ..\obj\socket.o (memcpy)
c:/users/niggi/gcc-arm-none-eabi-4_8-2014q3-20140805-win32/bin/../lib/gcc/arm-none-eabi/4.8.4/../../../../arm-none-eabi/lib/armv7e-m/fpu\libg.a(lib_a-memset.o)
                              ..\obj\MPU9250.o (memset)
c:/users/niggi/gcc-arm-none-eabi-4_8-2014q3-20140805-win32/bin/../lib/gcc/arm-none-eabi/4.8.4/../../../../arm-none-eabi/lib/armv7e-m/fpu\libg.a(lib_a-printf.o)
                              ..\obj\dw1000_user.o (printf)
c:/users/niggi/gcc-arm-none-eabi-4_8-2014q3-20140805-win32/bin/../lib/gcc/arm-none-eabi/4.8.4/../../../../arm-none-eabi/lib/armv7e-m/fpu\libg.a(lib_a-puts.o)
                              ..\obj\mpu9250_driver.o (puts)
c:/users/niggi/gcc-arm-none-eabi-4_8-2014q3-20140805-win32/bin/../lib/gcc/arm-none-eabi/4.8.4/../../../../arm-none-eabi/lib/armv7e-m/fpu\libg.a(lib_a-snprintf.o)
                              ..\obj\MQTTFormat.o (snprintf)
c:/users/niggi/gcc-arm-none-eabi-4_8-2014q3-20140805-win32/bin/../lib/gcc/arm-none-eabi/4.8.4/../../../../arm-none-eabi/lib/armv7e-m/fpu\libg.a(lib_a-sprintf.o)
                              ..\obj\MPU9250.o (sprintf)
c:/users/niggi/gcc-arm-none-eabi-4_8-2014q3-20140805-win32/bin/../lib/gcc/arm-none-eabi/4.8.4/../../../../arm-none-eabi/lib/armv7e-m/fpu\libg.a(lib_a-strcat.o)
                              ..\obj\client_ftp.o (strcat)
c:/users/niggi/gcc-arm-none-eabi-4_8-2014q3-20140805-win32/bin/../lib/gcc/arm-none-eabi/4.8.4/../../../../arm-none-eabi/lib/armv7e-m/fpu\libg.a(lib_a-strcmp.o)
                              ..\obj\MQTT.o (strcmp)
c:/users/niggi/gcc-arm-none-eabi-4_8-2014q3-20140805-win32/bin/../lib/gcc/arm-none-eabi/4.8.4/../../../../arm-none-eabi/lib/armv7e-m/fpu\libg.a(lib_a-strcpy.o)
                              ..\obj\client_ftp.o (strcpy)
c:/users/niggi/gcc-arm-none-eabi-4_8-2014q3-20140805-win32/bin/../lib/gcc/arm-none-eabi/4.8.4/../../../../arm-none-eabi/lib/armv7e-m/fpu\libg.a(lib_a-strlen.o)
                              ..\obj\dw1000_io.o (strlen)
c:/users/niggi/gcc-arm-none-eabi-4_8-2014q3-20140805-win32/bin/../lib/gcc/arm-none-eabi/4.8.4/../../../../arm-none-eabi/lib/armv7e-m/fpu\libg.a(lib_a-strncmp.o)
                              ..\obj\MQTTPacket.o (strncmp)
c:/users/niggi/gcc-arm-none-eabi-4_8-2014q3-20140805-win32/bin/../lib/gcc/arm-none-eabi/4.8.4/../../../../arm-none-eabi/lib/armv7e-m/fpu\libg.a(lib_a-strtok.o)
                              ..\obj\client_ftp.o (strtok)
c:/users/niggi/gcc-arm-none-eabi-4_8-2014q3-20140805-win32/bin/../lib/gcc/arm-none-eabi/4.8.4/../../../../arm-none-eabi/lib/armv7e-m/fpu\libg.a(lib_a-strtok_r.o)
                              c:/users/niggi/gcc-arm-none-eabi-4_8-2014q3-20140805-win32/bin/../lib/gcc/arm-none-eabi/4.8.4/../../../../arm-none-eabi/lib/armv7e-m/fpu\libg.a(lib_a-strtok.o) (__strtok_r)
c:/users/niggi/gcc-arm-none-eabi-4_8-2014q3-20140805-win32/bin/../lib/gcc/arm-none-eabi/4.8.4/../../../../arm-none-eabi/lib/armv7e-m/fpu\libg.a(lib_a-strtol.o)
                              c:/users/niggi/gcc-arm-none-eabi-4_8-2014q3-20140805-win32/bin/../lib/gcc/arm-none-eabi/4.8.4/../../../../arm-none-eabi/lib/armv7e-m/fpu\libg.a(lib_a-atoi.o) (_strtol_r)
c:/users/niggi/gcc-arm-none-eabi-4_8-2014q3-20140805-win32/bin/../lib/gcc/arm-none-eabi/4.8.4/../../../../arm-none-eabi/lib/armv7e-m/fpu\libg.a(lib_a-svfprintf.o)
                              c:/users/niggi/gcc-arm-none-eabi-4_8-2014q3-20140805-win32/bin/../lib/gcc/arm-none-eabi/4.8.4/../../../../arm-none-eabi/lib/armv7e-m/fpu\libg.a(lib_a-snprintf.o) (_svfprintf_r)
c:/users/niggi/gcc-arm-none-eabi-4_8-2014q3-20140805-win32/bin/../lib/gcc/arm-none-eabi/4.8.4/../../../../arm-none-eabi/lib/armv7e-m/fpu\libg.a(lib_a-vfprintf.o)
                              c:/users/niggi/gcc-arm-none-eabi-4_8-2014q3-20140805-win32/bin/../lib/gcc/arm-none-eabi/4.8.4/../../../../arm-none-eabi/lib/armv7e-m/fpu\libg.a(lib_a-printf.o) (_vfprintf_r)
c:/users/niggi/gcc-arm-none-eabi-4_8-2014q3-20140805-win32/bin/../lib/gcc/arm-none-eabi/4.8.4/../../../../arm-none-eabi/lib/armv7e-m/fpu\libg.a(lib_a-vsnprintf.o)
                              ..\obj\usart.o (vsnprintf)
c:/users/niggi/gcc-arm-none-eabi-4_8-2014q3-20140805-win32/bin/../lib/gcc/arm-none-eabi/4.8.4/../../../../arm-none-eabi/lib/armv7e-m/fpu\libg.a(lib_a-wsetup.o)
                              c:/users/niggi/gcc-arm-none-eabi-4_8-2014q3-20140805-win32/bin/../lib/gcc/arm-none-eabi/4.8.4/../../../../arm-none-eabi/lib/armv7e-m/fpu\libg.a(lib_a-vfprintf.o) (__swsetup_r)
c:/users/niggi/gcc-arm-none-eabi-4_8-2014q3-20140805-win32/bin/../lib/gcc/arm-none-eabi/4.8.4/../../../../arm-none-eabi/lib/armv7e-m/fpu\libg.a(lib_a-ctype_.o)
                              c:/users/niggi/gcc-arm-none-eabi-4_8-2014q3-20140805-win32/bin/../lib/gcc/arm-none-eabi/4.8.4/../../../../arm-none-eabi/lib/armv7e-m/fpu\libg.a(lib_a-strtol.o) (__ctype_ptr__)
c:/users/niggi/gcc-arm-none-eabi-4_8-2014q3-20140805-win32/bin/../lib/gcc/arm-none-eabi/4.8.4/../../../../arm-none-eabi/lib/armv7e-m/fpu\libg.a(lib_a-dtoa.o)
                              c:/users/niggi/gcc-arm-none-eabi-4_8-2014q3-20140805-win32/bin/../lib/gcc/arm-none-eabi/4.8.4/../../../../arm-none-eabi/lib/armv7e-m/fpu\libg.a(lib_a-svfprintf.o) (_dtoa_r)
c:/users/niggi/gcc-arm-none-eabi-4_8-2014q3-20140805-win32/bin/../lib/gcc/arm-none-eabi/4.8.4/../../../../arm-none-eabi/lib/armv7e-m/fpu\libg.a(lib_a-fflush.o)
                              c:/users/niggi/gcc-arm-none-eabi-4_8-2014q3-20140805-win32/bin/../lib/gcc/arm-none-eabi/4.8.4/../../../../arm-none-eabi/lib/armv7e-m/fpu\libg.a(lib_a-vfprintf.o) (_fflush_r)
c:/users/niggi/gcc-arm-none-eabi-4_8-2014q3-20140805-win32/bin/../lib/gcc/arm-none-eabi/4.8.4/../../../../arm-none-eabi/lib/armv7e-m/fpu\libg.a(lib_a-findfp.o)
                              c:/users/niggi/gcc-arm-none-eabi-4_8-2014q3-20140805-win32/bin/../lib/gcc/arm-none-eabi/4.8.4/../../../../arm-none-eabi/lib/armv7e-m/fpu\libg.a(lib_a-vfprintf.o) (__sinit)
c:/users/niggi/gcc-arm-none-eabi-4_8-2014q3-20140805-win32/bin/../lib/gcc/arm-none-eabi/4.8.4/../../../../arm-none-eabi/lib/armv7e-m/fpu\libg.a(lib_a-freer.o)
                              c:/users/niggi/gcc-arm-none-eabi-4_8-2014q3-20140805-win32/bin/../lib/gcc/arm-none-eabi/4.8.4/../../../../arm-none-eabi/lib/armv7e-m/fpu\libg.a(lib_a-wsetup.o) (_free_r)
c:/users/niggi/gcc-arm-none-eabi-4_8-2014q3-20140805-win32/bin/../lib/gcc/arm-none-eabi/4.8.4/../../../../arm-none-eabi/lib/armv7e-m/fpu\libg.a(lib_a-fvwrite.o)
                              c:/users/niggi/gcc-arm-none-eabi-4_8-2014q3-20140805-win32/bin/../lib/gcc/arm-none-eabi/4.8.4/../../../../arm-none-eabi/lib/armv7e-m/fpu\libg.a(lib_a-puts.o) (__sfvwrite_r)
c:/users/niggi/gcc-arm-none-eabi-4_8-2014q3-20140805-win32/bin/../lib/gcc/arm-none-eabi/4.8.4/../../../../arm-none-eabi/lib/armv7e-m/fpu\libg.a(lib_a-fwalk.o)
                              c:/users/niggi/gcc-arm-none-eabi-4_8-2014q3-20140805-win32/bin/../lib/gcc/arm-none-eabi/4.8.4/../../../../arm-none-eabi/lib/armv7e-m/fpu\libg.a(lib_a-findfp.o) (_fwalk)
c:/users/niggi/gcc-arm-none-eabi-4_8-2014q3-20140805-win32/bin/../lib/gcc/arm-none-eabi/4.8.4/../../../../arm-none-eabi/lib/armv7e-m/fpu\libg.a(lib_a-locale.o)
                              c:/users/niggi/gcc-arm-none-eabi-4_8-2014q3-20140805-win32/bin/../lib/gcc/arm-none-eabi/4.8.4/../../../../arm-none-eabi/lib/armv7e-m/fpu\libg.a(lib_a-svfprintf.o) (_localeconv_r)
c:/users/niggi/gcc-arm-none-eabi-4_8-2014q3-20140805-win32/bin/../lib/gcc/arm-none-eabi/4.8.4/../../../../arm-none-eabi/lib/armv7e-m/fpu\libg.a(lib_a-makebuf.o)
                              c:/users/niggi/gcc-arm-none-eabi-4_8-2014q3-20140805-win32/bin/../lib/gcc/arm-none-eabi/4.8.4/../../../../arm-none-eabi/lib/armv7e-m/fpu\libg.a(lib_a-wsetup.o) (__smakebuf_r)
c:/users/niggi/gcc-arm-none-eabi-4_8-2014q3-20140805-win32/bin/../lib/gcc/arm-none-eabi/4.8.4/../../../../arm-none-eabi/lib/armv7e-m/fpu\libg.a(lib_a-mallocr.o)
                              c:/users/niggi/gcc-arm-none-eabi-4_8-2014q3-20140805-win32/bin/../lib/gcc/arm-none-eabi/4.8.4/../../../../arm-none-eabi/lib/armv7e-m/fpu\libg.a(lib_a-svfprintf.o) (_malloc_r)
c:/users/niggi/gcc-arm-none-eabi-4_8-2014q3-20140805-win32/bin/../lib/gcc/arm-none-eabi/4.8.4/../../../../arm-none-eabi/lib/armv7e-m/fpu\libg.a(lib_a-memchr-stub.o)
                              c:/users/niggi/gcc-arm-none-eabi-4_8-2014q3-20140805-win32/bin/../lib/gcc/arm-none-eabi/4.8.4/../../../../arm-none-eabi/lib/armv7e-m/fpu\libg.a(lib_a-svfprintf.o) (memchr)
c:/users/niggi/gcc-arm-none-eabi-4_8-2014q3-20140805-win32/bin/../lib/gcc/arm-none-eabi/4.8.4/../../../../arm-none-eabi/lib/armv7e-m/fpu\libg.a(lib_a-memmove.o)
                              c:/users/niggi/gcc-arm-none-eabi-4_8-2014q3-20140805-win32/bin/../lib/gcc/arm-none-eabi/4.8.4/../../../../arm-none-eabi/lib/armv7e-m/fpu\libg.a(lib_a-fvwrite.o) (memmove)
c:/users/niggi/gcc-arm-none-eabi-4_8-2014q3-20140805-win32/bin/../lib/gcc/arm-none-eabi/4.8.4/../../../../arm-none-eabi/lib/armv7e-m/fpu\libg.a(lib_a-mlock.o)
                              c:/users/niggi/gcc-arm-none-eabi-4_8-2014q3-20140805-win32/bin/../lib/gcc/arm-none-eabi/4.8.4/../../../../arm-none-eabi/lib/armv7e-m/fpu\libg.a(lib_a-freer.o) (__malloc_lock)
c:/users/niggi/gcc-arm-none-eabi-4_8-2014q3-20140805-win32/bin/../lib/gcc/arm-none-eabi/4.8.4/../../../../arm-none-eabi/lib/armv7e-m/fpu\libg.a(lib_a-mprec.o)
                              c:/users/niggi/gcc-arm-none-eabi-4_8-2014q3-20140805-win32/bin/../lib/gcc/arm-none-eabi/4.8.4/../../../../arm-none-eabi/lib/armv7e-m/fpu\libg.a(lib_a-dtoa.o) (_Balloc)
c:/users/niggi/gcc-arm-none-eabi-4_8-2014q3-20140805-win32/bin/../lib/gcc/arm-none-eabi/4.8.4/../../../../arm-none-eabi/lib/armv7e-m/fpu\libg.a(lib_a-reallocr.o)
                              c:/users/niggi/gcc-arm-none-eabi-4_8-2014q3-20140805-win32/bin/../lib/gcc/arm-none-eabi/4.8.4/../../../../arm-none-eabi/lib/armv7e-m/fpu\libg.a(lib_a-fvwrite.o) (_realloc_r)
c:/users/niggi/gcc-arm-none-eabi-4_8-2014q3-20140805-win32/bin/../lib/gcc/arm-none-eabi/4.8.4/../../../../arm-none-eabi/lib/armv7e-m/fpu\libg.a(lib_a-sbrkr.o)
                              c:/users/niggi/gcc-arm-none-eabi-4_8-2014q3-20140805-win32/bin/../lib/gcc/arm-none-eabi/4.8.4/../../../../arm-none-eabi/lib/armv7e-m/fpu\libg.a(lib_a-freer.o) (_sbrk_r)
c:/users/niggi/gcc-arm-none-eabi-4_8-2014q3-20140805-win32/bin/../lib/gcc/arm-none-eabi/4.8.4/../../../../arm-none-eabi/lib/armv7e-m/fpu\libg.a(lib_a-stdio.o)
                              c:/users/niggi/gcc-arm-none-eabi-4_8-2014q3-20140805-win32/bin/../lib/gcc/arm-none-eabi/4.8.4/../../../../arm-none-eabi/lib/armv7e-m/fpu\libg.a(lib_a-findfp.o) (__sread)
c:/users/niggi/gcc-arm-none-eabi-4_8-2014q3-20140805-win32/bin/../lib/gcc/arm-none-eabi/4.8.4/../../../../arm-none-eabi/lib/armv7e-m/fpu\libg.a(lib_a-svfiprintf.o)
                              c:/users/niggi/gcc-arm-none-eabi-4_8-2014q3-20140805-win32/bin/../lib/gcc/arm-none-eabi/4.8.4/../../../../arm-none-eabi/lib/armv7e-m/fpu\libg.a(lib_a-svfprintf.o) (__ssprint_r)
c:/users/niggi/gcc-arm-none-eabi-4_8-2014q3-20140805-win32/bin/../lib/gcc/arm-none-eabi/4.8.4/../../../../arm-none-eabi/lib/armv7e-m/fpu\libg.a(lib_a-vfiprintf.o)
                              c:/users/niggi/gcc-arm-none-eabi-4_8-2014q3-20140805-win32/bin/../lib/gcc/arm-none-eabi/4.8.4/../../../../arm-none-eabi/lib/armv7e-m/fpu\libg.a(lib_a-vfprintf.o) (__sprint_r)
c:/users/niggi/gcc-arm-none-eabi-4_8-2014q3-20140805-win32/bin/../lib/gcc/arm-none-eabi/4.8.4/../../../../arm-none-eabi/lib/armv7e-m/fpu\libg.a(lib_a-writer.o)
                              c:/users/niggi/gcc-arm-none-eabi-4_8-2014q3-20140805-win32/bin/../lib/gcc/arm-none-eabi/4.8.4/../../../../arm-none-eabi/lib/armv7e-m/fpu\libg.a(lib_a-stdio.o) (_write_r)
c:/users/niggi/gcc-arm-none-eabi-4_8-2014q3-20140805-win32/bin/../lib/gcc/arm-none-eabi/4.8.4/../../../../arm-none-eabi/lib/armv7e-m/fpu\libg.a(lib_a-callocr.o)
                              c:/users/niggi/gcc-arm-none-eabi-4_8-2014q3-20140805-win32/bin/../lib/gcc/arm-none-eabi/4.8.4/../../../../arm-none-eabi/lib/armv7e-m/fpu\libg.a(lib_a-mprec.o) (_calloc_r)
c:/users/niggi/gcc-arm-none-eabi-4_8-2014q3-20140805-win32/bin/../lib/gcc/arm-none-eabi/4.8.4/../../../../arm-none-eabi/lib/armv7e-m/fpu\libg.a(lib_a-closer.o)
                              c:/users/niggi/gcc-arm-none-eabi-4_8-2014q3-20140805-win32/bin/../lib/gcc/arm-none-eabi/4.8.4/../../../../arm-none-eabi/lib/armv7e-m/fpu\libg.a(lib_a-stdio.o) (_close_r)
c:/users/niggi/gcc-arm-none-eabi-4_8-2014q3-20140805-win32/bin/../lib/gcc/arm-none-eabi/4.8.4/../../../../arm-none-eabi/lib/armv7e-m/fpu\libg.a(lib_a-fclose.o)
                              c:/users/niggi/gcc-arm-none-eabi-4_8-2014q3-20140805-win32/bin/../lib/gcc/arm-none-eabi/4.8.4/../../../../arm-none-eabi/lib/armv7e-m/fpu\libg.a(lib_a-findfp.o) (fclose)
c:/users/niggi/gcc-arm-none-eabi-4_8-2014q3-20140805-win32/bin/../lib/gcc/arm-none-eabi/4.8.4/../../../../arm-none-eabi/lib/armv7e-m/fpu\libg.a(lib_a-fputwc.o)
                              c:/users/niggi/gcc-arm-none-eabi-4_8-2014q3-20140805-win32/bin/../lib/gcc/arm-none-eabi/4.8.4/../../../../arm-none-eabi/lib/armv7e-m/fpu\libg.a(lib_a-vfiprintf.o) (_fputwc_r)
c:/users/niggi/gcc-arm-none-eabi-4_8-2014q3-20140805-win32/bin/../lib/gcc/arm-none-eabi/4.8.4/../../../../arm-none-eabi/lib/armv7e-m/fpu\libg.a(lib_a-fstatr.o)
                              c:/users/niggi/gcc-arm-none-eabi-4_8-2014q3-20140805-win32/bin/../lib/gcc/arm-none-eabi/4.8.4/../../../../arm-none-eabi/lib/armv7e-m/fpu\libg.a(lib_a-makebuf.o) (_fstat_r)
c:/users/niggi/gcc-arm-none-eabi-4_8-2014q3-20140805-win32/bin/../lib/gcc/arm-none-eabi/4.8.4/../../../../arm-none-eabi/lib/armv7e-m/fpu\libg.a(lib_a-isattyr.o)
                              c:/users/niggi/gcc-arm-none-eabi-4_8-2014q3-20140805-win32/bin/../lib/gcc/arm-none-eabi/4.8.4/../../../../arm-none-eabi/lib/armv7e-m/fpu\libg.a(lib_a-makebuf.o) (_isatty_r)
c:/users/niggi/gcc-arm-none-eabi-4_8-2014q3-20140805-win32/bin/../lib/gcc/arm-none-eabi/4.8.4/../../../../arm-none-eabi/lib/armv7e-m/fpu\libg.a(lib_a-lseekr.o)
                              c:/users/niggi/gcc-arm-none-eabi-4_8-2014q3-20140805-win32/bin/../lib/gcc/arm-none-eabi/4.8.4/../../../../arm-none-eabi/lib/armv7e-m/fpu\libg.a(lib_a-stdio.o) (_lseek_r)
c:/users/niggi/gcc-arm-none-eabi-4_8-2014q3-20140805-win32/bin/../lib/gcc/arm-none-eabi/4.8.4/../../../../arm-none-eabi/lib/armv7e-m/fpu\libg.a(lib_a-readr.o)
                              c:/users/niggi/gcc-arm-none-eabi-4_8-2014q3-20140805-win32/bin/../lib/gcc/arm-none-eabi/4.8.4/../../../../arm-none-eabi/lib/armv7e-m/fpu\libg.a(lib_a-stdio.o) (_read_r)
c:/users/niggi/gcc-arm-none-eabi-4_8-2014q3-20140805-win32/bin/../lib/gcc/arm-none-eabi/4.8.4/../../../../arm-none-eabi/lib/armv7e-m/fpu\libg.a(lib_a-reent.o)
                              c:/users/niggi/gcc-arm-none-eabi-4_8-2014q3-20140805-win32/bin/../lib/gcc/arm-none-eabi/4.8.4/../../../../arm-none-eabi/lib/armv7e-m/fpu\libg.a(lib_a-sbrkr.o) (errno)
c:/users/niggi/gcc-arm-none-eabi-4_8-2014q3-20140805-win32/bin/../lib/gcc/arm-none-eabi/4.8.4/../../../../arm-none-eabi/lib/armv7e-m/fpu\libg.a(lib_a-wbuf.o)
                              c:/users/niggi/gcc-arm-none-eabi-4_8-2014q3-20140805-win32/bin/../lib/gcc/arm-none-eabi/4.8.4/../../../../arm-none-eabi/lib/armv7e-m/fpu\libg.a(lib_a-fputwc.o) (__swbuf_r)
c:/users/niggi/gcc-arm-none-eabi-4_8-2014q3-20140805-win32/bin/../lib/gcc/arm-none-eabi/4.8.4/../../../../arm-none-eabi/lib/armv7e-m/fpu\libg.a(lib_a-wcrtomb.o)
                              c:/users/niggi/gcc-arm-none-eabi-4_8-2014q3-20140805-win32/bin/../lib/gcc/arm-none-eabi/4.8.4/../../../../arm-none-eabi/lib/armv7e-m/fpu\libg.a(lib_a-fputwc.o) (_wcrtomb_r)
c:/users/niggi/gcc-arm-none-eabi-4_8-2014q3-20140805-win32/bin/../lib/gcc/arm-none-eabi/4.8.4/../../../../arm-none-eabi/lib/armv7e-m/fpu\libg.a(lib_a-wctomb_r.o)
                              c:/users/niggi/gcc-arm-none-eabi-4_8-2014q3-20140805-win32/bin/../lib/gcc/arm-none-eabi/4.8.4/../../../../arm-none-eabi/lib/armv7e-m/fpu\libg.a(lib_a-wcrtomb.o) (__wctomb)
c:/users/niggi/gcc-arm-none-eabi-4_8-2014q3-20140805-win32/bin/../lib/gcc/arm-none-eabi/4.8.4/armv7e-m/fpu\libgcc.a(_aeabi_uldivmod.o)
                              c:/users/niggi/gcc-arm-none-eabi-4_8-2014q3-20140805-win32/bin/../lib/gcc/arm-none-eabi/4.8.4/../../../../arm-none-eabi/lib/armv7e-m/fpu\libg.a(lib_a-svfprintf.o) (__aeabi_uldivmod)
c:/users/niggi/gcc-arm-none-eabi-4_8-2014q3-20140805-win32/bin/../lib/gcc/arm-none-eabi/4.8.4/armv7e-m/fpu\libgcc.a(bpabi.o)
                              c:/users/niggi/gcc-arm-none-eabi-4_8-2014q3-20140805-win32/bin/../lib/gcc/arm-none-eabi/4.8.4/armv7e-m/fpu\libgcc.a(_aeabi_uldivmod.o) (__gnu_uldivmod_helper)
c:/users/niggi/gcc-arm-none-eabi-4_8-2014q3-20140805-win32/bin/../lib/gcc/arm-none-eabi/4.8.4/armv7e-m/fpu\libgcc.a(_dvmd_tls.o)
                              c:/users/niggi/gcc-arm-none-eabi-4_8-2014q3-20140805-win32/bin/../lib/gcc/arm-none-eabi/4.8.4/armv7e-m/fpu\libgcc.a(_aeabi_uldivmod.o) (__aeabi_ldiv0)
c:/users/niggi/gcc-arm-none-eabi-4_8-2014q3-20140805-win32/bin/../lib/gcc/arm-none-eabi/4.8.4/armv7e-m/fpu\libgcc.a(_divdi3.o)
                              c:/users/niggi/gcc-arm-none-eabi-4_8-2014q3-20140805-win32/bin/../lib/gcc/arm-none-eabi/4.8.4/armv7e-m/fpu\libgcc.a(bpabi.o) (__divdi3)
c:/users/niggi/gcc-arm-none-eabi-4_8-2014q3-20140805-win32/bin/../lib/gcc/arm-none-eabi/4.8.4/armv7e-m/fpu\libgcc.a(_udivdi3.o)
                              c:/users/niggi/gcc-arm-none-eabi-4_8-2014q3-20140805-win32/bin/../lib/gcc/arm-none-eabi/4.8.4/armv7e-m/fpu\libgcc.a(bpabi.o) (__udivdi3)

Allocating common symbols
Common symbol       size              file

mpu9250_az          0x8               ..\obj\mpu9250_driver.o
mpu9250_ax          0x8               ..\obj\mpu9250_driver.o
BME280              0x10              ..\obj\BME280.o
dw1000_exti_structure
                    0x8               ..\obj\dw1000_user.o
blockedState        0x1               ..\obj\aufgabe.o
exceptsds           0x4               ..\obj\CC3100.o
b                   0x1               ..\obj\aufgabe.o
character           0x1               ..\obj\aufgabe.o
rx_daten            0x800             ..\obj\CC3100.o
dw1000_spi_structure
                    0x12              ..\obj\dw1000_user.o
my_IP               0x10              ..\obj\CC3100.o
errno               0x4               c:/users/niggi/gcc-arm-none-eabi-4_8-2014q3-20140805-win32/bin/../lib/gcc/arm-none-eabi/4.8.4/../../../../arm-none-eabi/lib/armv7e-m/fpu\libg.a(lib_a-reent.o)
ftp_return_string   0x50              ..\obj\client_ftp.o
NTP_Servers         0x12c             ..\obj\client_ntp.o
from                0xa0              ..\obj\CC3100.o
dw1000_nvic_structure
                    0x4               ..\obj\dw1000_user.o
mpu9250_mz          0x8               ..\obj\mpu9250_driver.o
mpu9250_gy          0x8               ..\obj\mpu9250_driver.o
ntp_pkt             0x30              ..\obj\client_ntp.o
RTC_Init_Struct     0xc               ..\obj\rtc.o
ntp_sync_stop_Date  0x4               ..\obj\rtc.o
sd_fat              0x230             ..\obj\SDCARD.o
readds              0x4               ..\obj\CC3100.o
ntp_sync_stop_Time  0x4               ..\obj\rtc.o
RxIrqCnt            0x1               ..\obj\driver.o
g_auth_realm        0x15              ..\obj\CC3100_HttpServer.o
mpu9250_my          0x8               ..\obj\mpu9250_driver.o
NTP_Server_Name     0x20              ..\obj\client_ntp.o
mpu9250_gx          0x8               ..\obj\mpu9250_driver.o
quaternion          0x20              ..\obj\MPU9250.o
sd_fileobjekt       0x224             ..\obj\SDCARD.o
dw1000_chan_ctrl    0x4               ..\obj\dw1000_config.o
g__SlNonOsCB        0x28              ..\obj\nonos.o
ntp_sync_startTime  0x4               ..\obj\rtc.o
sdcard_file_name    0x14              ..\obj\client_ftp.o
IntIsMasked         0x1               ..\obj\CC3100_Board.o
RTC_Alarm_Struct    0x10              ..\obj\rtc.o
sd_filebuffer       0x800             ..\obj\SDCARD.o
usart2_tx_buffer    0x400             ..\obj\usart.o
buf_out             0xc8              ..\obj\MQTT.o
RTC_Time_Aktuell    0x4               ..\obj\rtc.o
sockets             0xa0              ..\obj\CC3100.o
usart2_rx_buffer    0x400             ..\obj\usart.o
c                   0x1               ..\obj\aufgabe.o
client              0x5c              ..\obj\MQTT.o
magnetometer        0x18              ..\obj\MPU9250.o
rotation            0x18              ..\obj\MPU9250.o
last_NTP_Sync       0x4               ..\obj\client_ntp.o
counter             0x1               ..\obj\aufgabe.o
ftp_send_command    0x50              ..\obj\client_ftp.o
rx_buf              0x5000            ..\obj\CC3100.o
MilliTimer          0x4               ..\obj\MQTT.o
RTC_Time_Struct     0x4               ..\obj\rtc.o
uwbranging_rxbuffer
                    0x400             ..\obj\dw1000_ranging.o
RTC_Date_Struct     0x4               ..\obj\rtc.o
timeout             0x8               ..\obj\CC3100.o
mpu9250_ay          0x8               ..\obj\mpu9250_driver.o
g_device_urn        0x10              ..\obj\CC3100_HttpServer.o
d                   0x1               ..\obj\aufgabe.o
write_cbs           0x28              ..\obj\CC3100.o
dw1000_tx_fctrl     0x4               ..\obj\dw1000_config.o
tx_buf              0x5000            ..\obj\CC3100.o
RTC_InitStructure   0xc               ..\obj\rtc.o
mpu9250_temperature
                    0x8               ..\obj\mpu9250_driver.o
read_cbs            0x28              ..\obj\CC3100.o
largeFileName       0xff              ..\obj\SDCARD.o
mpu9250_mx          0x8               ..\obj\mpu9250_driver.o
NVIC_InitStruct     0x4               ..\obj\rtc.o
RTC_Alarm_Aktuell   0x10              ..\obj\rtc.o
network             0x10              ..\obj\MQTT.o
g_auth_password     0x15              ..\obj\CC3100_HttpServer.o
buf_in              0xc8              ..\obj\MQTT.o
except_cbs          0x28              ..\obj\CC3100.o
sd_resultcode       0x1               ..\obj\SDCARD.o
ftp_data_buffer     0x800             ..\obj\client_ftp.o
ntp_sync_startDate  0x4               ..\obj\rtc.o
EXTI_InitStruct     0x8               ..\obj\rtc.o
g_StatMem           0x270             ..\obj\driver.o
mpu9250_gz          0x8               ..\obj\mpu9250_driver.o
sd_fileinfo         0x20              ..\obj\SDCARD.o
mytime              0x4               ..\obj\MPU9250.o
RTC_TimeStructure   0x4               ..\obj\rtc.o
senderIP            0x8               ..\obj\CC3100.o
g_domain_name       0x19              ..\obj\CC3100_HttpServer.o
acceleration        0x18              ..\obj\MPU9250.o
writeds             0x4               ..\obj\CC3100.o
RTC_Date_Aktuell    0x4               ..\obj\rtc.o
uwbranging_config   0x9               ..\obj\dw1000_ranging.o
dw1000_sys_cfg      0x4               ..\obj\dw1000_config.o
g_auth_name         0x15              ..\obj\CC3100_HttpServer.o
uwbranging_process  0x37              ..\obj\dw1000_ranging.o

Discarded input sections

 .text          0x00000000        0x0 ..\obj\socket.o
 .data          0x00000000        0x0 ..\obj\socket.o
 .bss           0x00000000        0x0 ..\obj\socket.o
 .text._sl_ParseAddress
                0x00000000       0x64 ..\obj\socket.o
 .text.sl_Socket
                0x00000000       0x5c ..\obj\socket.o
 .text.sl_Bind  0x00000000       0x8c ..\obj\socket.o
 .text.sl_Connect
                0x00000000      0x110 ..\obj\socket.o
 .text.sl_Listen
                0x00000000       0x48 ..\obj\socket.o
 .text.sl_Accept
                0x00000000      0x140 ..\obj\socket.o
 .text.sl_Htonl
                0x00000000       0x50 ..\obj\socket.o
 .text.sl_Htons
                0x00000000       0x44 ..\obj\socket.o
Memory Configuration

Name             Origin             Length             Attributes
rom              0x08000000         0x00100000         xr
ram              0x20000000         0x00020000         xrw
ram1             0x10000000         0x00010000         xrw
*default*        0x00000000         0xffffffff

Linker script and memory map

                0x20020000                _eram = 0x20020000

.text           0x08000000    0x128a4
 *(.isr_vector)
 .isr_vector    0x08000000      0x188 ..\obj\startup_stm32f4xx.o
                0x08000000                g_pfnVectors
 *(.text*)
 .text._sl_BuildAddress
                0x08000188       0x50 ..\obj\socket.o
                0x08000188                _sl_BuildAddress
 .text._sl_TruncatePayloadByProtocol
                0x080001d8       0x40 ..\obj\socket.o
                0x080001d8                _sl_TruncatePayloadByProtocol
 .text.sl_Close
                0x08000218       0x3c ..\obj\socket.o
                0x08000218                sl_Close
 .text.sl_SendTo
                0x08000254      0x114 ..\obj\socket.o
                0x08000254                sl_SendTo
 .text.sl_RecvFrom
                0x08000368      0x10c ..\obj\socket.o
                0x08000368                sl_RecvFrom
 .text._sl_HandleAsync_Connect
                0x08000474       0x94 ..\obj\socket.o
                0x08000474                _sl_HandleAsync_Connect
 .text.sl_Send  0x08000508      0x104 ..\obj\socket.o
                0x08000508                sl_Send
 .text._sl_HandleAsync_Accept
                0x0800060c       0x78 ..\obj\socket.o
                0x0800060c                _sl_HandleAsync_Accept
 .text._sl_HandleAsync_Select
                0x08000684       0x68 ..\obj\socket.o
                0x08000684                _sl_HandleAsync_Select
 .text.sl_Recv  0x080006ec       0x78 ..\obj\socket.o
                0x080006ec                sl_Recv
 .text.sl_Select
                0x08000764      0x144 ..\obj\socket.o
                0x08000764                sl_Select
 .text.SL_FD_SET
                0x080008a8       0x2c ..\obj\socket.o
                0x080008a8                SL_FD_SET
 .text.SL_FD_ISSET
                0x080008d4       0x38 ..\obj\socket.o
                0x080008d4                SL_FD_ISSET
 .text.SL_FD_ZERO
                0x0800090c       0x18 ..\obj\socket.o
                0x0800090c                SL_FD_ZERO
 .text.dw1000_readUInt32
                0x08000924       0x2c ..\obj\dw1000_io.o
                0x08000924                dw1000_readUInt32
 .text.dw1000_readUInt16
                0x08000950       0x2c ..\obj\dw1000_io.o
                0x08000950                dw1000_readUInt16
 .text.dw1000_readUInt8
                0x0800097c       0x30 ..\obj\dw1000_io.o
                0x0800097c                dw1000_readUInt8
 .text.dw1000_writeUInt32
                0x080009ac       0x24 ..\obj\dw1000_io.o
                0x080009ac                dw1000_writeUInt32
 .text.dw1000_writeUInt16
                0x080009d0       0x28 ..\obj\dw1000_io.o
                0x080009d0                dw1000_writeUInt16
 .text.dw1000_writeUInt8
                0x080009f8       0x28 ..\obj\dw1000_io.o
                0x080009f8                dw1000_writeUInt8
 .text.dw1000_read
                0x08000a20       0xcc ..\obj\dw1000_io.o
                0x08000a20                dw1000_read
 .text.dw1000_write
                0x08000aec       0xa8 ..\obj\dw1000_io.o
                0x08000aec                dw1000_write
 .text.dw1000_writeTwoBuffers
                0x08000b94       0x80 ..\obj\dw1000_io.o
                0x08000b94                dw1000_writeTwoBuffers
 .text.dw1000_writeByteArrayToTxBuffer
                0x08000c14       0xac ..\obj\dw1000_io.o
                0x08000c14                dw1000_writeByteArrayToTxBuffer
 .text.dw1000_writeByteArrayAndHeaderToTxBuffer
                0x08000cc0       0xa0 ..\obj\dw1000_io.o
                0x08000cc0                dw1000_writeByteArrayAndHeaderToTxBuffer
 .text.dw1000_getRxTxBufferLen
                0x08000d60       0x68 ..\obj\dw1000_io.o
                0x08000d60                dw1000_getRxTxBufferLen
 .text.SYSCFG_EXTILineConfig
                0x08000dc8       0x7c ..\obj\stm32f4xx_syscfg.o
                0x08000dc8                SYSCFG_EXTILineConfig
 .text._sl_HandleAsync_DnsGetHostByService
                0x08000e44       0xd4 ..\obj\netapp.o
                0x08000e44                _sl_HandleAsync_DnsGetHostByService
 .text._sl_HandleAsync_DnsGetHostByName
                0x08000f18       0xb4 ..\obj\netapp.o
                0x08000f18                _sl_HandleAsync_DnsGetHostByName
 .text.CopyPingResultsToReport
                0x08000fcc       0x44 ..\obj\netapp.o
                0x08000fcc                CopyPingResultsToReport
 .text._sl_HandleAsync_PingResponse
                0x08001010       0xb0 ..\obj\netapp.o
                0x08001010                _sl_HandleAsync_PingResponse
 .text._sl_NetAppSendTokenValue
                0x080010c0       0x7c ..\obj\netapp.o
                0x080010c0                _sl_NetAppSendTokenValue
 .text._SlDrvNetAppEventHandler
                0x0800113c      0x128 ..\obj\netapp.o
                0x0800113c                _SlDrvNetAppEventHandler
 .text.OsSchedUnlock
                0x08001264       0x4c ..\obj\core.o
                0x08001264                OsSchedUnlock
 .text.MQTT_SysTickHandler
                0x080012b0       0x1c ..\obj\MQTT.o
                0x080012b0                MQTT_SysTickHandler
 .text.NMI_Handler
                0x080012cc        0x8 ..\obj\interrupts.o
                0x080012cc                NMI_Handler
 .text.HardFault_Handler
                0x080012d4       0x20 ..\obj\interrupts.o
                0x080012d4                HardFault_Handler
 .text.MemManage_Handler
                0x080012f4        0x8 ..\obj\interrupts.o
                0x080012f4                MemManage_Handler
 .text.BusFault_Handler
                0x080012fc        0x8 ..\obj\interrupts.o
                0x080012fc                BusFault_Handler
 .text.UsageFault_Handler
                0x08001304        0x8 ..\obj\interrupts.o
                0x08001304                UsageFault_Handler
 .text.SVC_Handler
                0x0800130c        0x8 ..\obj\interrupts.o
                0x0800130c                SVC_Handler
 .text.DebugMon_Handler
                0x08001314        0x8 ..\obj\interrupts.o
                0x08001314                DebugMon_Handler
 .text.SysTick_Handler
                0x0800131c       0xc4 ..\obj\interrupts.o
                0x0800131c                SysTick_Handler
 .text.WWDG_IRQHandler
                0x080013e0       0x30 ..\obj\interrupts.o
                0x080013e0                WWDG_IRQHandler
 .text.EXTI0_IRQHandler
                0x08001410       0x24 ..\obj\interrupts.o
                0x08001410                EXTI0_IRQHandler
 .text.EXTI1_IRQHandler
                0x08001434       0x24 ..\obj\interrupts.o
                0x08001434                EXTI1_IRQHandler
 .text.EXTI2_IRQHandler
                0x08001458       0x20 ..\obj\interrupts.o
                0x08001458                EXTI2_IRQHandler
 .text.EXTI3_IRQHandler
                0x08001478       0x20 ..\obj\interrupts.o
                0x08001478                EXTI3_IRQHandler
 .text.EXTI4_IRQHandler
                0x08001498       0x20 ..\obj\interrupts.o
                0x08001498                EXTI4_IRQHandler
 .text.EXTI9_5_IRQHandler
                0x080014b8       0xe0 ..\obj\interrupts.o
                0x080014b8                EXTI9_5_IRQHandler
 .text.EXTI15_10_IRQHandler
                0x08001598       0xbc ..\obj\interrupts.o
                0x08001598                EXTI15_10_IRQHandler
 .text.RTC_Alarm_IRQHandler
                0x08001654      0x118 ..\obj\interrupts.o
                0x08001654                RTC_Alarm_IRQHandler
 .text.ADC_IRQHandler
                0x0800176c       0x40 ..\obj\interrupts.o
                0x0800176c                ADC_IRQHandler
 .text.USART2_IRQHandler
                0x080017ac       0x78 ..\obj\interrupts.o
                0x080017ac                USART2_IRQHandler
 .text.UART5_IRQHandler
                0x08001824       0x30 ..\obj\interrupts.o
                0x08001824                UART5_IRQHandler
 .text.USART6_IRQHandler
                0x08001854        0xc ..\obj\interrupts.o
                0x08001854                USART6_IRQHandler
 .text.DMA2_Stream6_IRQHandler
                0x08001860        0xc ..\obj\interrupts.o
                0x08001860                DMA2_Stream6_IRQHandler
 .text.RTC_WKUP_IRQHandler
                0x0800186c       0x24 ..\obj\interrupts.o
                0x0800186c                RTC_WKUP_IRQHandler
 .text.TIM5_IRQHandler
                0x08001890       0x24 ..\obj\interrupts.o
                0x08001890                TIM5_IRQHandler
 .text.TIM7_IRQHandler
                0x080018b4        0xc ..\obj\interrupts.o
                0x080018b4                TIM7_IRQHandler
 .text.DMA2_Stream2_IRQHandler
                0x080018c0       0x24 ..\obj\interrupts.o
                0x080018c0                DMA2_Stream2_IRQHandler
 .text.DMA2_Stream3_IRQHandler
                0x080018e4       0x24 ..\obj\interrupts.o
                0x080018e4                DMA2_Stream3_IRQHandler
 .text.TIM6_DAC_IRQHandler
                0x08001908       0x24 ..\obj\interrupts.o
                0x08001908                TIM6_DAC_IRQHandler
 .text.hard_fault_handler_c
                0x0800192c      0x294 ..\obj\interrupts.o
                0x0800192c                hard_fault_handler_c
 .text.InsertTmrList
                0x08001bc0      0x1d0 ..\obj\timer.o
 .text.RemoveTmrList
                0x08001d90       0xd4 ..\obj\timer.o
 .text.TmrDispose
                0x08001e64       0x78 ..\obj\timer.o
                0x08001e64                TmrDispose
 .text.isr_TmrDispose
                0x08001edc       0x30 ..\obj\timer.o
                0x08001edc                isr_TmrDispose
 .text._SlDrvProtectAsyncRespSetting
                0x08001f0c       0x54 ..\obj\driver.o
                0x08001f0c                _SlDrvProtectAsyncRespSetting
 .text._SlDrvCmdOp
                0x08001f60       0x88 ..\obj\driver.o
                0x08001f60                _SlDrvCmdOp
 .text._SlDrvDataReadOp
                0x08001fe8      0x148 ..\obj\driver.o
                0x08001fe8                _SlDrvDataReadOp
 .text._SlDrvDataWriteOp
                0x08002130      0x134 ..\obj\driver.o
                0x08002130                _SlDrvDataWriteOp
 .text._SlDrvMsgWrite
                0x08002264      0x218 ..\obj\driver.o
                0x08002264                _SlDrvMsgWrite
 .text._SlDrvMsgRead
                0x0800247c      0x6d0 ..\obj\driver.o
                0x0800247c                _SlDrvMsgRead
 .text._SlAsyncEventGenericHandler
                0x08002b4c       0xa8 ..\obj\driver.o
                0x08002b4c                _SlAsyncEventGenericHandler
 .text._SlDrvMsgReadCmdCtx
                0x08002bf4       0xe0 ..\obj\driver.o
                0x08002bf4                _SlDrvMsgReadCmdCtx
 .text._SlDrvMsgReadSpawnCtx
                0x08002cd4       0xb0 ..\obj\driver.o
                0x08002cd4                _SlDrvMsgReadSpawnCtx
 .text._SlDrvClassifyRxMsg
                0x08002d84       0xc8 ..\obj\driver.o
                0x08002d84                _SlDrvClassifyRxMsg
 .text._SlDrvRxHdrRead
                0x08002e4c      0x298 ..\obj\driver.o
                0x08002e4c                _SlDrvRxHdrRead
 .text._SlDrvCmdSend
                0x080030e4       0x78 ..\obj\driver.o
                0x080030e4                _SlDrvCmdSend
 .text._SlDrvWaitForPoolObj
                0x0800315c      0x1a4 ..\obj\driver.o
                0x0800315c                _SlDrvWaitForPoolObj
 .text._SlDrvReleasePoolObj
                0x08003300      0x204 ..\obj\driver.o
                0x08003300                _SlDrvReleasePoolObj
 .text._SlRemoveFromList
                0x08003504       0xcc ..\obj\driver.o
                0x08003504                _SlRemoveFromList
 .text._SlFindAndSetActiveObj
                0x080035d0      0x16c ..\obj\driver.o
                0x080035d0                _SlFindAndSetActiveObj
 .text._SlDrvSyncObjWaitForever
                0x0800373c       0x28 ..\obj\driver.o
                0x0800373c                _SlDrvSyncObjWaitForever
 .text._SlDrvSyncObjSignal
                0x08003764       0x24 ..\obj\driver.o
                0x08003764                _SlDrvSyncObjSignal
 .text._SlDrvObjLockWaitForever
                0x08003788       0x28 ..\obj\driver.o
                0x08003788                _SlDrvObjLockWaitForever
 .text._SlDrvProtectionObjLockWaitForever
                0x080037b0       0x34 ..\obj\driver.o
                0x080037b0                _SlDrvProtectionObjLockWaitForever
 .text._SlDrvObjUnLock
                0x080037e4       0x24 ..\obj\driver.o
                0x080037e4                _SlDrvObjUnLock
 .text._SlDrvProtectionObjUnLock
                0x08003808       0x30 ..\obj\driver.o
                0x08003808                _SlDrvProtectionObjUnLock
 .text._SlDrvMemZero
                0x08003838       0x20 ..\obj\driver.o
                0x08003838                _SlDrvMemZero
 .text._SlDrvResetCmdExt
                0x08003858       0x18 ..\obj\driver.o
                0x08003858                _SlDrvResetCmdExt
 .text.USART_SendData
                0x08003870       0x24 ..\obj\stm32f4xx_usart.o
                0x08003870                USART_SendData
 .text.USART_ReceiveData
                0x08003894       0x20 ..\obj\stm32f4xx_usart.o
                0x08003894                USART_ReceiveData
 .text.USART_GetFlagStatus
                0x080038b4       0x38 ..\obj\stm32f4xx_usart.o
                0x080038b4                USART_GetFlagStatus
 .text.USART_GetITStatus
                0x080038ec       0xb0 ..\obj\stm32f4xx_usart.o
                0x080038ec                USART_GetITStatus
 .text.PWR_BackupAccessCmd
                0x0800399c       0x20 ..\obj\stm32f4xx_pwr.o
                0x0800399c                PWR_BackupAccessCmd
 .text.PWR_GetFlagStatus
                0x080039bc       0x34 ..\obj\stm32f4xx_pwr.o
                0x080039bc                PWR_GetFlagStatus
 .text.start_RTC
                0x080039f0       0xcc ..\obj\rtc.o
                0x080039f0                start_RTC
 .text.init_RTC
                0x08003abc      0x100 ..\obj\rtc.o
                0x08003abc                init_RTC
 .text.dw1000_handleInterrupt
                0x08003bbc      0x1bc ..\obj\dw1000_driver.o
                0x08003bbc                dw1000_handleInterrupt
 .text.dw1000_idle
                0x08003d78       0xd0 ..\obj\dw1000_driver.o
                0x08003d78                dw1000_idle
 .text.dw1000_startReceive
                0x08003e48       0x7c ..\obj\dw1000_driver.o
                0x08003e48                dw1000_startReceive
 .text.dw1000_initializeTransmit
                0x08003ec4       0x24 ..\obj\dw1000_driver.o
                0x08003ec4                dw1000_initializeTransmit
 .text.dw1000_startTransmit
                0x08003ee8      0x12c ..\obj\dw1000_driver.o
                0x08003ee8                dw1000_startTransmit
 .text.dw1000_resetRx
                0x08004014       0x40 ..\obj\dw1000_driver.o
                0x08004014                dw1000_resetRx
 .text.dw1000_getTransmitTimestamp
                0x08004054       0x9c ..\obj\dw1000_driver.o
                0x08004054                dw1000_getTransmitTimestamp
 .text.dw1000_getReceiveTimestamp
                0x080040f0       0x9c ..\obj\dw1000_driver.o
                0x080040f0                dw1000_getReceiveTimestamp
 *fill*         0x0800418c        0x4 
 .text.dw1000_getReceivePower
                0x08004190      0x130 ..\obj\dw1000_driver.o
                0x08004190                dw1000_getReceivePower
 .text.dw1000_getTemperature
                0x080042c0       0xf8 ..\obj\dw1000_driver.o
                0x080042c0                dw1000_getTemperature
 .text.CC3100_closeSocket
                0x080043b8       0xb0 ..\obj\CC3100.o
                0x080043b8                CC3100_closeSocket
 .text.CC3100_select
                0x08004468      0x398 ..\obj\CC3100.o
                0x08004468                CC3100_select
 .text.WWDG_DeInit
                0x08004800       0x1c ..\obj\stm32f4xx_wwdg.o
                0x08004800                WWDG_DeInit
 .text.WWDG_SetCounter
                0x0800481c       0x24 ..\obj\stm32f4xx_wwdg.o
                0x0800481c                WWDG_SetCounter
 .text.WWDG_ClearFlag
                0x08004840       0x18 ..\obj\stm32f4xx_wwdg.o
                0x08004840                WWDG_ClearFlag
 .text.InsertToTCBRdyList
                0x08004858      0x100 ..\obj\task.o
                0x08004858                InsertToTCBRdyList
 .text.RemoveFromTCBRdyList
                0x08004958       0x88 ..\obj\task.o
                0x08004958                RemoveFromTCBRdyList
 .text.Schedule
                0x080049e0      0x140 ..\obj\task.o
                0x080049e0                Schedule
 .text.disk_timerproc
                0x08004b20       0x68 ..\obj\diskio.o
                0x08004b20                disk_timerproc
 .text.Default_Reset_Handler
                0x08004b88       0x6c ..\obj\startup_stm32f4xx.o
                0x08004b88                Default_Reset_Handler
                0x08004b88                Reset_Handler
 .text.Default_Handler
                0x08004bf4        0x8 ..\obj\startup_stm32f4xx.o
                0x08004bf4                HASH_RNG_IRQHandler
                0x08004bf4                TIM8_CC_IRQHandler
                0x08004bf4                TIM1_CC_IRQHandler
                0x08004bf4                DMA2_Stream5_IRQHandler
                0x08004bf4                DMA1_Stream5_IRQHandler
                0x08004bf4                PVD_IRQHandler
                0x08004bf4                SDIO_IRQHandler
                0x08004bf4                TAMP_STAMP_IRQHandler
                0x08004bf4                CAN2_RX1_IRQHandler
                0x08004bf4                TIM8_TRG_COM_TIM14_IRQHandler
                0x08004bf4                TIM1_UP_TIM10_IRQHandler
                0x08004bf4                TIM8_UP_TIM13_IRQHandler
                0x08004bf4                I2C3_ER_IRQHandler
                0x08004bf4                I2C2_EV_IRQHandler
                0x08004bf4                DMA1_Stream2_IRQHandler
                0x08004bf4                CAN1_RX0_IRQHandler
                0x08004bf4                FPU_IRQHandler
                0x08004bf4                OTG_HS_WKUP_IRQHandler
                0x08004bf4                CAN2_SCE_IRQHandler
                0x08004bf4                SPI1_IRQHandler
                0x08004bf4                TIM1_BRK_TIM9_IRQHandler
                0x08004bf4                DCMI_IRQHandler
                0x08004bf4                CAN2_RX0_IRQHandler
                0x08004bf4                USART3_IRQHandler
                0x08004bf4                CRYP_IRQHandler
                0x08004bf4                CAN1_RX1_IRQHandler
                0x08004bf4                DMA2_Stream0_IRQHandler
                0x08004bf4                TIM4_IRQHandler
                0x08004bf4                I2C1_EV_IRQHandler
                0x08004bf4                DMA1_Stream6_IRQHandler
                0x08004bf4                DMA1_Stream1_IRQHandler
                0x08004bf4                UART4_IRQHandler
                0x08004bf4                TIM3_IRQHandler
                0x08004bf4                RCC_IRQHandler
                0x08004bf4                TIM8_BRK_TIM12_IRQHandler
                0x08004bf4                DMA1_Stream7_IRQHandler
                0x08004bf4                CAN2_TX_IRQHandler
                0x08004bf4                DMA2_Stream7_IRQHandler
                0x08004bf4                I2C3_EV_IRQHandler
                0x08004bf4                ETH_WKUP_IRQHandler
                0x08004bf4                SPI2_IRQHandler
                0x08004bf4                OTG_HS_EP1_IN_IRQHandler
                0x08004bf4                DMA1_Stream0_IRQHandler
                0x08004bf4                CAN1_TX_IRQHandler
                0x08004bf4                FSMC_IRQHandler
                0x08004bf4                ETH_IRQHandler
                0x08004bf4                OTG_HS_EP1_OUT_IRQHandler
                0x08004bf4                TIM2_IRQHandler
                0x08004bf4                OTG_FS_WKUP_IRQHandler
                0x08004bf4                TIM1_TRG_COM_TIM11_IRQHandler
                0x08004bf4                OTG_HS_IRQHandler
                0x08004bf4                I2C2_ER_IRQHandler
                0x08004bf4                DMA2_Stream1_IRQHandler
                0x08004bf4                CAN1_SCE_IRQHandler
                0x08004bf4                FLASH_IRQHandler
                0x08004bf4                DMA2_Stream4_IRQHandler
                0x08004bf4                USART1_IRQHandler
                0x08004bf4                OTG_FS_IRQHandler
                0x08004bf4                SPI3_IRQHandler
                0x08004bf4                I2C1_ER_IRQHandler
                0x08004bf4                DMA1_Stream3_IRQHandler
 .text.RespondSRQ
                0x08004bfc      0x104 ..\obj\serviceReq.o
                0x08004bfc                RespondSRQ
 .text.init_leds
                0x08004d00       0x3c ..\obj\aufgabe.o
                0x08004d00                init_leds
 .text.usart_2_print
                0x08004d3c       0x4c ..\obj\aufgabe.o
                0x08004d3c                usart_2_print
 .text.disable_exti
                0x08004d88       0x40 ..\obj\aufgabe.o
                0x08004d88                disable_exti
 .text.alarm_3  0x08004dc8       0xc0 ..\obj\aufgabe.o
                0x08004dc8                alarm_3
 .text.main     0x08004e88       0x18 ..\obj\main.o
                0x08004e88                main
 .text.RCC_LSEConfig
                0x08004ea0       0x40 ..\obj\stm32f4xx_rcc.o
                0x08004ea0                RCC_LSEConfig
 .text.RCC_RTCCLKConfig
                0x08004ee0       0x5c ..\obj\stm32f4xx_rcc.o
                0x08004ee0                RCC_RTCCLKConfig
 .text.RCC_RTCCLKCmd
                0x08004f3c       0x20 ..\obj\stm32f4xx_rcc.o
                0x08004f3c                RCC_RTCCLKCmd
 .text.RCC_AHB1PeriphClockCmd
                0x08004f5c       0x3c ..\obj\stm32f4xx_rcc.o
                0x08004f5c                RCC_AHB1PeriphClockCmd
 .text.RCC_APB1PeriphClockCmd
                0x08004f98       0x3c ..\obj\stm32f4xx_rcc.o
                0x08004f98                RCC_APB1PeriphClockCmd
 .text.RCC_APB2PeriphClockCmd
                0x08004fd4       0x3c ..\obj\stm32f4xx_rcc.o
                0x08004fd4                RCC_APB2PeriphClockCmd
 .text.RCC_APB1PeriphResetCmd
                0x08005010       0x3c ..\obj\stm32f4xx_rcc.o
                0x08005010                RCC_APB1PeriphResetCmd
 .text.RCC_GetFlagStatus
                0x0800504c       0x74 ..\obj\stm32f4xx_rcc.o
                0x0800504c                RCC_GetFlagStatus
 .text.sd_card_SysTick_Handler
                0x080050c0        0xc ..\obj\SDCARD.o
                0x080050c0                sd_card_SysTick_Handler
 .text.NVIC_SetPriority
                0x080050cc       0x54 ..\obj\init.o
 .text.SysTick_Config
                0x08005120       0x44 ..\obj\init.o
 .text.InitSysTick
                0x08005164       0x28 ..\obj\init.o
                0x08005164                InitSysTick
 .text.ADC_GetITStatus
                0x0800518c       0x5c ..\obj\stm32f4xx_adc.o
                0x0800518c                ADC_GetITStatus
 .text.ADC_ClearITPendingBit
                0x080051e8       0x2c ..\obj\stm32f4xx_adc.o
                0x080051e8                ADC_ClearITPendingBit
 .text.disableIRQ
                0x08005214       0x10 ..\obj\dw1000_user.o
                0x08005214                disableIRQ
 .text.enableIRQ
                0x08005224       0x10 ..\obj\dw1000_user.o
                0x08005224                enableIRQ
 .text.dw1000_getTickCounter
                0x08005234       0x18 ..\obj\dw1000_user.o
                0x08005234                dw1000_getTickCounter
 .text.dw1000_enableInterrupts
                0x0800524c       0x2c ..\obj\dw1000_user.o
                0x0800524c                dw1000_enableInterrupts
 .text.dw1000_disableInterrupts
                0x08005278       0x2c ..\obj\dw1000_user.o
                0x08005278                dw1000_disableInterrupts
 .text.dw1000_readWriteSpi
                0x080052a4       0xa0 ..\obj\dw1000_user.o
                0x080052a4                dw1000_readWriteSpi
 .text.CoPostMail
                0x08005344       0x74 ..\obj\mbox.o
                0x08005344                CoPostMail
 .text.Http_Get_Event
                0x080053b8      0x10c ..\obj\CC3100_HttpServer.o
                0x080053b8                Http_Get_Event
 .text.Http_Post_Event
                0x080054c4       0x9c ..\obj\CC3100_HttpServer.o
                0x080054c4                Http_Post_Event
 .text.spi_dma_Write
                0x08005560       0xb4 ..\obj\CC3100_Board.o
                0x08005560                spi_dma_Write
 .text.spi_dma_Read
                0x08005614       0xb0 ..\obj\CC3100_Board.o
                0x08005614                spi_dma_Read
 .text.DMA1_Stream4_IRQHandler
                0x080056c4       0x30 ..\obj\CC3100_Board.o
                0x080056c4                DMA1_Stream4_IRQHandler
 .text.DMA_Int_Handler
                0x080056f4       0x5c ..\obj\CC3100_Board.o
                0x080056f4                DMA_Int_Handler
 .text.WLAN_intHandler
                0x08005750       0x1c ..\obj\CC3100_Board.o
                0x08005750                WLAN_intHandler
 .text.CC3100_uart6_receive_IRQ
                0x0800576c       0x6c ..\obj\CC3100_Board.o
                0x0800576c                CC3100_uart6_receive_IRQ
 .text.RemoveDelayList
                0x080057d8       0xb4 ..\obj\time.o
                0x080057d8                RemoveDelayList
 .text.TimeDispose
                0x0800588c       0x74 ..\obj\time.o
                0x0800588c                TimeDispose
 .text.isr_TimeDispose
                0x08005900       0x30 ..\obj\time.o
                0x08005900                isr_TimeDispose
 .text.EventTaskToRdy
                0x08005930      0x10c ..\obj\event.o
                0x08005930                EventTaskToRdy
 .text.RemoveEventWaittingList
                0x08005a3c       0x98 ..\obj\event.o
                0x08005a3c                RemoveEventWaittingList
 .text.GPIO_Init
                0x08005ad4      0x11c ..\obj\stm32f4xx_gpio.o
                0x08005ad4                GPIO_Init
 .text.GPIO_StructInit
                0x08005bf0       0x34 ..\obj\stm32f4xx_gpio.o
                0x08005bf0                GPIO_StructInit
 .text.GPIO_ReadInputDataBit
                0x08005c24       0x34 ..\obj\stm32f4xx_gpio.o
                0x08005c24                GPIO_ReadInputDataBit
 .text.GPIO_ReadOutputDataBit
                0x08005c58       0x34 ..\obj\stm32f4xx_gpio.o
                0x08005c58                GPIO_ReadOutputDataBit
 .text.GPIO_SetBits
                0x08005c8c       0x1c ..\obj\stm32f4xx_gpio.o
                0x08005c8c                GPIO_SetBits
 .text.GPIO_ResetBits
                0x08005ca8       0x1c ..\obj\stm32f4xx_gpio.o
                0x08005ca8                GPIO_ResetBits
 .text.GPIO_ToggleBits
                0x08005cc4       0x24 ..\obj\stm32f4xx_gpio.o
                0x08005cc4                GPIO_ToggleBits
 .text._sl_GetStartResponseConvert
                0x08005ce8       0x28 ..\obj\device.o
                0x08005ce8                _sl_GetStartResponseConvert
 .text._sl_HandleAsync_InitComplete
                0x08005d10       0xa0 ..\obj\device.o
                0x08005d10                _sl_HandleAsync_InitComplete
 .text._sl_HandleAsync_Stop
                0x08005db0       0x68 ..\obj\device.o
                0x08005db0                _sl_HandleAsync_Stop
 .text._SlDrvDeviceEventHandler
                0x08005e18       0x88 ..\obj\device.o
                0x08005e18                _SlDrvDeviceEventHandler
 .text.SimpleLinkWlanEventHandler
                0x08005ea0      0x14c ..\obj\CC3100_EventHandler.o
                0x08005ea0                SimpleLinkWlanEventHandler
 .text.SimpleLinkNetAppEventHandler
                0x08005fec       0x90 ..\obj\CC3100_EventHandler.o
                0x08005fec                SimpleLinkNetAppEventHandler
 .text.SimpleLinkSockEventHandler
                0x0800607c       0x74 ..\obj\CC3100_EventHandler.o
                0x0800607c                SimpleLinkSockEventHandler
 .text.SimpleLinkGeneralEventHandler
                0x080060f0       0x58 ..\obj\CC3100_EventHandler.o
                0x080060f0                SimpleLinkGeneralEventHandler
 .text.SimpleLinkHttpServerCallback
                0x08006148       0x68 ..\obj\CC3100_EventHandler.o
                0x08006148                SimpleLinkHttpServerCallback
 .text.SystemInit
                0x080061b0       0x68 ..\obj\system_stm32f4xx.o
                0x080061b0                SystemInit
 .text.SetSysClock
                0x08006218      0x128 ..\obj\system_stm32f4xx.o
 .text._sbrk    0x08006340       0x40 ..\obj\syscalls.o
                0x08006340                _sbrk
 .text.DMA_Cmd  0x08006380       0x38 ..\obj\stm32f4xx_dma.o
                0x08006380                DMA_Cmd
 .text.DMA_SetCurrDataCounter
                0x080063b8       0x1c ..\obj\stm32f4xx_dma.o
                0x080063b8                DMA_SetCurrDataCounter
 .text.DMA_MemoryTargetConfig
                0x080063d4       0x2c ..\obj\stm32f4xx_dma.o
                0x080063d4                DMA_MemoryTargetConfig
 .text.DMA_GetFlagStatus
                0x08006400       0x78 ..\obj\stm32f4xx_dma.o
                0x08006400                DMA_GetFlagStatus
 .text.DMA_ClearFlag
                0x08006478       0x5c ..\obj\stm32f4xx_dma.o
                0x08006478                DMA_ClearFlag
 .text.DMA_GetITStatus
                0x080064d4       0xb0 ..\obj\stm32f4xx_dma.o
                0x080064d4                DMA_GetITStatus
 .text.DMA_ClearITPendingBit
                0x08006584       0x5c ..\obj\stm32f4xx_dma.o
                0x08006584                DMA_ClearITPendingBit
 .text.CoPostQueueMail
                0x080065e0       0xac ..\obj\queue.o
                0x080065e0                CoPostQueueMail
 .text.IRQ_ENABLE_RESTORE
                0x0800668c       0x10 ..\obj\port.o
                0x0800668c                IRQ_ENABLE_RESTORE
 .text.IRQ_DISABLE_SAVE
                0x0800669c       0x10 ..\obj\port.o
                0x0800669c                IRQ_DISABLE_SAVE
 .text.SwitchContext
                0x080066ac       0x14 ..\obj\port.o
                0x080066ac                SwitchContext
 .text.PendSV_Handler
                0x080066c0       0x3c ..\obj\port.o
                0x080066c0                PendSV_Handler
 .text.CoSetFlag
                0x080066fc       0xf4 ..\obj\flag.o
                0x080066fc                CoSetFlag
 .text.RemoveFromLink
                0x080067f0       0x54 ..\obj\flag.o
 .text.RemoveLinkNode
                0x08006844       0x84 ..\obj\flag.o
                0x08006844                RemoveLinkNode
 .text.SPI_I2S_ClearFlag
                0x080068c8       0x20 ..\obj\stm32f4xx_spi.o
                0x080068c8                SPI_I2S_ClearFlag
 .text.CoOS_SysTick_Handler
                0x080068e8       0x98 ..\obj\arch.o
                0x080068e8                CoOS_SysTick_Handler
 .text.EXTI_Init
                0x08006980       0xdc ..\obj\stm32f4xx_exti.o
                0x08006980                EXTI_Init
 .text.EXTI_ClearFlag
                0x08006a5c       0x1c ..\obj\stm32f4xx_exti.o
                0x08006a5c                EXTI_ClearFlag
 .text.EXTI_GetITStatus
                0x08006a78       0x48 ..\obj\stm32f4xx_exti.o
                0x08006a78                EXTI_GetITStatus
 .text.EXTI_ClearITPendingBit
                0x08006ac0       0x1c ..\obj\stm32f4xx_exti.o
                0x08006ac0                EXTI_ClearITPendingBit
 .text.NVIC_Init
                0x08006adc       0xbc ..\obj\misc.o
                0x08006adc                NVIC_Init
 .text.init_BEEPER
                0x08006b98       0x4c ..\obj\beeper.o
                0x08006b98                init_BEEPER
 .text.BEEPER_IRQHandler
                0x08006be4       0x60 ..\obj\beeper.o
                0x08006be4                BEEPER_IRQHandler
 *fill*         0x08006c44        0x4 
 .text.uwbranging_calculateDistance
                0x08006c48      0x1f0 ..\obj\dw1000_ranging.o
                0x08006c48                uwbranging_calculateDistance
 .text.uwbranging_cancel
                0x08006e38       0x64 ..\obj\dw1000_ranging.o
                0x08006e38                uwbranging_cancel
 .text.dw1000_handleTransmittedPackage
                0x08006e9c      0x144 ..\obj\dw1000_ranging.o
                0x08006e9c                dw1000_handleTransmittedPackage
 .text.dw1000_handleIncomingPackage
                0x08006fe0      0x464 ..\obj\dw1000_ranging.o
                0x08006fe0                dw1000_handleIncomingPackage
 .text.uwbranging_tick
                0x08007444       0x90 ..\obj\dw1000_ranging.o
                0x08007444                uwbranging_tick
 .text.CoPostSem
                0x080074d4       0x8c ..\obj\sem.o
                0x080074d4                CoPostSem
 .text.RTC_Init
                0x08007560       0x78 ..\obj\stm32f4xx_rtc.o
                0x08007560                RTC_Init
 .text.RTC_EnterInitMode
                0x080075d8       0x74 ..\obj\stm32f4xx_rtc.o
                0x080075d8                RTC_EnterInitMode
 .text.RTC_ExitInitMode
                0x0800764c       0x1c ..\obj\stm32f4xx_rtc.o
                0x0800764c                RTC_ExitInitMode
 .text.RTC_WaitForSynchro
                0x08007668       0x78 ..\obj\stm32f4xx_rtc.o
                0x08007668                RTC_WaitForSynchro
 .text.RTC_SetTime
                0x080076e0      0x104 ..\obj\stm32f4xx_rtc.o
                0x080076e0                RTC_SetTime
 .text.RTC_GetTime
                0x080077e4       0x9c ..\obj\stm32f4xx_rtc.o
                0x080077e4                RTC_GetTime
 .text.RTC_SetDate
                0x08007880      0x10c ..\obj\stm32f4xx_rtc.o
                0x08007880                RTC_SetDate
 .text.RTC_SetAlarm
                0x0800798c      0x138 ..\obj\stm32f4xx_rtc.o
                0x0800798c                RTC_SetAlarm
 .text.RTC_AlarmCmd
                0x08007ac4       0x9c ..\obj\stm32f4xx_rtc.o
                0x08007ac4                RTC_AlarmCmd
 .text.RTC_OutputConfig
                0x08007b60       0x48 ..\obj\stm32f4xx_rtc.o
                0x08007b60                RTC_OutputConfig
 .text.RTC_WriteBackupRegister
                0x08007ba8       0x30 ..\obj\stm32f4xx_rtc.o
                0x08007ba8                RTC_WriteBackupRegister
 .text.RTC_ReadBackupRegister
                0x08007bd8       0x30 ..\obj\stm32f4xx_rtc.o
                0x08007bd8                RTC_ReadBackupRegister
 .text.RTC_OutputTypeConfig
                0x08007c08       0x30 ..\obj\stm32f4xx_rtc.o
                0x08007c08                RTC_OutputTypeConfig
 .text.RTC_ITConfig
                0x08007c38       0x78 ..\obj\stm32f4xx_rtc.o
                0x08007c38                RTC_ITConfig
 .text.RTC_ClearFlag
                0x08007cb0       0x30 ..\obj\stm32f4xx_rtc.o
                0x08007cb0                RTC_ClearFlag
 .text.RTC_GetITStatus
                0x08007ce0       0x68 ..\obj\stm32f4xx_rtc.o
                0x08007ce0                RTC_GetITStatus
 .text.RTC_ClearITPendingBit
                0x08007d48       0x38 ..\obj\stm32f4xx_rtc.o
                0x08007d48                RTC_ClearITPendingBit
 .text.RTC_ByteToBcd2
                0x08007d80       0x3c ..\obj\stm32f4xx_rtc.o
 .text.RTC_Bcd2ToByte
                0x08007dbc       0x38 ..\obj\stm32f4xx_rtc.o
 .text.CoStkOverflowHook
                0x08007df4        0xc ..\obj\hook.o
                0x08007df4                CoStkOverflowHook
 .text.TIM_Cmd  0x08007e00       0x40 ..\obj\stm32f4xx_tim.o
                0x08007e00                TIM_Cmd
 .text.TIM_ITConfig
                0x08007e40       0x48 ..\obj\stm32f4xx_tim.o
                0x08007e40                TIM_ITConfig
 .text.TIM_GetITStatus
                0x08007e88       0x54 ..\obj\stm32f4xx_tim.o
                0x08007e88                TIM_GetITStatus
 .text.TIM_ClearITPendingBit
                0x08007edc       0x20 ..\obj\stm32f4xx_tim.o
                0x08007edc                TIM_ClearITPendingBit
 .text._SlNonOsSemSet
                0x08007efc       0x24 ..\obj\nonos.o
                0x08007efc                _SlNonOsSemSet
 .text._SlNonOsSemGet
                0x08007f20       0x50 ..\obj\nonos.o
                0x08007f20                _SlNonOsSemGet
 .text._SlNonOsSpawn
                0x08007f70       0x5c ..\obj\nonos.o
                0x08007f70                _SlNonOsSpawn
 .text._SlNonOsMainLoopTask
                0x08007fcc       0x84 ..\obj\nonos.o
                0x08007fcc                _SlNonOsMainLoopTask
 .text.usart2_printf
                0x08008050       0x84 ..\obj\usart.o
                0x08008050                usart2_printf
 .text.usart2_send
                0x080080d4       0x78 ..\obj\usart.o
                0x080080d4                usart2_send
 .text.round    0x0800814c       0x98 c:/users/niggi/gcc-arm-none-eabi-4_8-2014q3-20140805-win32/bin/../lib/gcc/arm-none-eabi/4.8.4/../../../../arm-none-eabi/lib/armv7e-m/fpu\libm.a(lib_a-s_round.o)
                0x0800814c                round
 .text.log10    0x080081e4       0xf8 c:/users/niggi/gcc-arm-none-eabi-4_8-2014q3-20140805-win32/bin/../lib/gcc/arm-none-eabi/4.8.4/../../../../arm-none-eabi/lib/armv7e-m/fpu\libm.a(lib_a-w_log10.o)
                0x080081e4                log10
 .text.pow      0x080082dc      0x340 c:/users/niggi/gcc-arm-none-eabi-4_8-2014q3-20140805-win32/bin/../lib/gcc/arm-none-eabi/4.8.4/../../../../arm-none-eabi/lib/armv7e-m/fpu\libm.a(lib_a-w_pow.o)
                0x080082dc                pow
 *fill*         0x0800861c        0x4 
 .text.__ieee754_log10
                0x08008620      0x130 c:/users/niggi/gcc-arm-none-eabi-4_8-2014q3-20140805-win32/bin/../lib/gcc/arm-none-eabi/4.8.4/../../../../arm-none-eabi/lib/armv7e-m/fpu\libm.a(lib_a-e_log10.o)
                0x08008620                __ieee754_log10
 .text.__ieee754_pow
                0x08008750      0xae8 c:/users/niggi/gcc-arm-none-eabi-4_8-2014q3-20140805-win32/bin/../lib/gcc/arm-none-eabi/4.8.4/../../../../arm-none-eabi/lib/armv7e-m/fpu\libm.a(lib_a-e_pow.o)
                0x08008750                __ieee754_pow
 .text.__ieee754_sqrt
                0x08009238      0x198 c:/users/niggi/gcc-arm-none-eabi-4_8-2014q3-20140805-win32/bin/../lib/gcc/arm-none-eabi/4.8.4/../../../../arm-none-eabi/lib/armv7e-m/fpu\libm.a(lib_a-e_sqrt.o)
                0x08009238                __ieee754_sqrt
 .text.fabs     0x080093d0       0x14 c:/users/niggi/gcc-arm-none-eabi-4_8-2014q3-20140805-win32/bin/../lib/gcc/arm-none-eabi/4.8.4/../../../../arm-none-eabi/lib/armv7e-m/fpu\libm.a(lib_a-s_fabs.o)
                0x080093d0                fabs
 .text.finite   0x080093e4       0x10 c:/users/niggi/gcc-arm-none-eabi-4_8-2014q3-20140805-win32/bin/../lib/gcc/arm-none-eabi/4.8.4/../../../../arm-none-eabi/lib/armv7e-m/fpu\libm.a(lib_a-s_finite.o)
                0x080093e4                finite
 .text.__fpclassifyd
                0x080093f4       0x54 c:/users/niggi/gcc-arm-none-eabi-4_8-2014q3-20140805-win32/bin/../lib/gcc/arm-none-eabi/4.8.4/../../../../arm-none-eabi/lib/armv7e-m/fpu\libm.a(lib_a-s_fpclassify.o)
                0x080093f4                __fpclassifyd
 .text.matherr  0x08009448        0x4 c:/users/niggi/gcc-arm-none-eabi-4_8-2014q3-20140805-win32/bin/../lib/gcc/arm-none-eabi/4.8.4/../../../../arm-none-eabi/lib/armv7e-m/fpu\libm.a(lib_a-s_matherr.o)
                0x08009448                matherr
 *fill*         0x0800944c        0x4 
 .text.nan      0x08009450       0x10 c:/users/niggi/gcc-arm-none-eabi-4_8-2014q3-20140805-win32/bin/../lib/gcc/arm-none-eabi/4.8.4/../../../../arm-none-eabi/lib/armv7e-m/fpu\libm.a(lib_a-s_nan.o)
                0x08009450                nan
 .text.rint     0x08009460      0x120 c:/users/niggi/gcc-arm-none-eabi-4_8-2014q3-20140805-win32/bin/../lib/gcc/arm-none-eabi/4.8.4/../../../../arm-none-eabi/lib/armv7e-m/fpu\libm.a(lib_a-s_rint.o)
                0x08009460                rint
 .text.scalbn   0x08009580      0x120 c:/users/niggi/gcc-arm-none-eabi-4_8-2014q3-20140805-win32/bin/../lib/gcc/arm-none-eabi/4.8.4/../../../../arm-none-eabi/lib/armv7e-m/fpu\libm.a(lib_a-s_scalbn.o)
                0x08009580                scalbn
 .text.__ieee754_log
                0x080096a0      0x428 c:/users/niggi/gcc-arm-none-eabi-4_8-2014q3-20140805-win32/bin/../lib/gcc/arm-none-eabi/4.8.4/../../../../arm-none-eabi/lib/armv7e-m/fpu\libm.a(lib_a-e_log.o)
                0x080096a0                __ieee754_log
 .text.copysign
                0x08009ac8       0x24 c:/users/niggi/gcc-arm-none-eabi-4_8-2014q3-20140805-win32/bin/../lib/gcc/arm-none-eabi/4.8.4/../../../../arm-none-eabi/lib/armv7e-m/fpu\libm.a(lib_a-s_copysign.o)
                0x08009ac8                copysign
 .text          0x08009aec      0x370 c:/users/niggi/gcc-arm-none-eabi-4_8-2014q3-20140805-win32/bin/../lib/gcc/arm-none-eabi/4.8.4/armv7e-m/fpu\libgcc.a(_arm_addsubdf3.o)
                0x08009aec                __aeabi_drsub
                0x08009af4                __aeabi_dsub
                0x08009af4                __subdf3
                0x08009af8                __aeabi_dadd
                0x08009af8                __adddf3
                0x08009d70                __floatunsidf
                0x08009d70                __aeabi_ui2d
                0x08009d90                __floatsidf
                0x08009d90                __aeabi_i2d
                0x08009db4                __aeabi_f2d
                0x08009db4                __extendsfdf2
                0x08009df0                __floatundidf
                0x08009df0                __aeabi_ul2d
                0x08009e00                __floatdidf
                0x08009e00                __aeabi_l2d
 .text          0x08009e5c      0x424 c:/users/niggi/gcc-arm-none-eabi-4_8-2014q3-20140805-win32/bin/../lib/gcc/arm-none-eabi/4.8.4/armv7e-m/fpu\libgcc.a(_arm_muldivdf3.o)
                0x08009e5c                __aeabi_dmul
                0x08009e5c                __muldf3
                0x0800a0b0                __divdf3
                0x0800a0b0                __aeabi_ddiv
 .text          0x0800a280      0x110 c:/users/niggi/gcc-arm-none-eabi-4_8-2014q3-20140805-win32/bin/../lib/gcc/arm-none-eabi/4.8.4/armv7e-m/fpu\libgcc.a(_arm_cmpdf2.o)
                0x0800a280                __gtdf2
                0x0800a280                __gedf2
                0x0800a288                __ltdf2
                0x0800a288                __ledf2
                0x0800a290                __nedf2
                0x0800a290                __eqdf2
                0x0800a290                __cmpdf2
                0x0800a30c                __aeabi_cdrcmple
                0x0800a31c                __aeabi_cdcmpeq
                0x0800a31c                __aeabi_cdcmple
                0x0800a32c                __aeabi_dcmpeq
                0x0800a340                __aeabi_dcmplt
                0x0800a354                __aeabi_dcmple
                0x0800a368                __aeabi_dcmpge
                0x0800a37c                __aeabi_dcmpgt
 .text          0x0800a390       0x50 c:/users/niggi/gcc-arm-none-eabi-4_8-2014q3-20140805-win32/bin/../lib/gcc/arm-none-eabi/4.8.4/armv7e-m/fpu\libgcc.a(_arm_fixdfsi.o)
                0x0800a390                __aeabi_d2iz
                0x0800a390                __fixdfsi
 .text          0x0800a3e0       0xa0 c:/users/niggi/gcc-arm-none-eabi-4_8-2014q3-20140805-win32/bin/../lib/gcc/arm-none-eabi/4.8.4/armv7e-m/fpu\libgcc.a(_arm_truncdfsf2.o)
                0x0800a3e0                __truncdfsf2
                0x0800a3e0                __aeabi_d2f
 .text          0x0800a480      0x21c c:/users/niggi/gcc-arm-none-eabi-4_8-2014q3-20140805-win32/bin/../lib/gcc/arm-none-eabi/4.8.4/armv7e-m/fpu\libgcc.a(_arm_addsubsf3.o)
                0x0800a480                __aeabi_frsub
                0x0800a488                __subsf3
                0x0800a488                __aeabi_fsub
                0x0800a48c                __aeabi_fadd
                0x0800a48c                __addsf3
                0x0800a5ec                __aeabi_ui2f
                0x0800a5ec                __floatunsisf
                0x0800a5f4                __aeabi_i2f
                0x0800a5f4                __floatsisf
                0x0800a610                __aeabi_ul2f
                0x0800a610                __floatundisf
                0x0800a620                __aeabi_l2f
                0x0800a620                __floatdisf
 .text.__errno  0x0800a69c        0xc c:/users/niggi/gcc-arm-none-eabi-4_8-2014q3-20140805-win32/bin/../lib/gcc/arm-none-eabi/4.8.4/../../../../arm-none-eabi/lib/armv7e-m/fpu\libg.a(lib_a-errno.o)
                0x0800a69c                __errno
 .text          0x0800a6a8      0x134 c:/users/niggi/gcc-arm-none-eabi-4_8-2014q3-20140805-win32/bin/../lib/gcc/arm-none-eabi/4.8.4/../../../../arm-none-eabi/lib/armv7e-m/fpu\libg.a(lib_a-memcpy.o)
                0x0800a6a8                memcpy
 .text.memset   0x0800a7dc       0x94 c:/users/niggi/gcc-arm-none-eabi-4_8-2014q3-20140805-win32/bin/../lib/gcc/arm-none-eabi/4.8.4/../../../../arm-none-eabi/lib/armv7e-m/fpu\libg.a(lib_a-memset.o)
                0x0800a7dc                memset
 .text.sprintf  0x0800a870       0x4c c:/users/niggi/gcc-arm-none-eabi-4_8-2014q3-20140805-win32/bin/../lib/gcc/arm-none-eabi/4.8.4/../../../../arm-none-eabi/lib/armv7e-m/fpu\libg.a(lib_a-sprintf.o)
                0x0800a870                sprintf
 .text.strcpy   0x0800a8bc       0xbc c:/users/niggi/gcc-arm-none-eabi-4_8-2014q3-20140805-win32/bin/../lib/gcc/arm-none-eabi/4.8.4/../../../../arm-none-eabi/lib/armv7e-m/fpu\libg.a(lib_a-strcpy.o)
                0x0800a8bc                strcpy
 .text.strlen   0x0800a978       0x60 c:/users/niggi/gcc-arm-none-eabi-4_8-2014q3-20140805-win32/bin/../lib/gcc/arm-none-eabi/4.8.4/../../../../arm-none-eabi/lib/armv7e-m/fpu\libg.a(lib_a-strlen.o)
                0x0800a978                strlen
 .text.strncmp  0x0800a9d8       0xb4 c:/users/niggi/gcc-arm-none-eabi-4_8-2014q3-20140805-win32/bin/../lib/gcc/arm-none-eabi/4.8.4/../../../../arm-none-eabi/lib/armv7e-m/fpu\libg.a(lib_a-strncmp.o)
                0x0800a9d8                strncmp
 *fill*         0x0800aa8c        0x4 
 .text._svfprintf_r
                0x0800aa90     0x14f0 c:/users/niggi/gcc-arm-none-eabi-4_8-2014q3-20140805-win32/bin/../lib/gcc/arm-none-eabi/4.8.4/../../../../arm-none-eabi/lib/armv7e-m/fpu\libg.a(lib_a-svfprintf.o)
                0x0800aa90                _svfprintf_r
 .text._vsnprintf_r
                0x0800bf80       0x54 c:/users/niggi/gcc-arm-none-eabi-4_8-2014q3-20140805-win32/bin/../lib/gcc/arm-none-eabi/4.8.4/../../../../arm-none-eabi/lib/armv7e-m/fpu\libg.a(lib_a-vsnprintf.o)
                0x0800bf80                _vsnprintf_r
 .text.vsnprintf
                0x0800bfd4       0x20 c:/users/niggi/gcc-arm-none-eabi-4_8-2014q3-20140805-win32/bin/../lib/gcc/arm-none-eabi/4.8.4/../../../../arm-none-eabi/lib/armv7e-m/fpu\libg.a(lib_a-vsnprintf.o)
                0x0800bfd4                vsnprintf
 .text.quorem   0x0800bff4      0x130 c:/users/niggi/gcc-arm-none-eabi-4_8-2014q3-20140805-win32/bin/../lib/gcc/arm-none-eabi/4.8.4/../../../../arm-none-eabi/lib/armv7e-m/fpu\libg.a(lib_a-dtoa.o)
 *fill*         0x0800c124        0x4 
 .text._dtoa_r  0x0800c128      0xe58 c:/users/niggi/gcc-arm-none-eabi-4_8-2014q3-20140805-win32/bin/../lib/gcc/arm-none-eabi/4.8.4/../../../../arm-none-eabi/lib/armv7e-m/fpu\libg.a(lib_a-dtoa.o)
                0x0800c128                _dtoa_r
 .text._malloc_trim_r
                0x0800cf80       0x9c c:/users/niggi/gcc-arm-none-eabi-4_8-2014q3-20140805-win32/bin/../lib/gcc/arm-none-eabi/4.8.4/../../../../arm-none-eabi/lib/armv7e-m/fpu\libg.a(lib_a-freer.o)
                0x0800cf80                _malloc_trim_r
 .text._free_r  0x0800d01c      0x19c c:/users/niggi/gcc-arm-none-eabi-4_8-2014q3-20140805-win32/bin/../lib/gcc/arm-none-eabi/4.8.4/../../../../arm-none-eabi/lib/armv7e-m/fpu\libg.a(lib_a-freer.o)
                0x0800d01c                _free_r
 .text._localeconv_r
                0x0800d1b8        0x8 c:/users/niggi/gcc-arm-none-eabi-4_8-2014q3-20140805-win32/bin/../lib/gcc/arm-none-eabi/4.8.4/../../../../arm-none-eabi/lib/armv7e-m/fpu\libg.a(lib_a-locale.o)
                0x0800d1b8                _localeconv_r
 .text._malloc_r
                0x0800d1c0      0x538 c:/users/niggi/gcc-arm-none-eabi-4_8-2014q3-20140805-win32/bin/../lib/gcc/arm-none-eabi/4.8.4/../../../../arm-none-eabi/lib/armv7e-m/fpu\libg.a(lib_a-mallocr.o)
                0x0800d1c0                _malloc_r
 .text.memchr   0x0800d6f8       0x90 c:/users/niggi/gcc-arm-none-eabi-4_8-2014q3-20140805-win32/bin/../lib/gcc/arm-none-eabi/4.8.4/../../../../arm-none-eabi/lib/armv7e-m/fpu\libg.a(lib_a-memchr-stub.o)
                0x0800d6f8                memchr
 .text.memmove  0x0800d788       0xc0 c:/users/niggi/gcc-arm-none-eabi-4_8-2014q3-20140805-win32/bin/../lib/gcc/arm-none-eabi/4.8.4/../../../../arm-none-eabi/lib/armv7e-m/fpu\libg.a(lib_a-memmove.o)
                0x0800d788                memmove
 .text.__malloc_lock
                0x0800d848        0x4 c:/users/niggi/gcc-arm-none-eabi-4_8-2014q3-20140805-win32/bin/../lib/gcc/arm-none-eabi/4.8.4/../../../../arm-none-eabi/lib/armv7e-m/fpu\libg.a(lib_a-mlock.o)
                0x0800d848                __malloc_lock
 .text.__malloc_unlock
                0x0800d84c        0x4 c:/users/niggi/gcc-arm-none-eabi-4_8-2014q3-20140805-win32/bin/../lib/gcc/arm-none-eabi/4.8.4/../../../../arm-none-eabi/lib/armv7e-m/fpu\libg.a(lib_a-mlock.o)
                0x0800d84c                __malloc_unlock
 .text._Balloc  0x0800d850       0x4c c:/users/niggi/gcc-arm-none-eabi-4_8-2014q3-20140805-win32/bin/../lib/gcc/arm-none-eabi/4.8.4/../../../../arm-none-eabi/lib/armv7e-m/fpu\libg.a(lib_a-mprec.o)
                0x0800d850                _Balloc
 .text._Bfree   0x0800d89c       0x14 c:/users/niggi/gcc-arm-none-eabi-4_8-2014q3-20140805-win32/bin/../lib/gcc/arm-none-eabi/4.8.4/../../../../arm-none-eabi/lib/armv7e-m/fpu\libg.a(lib_a-mprec.o)
                0x0800d89c                _Bfree
 .text.__multadd
                0x0800d8b0       0x98 c:/users/niggi/gcc-arm-none-eabi-4_8-2014q3-20140805-win32/bin/../lib/gcc/arm-none-eabi/4.8.4/../../../../arm-none-eabi/lib/armv7e-m/fpu\libg.a(lib_a-mprec.o)
                0x0800d8b0                __multadd
 .text.__hi0bits
                0x0800d948       0x40 c:/users/niggi/gcc-arm-none-eabi-4_8-2014q3-20140805-win32/bin/../lib/gcc/arm-none-eabi/4.8.4/../../../../arm-none-eabi/lib/armv7e-m/fpu\libg.a(lib_a-mprec.o)
                0x0800d948                __hi0bits
 .text.__lo0bits
                0x0800d988       0x5c c:/users/niggi/gcc-arm-none-eabi-4_8-2014q3-20140805-win32/bin/../lib/gcc/arm-none-eabi/4.8.4/../../../../arm-none-eabi/lib/armv7e-m/fpu\libg.a(lib_a-mprec.o)
                0x0800d988                __lo0bits
 .text.__i2b    0x0800d9e4       0x14 c:/users/niggi/gcc-arm-none-eabi-4_8-2014q3-20140805-win32/bin/../lib/gcc/arm-none-eabi/4.8.4/../../../../arm-none-eabi/lib/armv7e-m/fpu\libg.a(lib_a-mprec.o)
                0x0800d9e4                __i2b
 .text.__multiply
                0x0800d9f8      0x13c c:/users/niggi/gcc-arm-none-eabi-4_8-2014q3-20140805-win32/bin/../lib/gcc/arm-none-eabi/4.8.4/../../../../arm-none-eabi/lib/armv7e-m/fpu\libg.a(lib_a-mprec.o)
                0x0800d9f8                __multiply
 .text.__pow5mult
                0x0800db34       0x9c c:/users/niggi/gcc-arm-none-eabi-4_8-2014q3-20140805-win32/bin/../lib/gcc/arm-none-eabi/4.8.4/../../../../arm-none-eabi/lib/armv7e-m/fpu\libg.a(lib_a-mprec.o)
                0x0800db34                __pow5mult
 .text.__lshift
                0x0800dbd0       0xbc c:/users/niggi/gcc-arm-none-eabi-4_8-2014q3-20140805-win32/bin/../lib/gcc/arm-none-eabi/4.8.4/../../../../arm-none-eabi/lib/armv7e-m/fpu\libg.a(lib_a-mprec.o)
                0x0800dbd0                __lshift
 .text.__mcmp   0x0800dc8c       0x48 c:/users/niggi/gcc-arm-none-eabi-4_8-2014q3-20140805-win32/bin/../lib/gcc/arm-none-eabi/4.8.4/../../../../arm-none-eabi/lib/armv7e-m/fpu\libg.a(lib_a-mprec.o)
                0x0800dc8c                __mcmp
 .text.__mdiff  0x0800dcd4       0xd4 c:/users/niggi/gcc-arm-none-eabi-4_8-2014q3-20140805-win32/bin/../lib/gcc/arm-none-eabi/4.8.4/../../../../arm-none-eabi/lib/armv7e-m/fpu\libg.a(lib_a-mprec.o)
                0x0800dcd4                __mdiff
 .text.__d2b    0x0800dda8       0xb4 c:/users/niggi/gcc-arm-none-eabi-4_8-2014q3-20140805-win32/bin/../lib/gcc/arm-none-eabi/4.8.4/../../../../arm-none-eabi/lib/armv7e-m/fpu\libg.a(lib_a-mprec.o)
                0x0800dda8                __d2b
 .text._realloc_r
                0x0800de5c      0x3cc c:/users/niggi/gcc-arm-none-eabi-4_8-2014q3-20140805-win32/bin/../lib/gcc/arm-none-eabi/4.8.4/../../../../arm-none-eabi/lib/armv7e-m/fpu\libg.a(lib_a-reallocr.o)
                0x0800de5c                _realloc_r
 .text._sbrk_r  0x0800e228       0x24 c:/users/niggi/gcc-arm-none-eabi-4_8-2014q3-20140805-win32/bin/../lib/gcc/arm-none-eabi/4.8.4/../../../../arm-none-eabi/lib/armv7e-m/fpu\libg.a(lib_a-sbrkr.o)
                0x0800e228                _sbrk_r
 .text.__ssprint_r
                0x0800e24c      0x100 c:/users/niggi/gcc-arm-none-eabi-4_8-2014q3-20140805-win32/bin/../lib/gcc/arm-none-eabi/4.8.4/../../../../arm-none-eabi/lib/armv7e-m/fpu\libg.a(lib_a-svfiprintf.o)
                0x0800e24c                __ssprint_r
 .text._calloc_r
                0x0800e34c       0x60 c:/users/niggi/gcc-arm-none-eabi-4_8-2014q3-20140805-win32/bin/../lib/gcc/arm-none-eabi/4.8.4/../../../../arm-none-eabi/lib/armv7e-m/fpu\libg.a(lib_a-callocr.o)
                0x0800e34c                _calloc_r
 .text          0x0800e3ac       0x2c c:/users/niggi/gcc-arm-none-eabi-4_8-2014q3-20140805-win32/bin/../lib/gcc/arm-none-eabi/4.8.4/armv7e-m/fpu\libgcc.a(_aeabi_uldivmod.o)
                0x0800e3ac                __aeabi_uldivmod
 .text          0x0800e3d8       0x60 c:/users/niggi/gcc-arm-none-eabi-4_8-2014q3-20140805-win32/bin/../lib/gcc/arm-none-eabi/4.8.4/armv7e-m/fpu\libgcc.a(bpabi.o)
                0x0800e3d8                __gnu_ldivmod_helper
                0x0800e408                __gnu_uldivmod_helper
 .text          0x0800e438        0x4 c:/users/niggi/gcc-arm-none-eabi-4_8-2014q3-20140805-win32/bin/../lib/gcc/arm-none-eabi/4.8.4/armv7e-m/fpu\libgcc.a(_dvmd_tls.o)
                0x0800e438                __aeabi_idiv0
                0x0800e438                __aeabi_ldiv0
 .text          0x0800e43c      0x298 c:/users/niggi/gcc-arm-none-eabi-4_8-2014q3-20140805-win32/bin/../lib/gcc/arm-none-eabi/4.8.4/armv7e-m/fpu\libgcc.a(_divdi3.o)
                0x0800e43c                __divdi3
 .text          0x0800e6d4      0x284 c:/users/niggi/gcc-arm-none-eabi-4_8-2014q3-20140805-win32/bin/../lib/gcc/arm-none-eabi/4.8.4/armv7e-m/fpu\libgcc.a(_udivdi3.o)
                0x0800e6d4                __udivdi3
 *(.init)
 *(.fini)
 *crtbegin.o(.ctors)
 *crtbegin?.o(.ctors)
 *(EXCLUDE_FILE(*crtend.o *crtend?.o) .ctors)
 *(SORT(.ctors.*))
 *(.ctors)
 *crtbegin.o(.dtors)
 *crtbegin?.o(.dtors)
 *(EXCLUDE_FILE(*crtend.o *crtend?.o) .dtors)
 *(SORT(.dtors.*))
 *(.dtors)
 *(.rodata*)
 .rodata        0x0800e958       0x38 ..\obj\socket.o
                0x0800e958                _SlPayloadByProtocolLUT
                0x0800e968                _SlSockSocketCmdCtrl
                0x0800e96c                _SlSockCloseCmdCtrl
                0x0800e970                _SlRecvfomCmdCtrl
                0x0800e974                _SlSendCmdCtrl
                0x0800e978                _SlListenCmdCtrl
                0x0800e97c                _SlAcceptCmdCtrl
                0x0800e980                _SlRecvCmdCtrl
                0x0800e984                _SlSetSockOptCmdCtrl
                0x0800e988                _SlGetSockOptCmdCtrl
                0x0800e98c                _SlSelectCmdCtrl
 .rodata        0x0800e990       0x28 ..\obj\netapp.o
                0x0800e990                _SlNetAppStartCtrl
                0x0800e994                _SlNetAppStopCtrl
                0x0800e998                _SlGetServiceListeCtrl
                0x0800e99c                _SlRegisterServiceCtrl
                0x0800e9a0                _SlGetHostByServiceCtrl
                0x0800e9a4                _SlGetHostByNameCtrl
                0x0800e9ac                _SlNetAppSetCmdCtrl
                0x0800e9b0                _SlNetAppSendTokenValueCmdCtrl
                0x0800e9b4                _SlNetAppGetCmdCtrl
 .rodata        0x0800e9b8      0x234 ..\obj\interrupts.o
 .rodata        0x0800ebec       0xa4 ..\obj\driver.o
                0x0800ebec                g_H2NSyncPattern
                0x0800ebf4                g_H2NCnysPattern
                0x0800ebfc                _SlActionLookupTable
                0x0800ec34                OpcodeTranslateTable
                0x0800ec70                RxMsgClassLUT
 .rodata        0x0800ec90     0x2fd0 ..\obj\CC3100.o
                0x0800ec90                servicepack_ucf
                0x08011404                servicePackImageSig
                0x08011504                SSID_STA_MODE
                0x08011524                PASSWORD_STA_MODE
                0x08011544                SSID_AP_MODE
                0x08011564                PASSWORD_AP_MODE
 .rodata        0x08011c60       0xd0 ..\obj\aufgabe.o
 .rodata        0x08011d30      0x270 ..\obj\CC3100_HttpServer.o
 .rodata        0x08011fa0      0x13c ..\obj\CC3100_Board.o
                0x08011fa0                sf_512KB_format_command
                0x08011fb8                sf_1MB_format_command
                0x08011fd0                sf_2MB_format_command
                0x08011fe8                sf_4MB_format_command
                0x08012000                sf_8MB_format_command
                0x08012018                sf_16MB_format_command
                0x08012030                disconnect_command
 .rodata        0x080120dc       0x1c ..\obj\device.o
                0x080120dc                StartResponseLUT
                0x080120e4                _SlStopCmdCtrl
                0x080120e8                _SlEventMaskSetCmdCtrl
                0x080120ec                _SlEventMaskGetCmdCtrl
                0x080120f0                _SlDeviceGetCmdCtrl
                0x080120f4                _SlDeviceSetCmdCtrl
 .rodata        0x080120f8      0x580 ..\obj\CC3100_EventHandler.o
 .rodata        0x08012678       0x64 ..\obj\dw1000_ranging.o
 .rodata.str1.4
                0x080126dc        0x6 c:/users/niggi/gcc-arm-none-eabi-4_8-2014q3-20140805-win32/bin/../lib/gcc/arm-none-eabi/4.8.4/../../../../arm-none-eabi/lib/armv7e-m/fpu\libm.a(lib_a-w_log10.o)
                                  0xc (size before relaxing)
 *fill*         0x080126e2        0x2 
 .rodata.str1.4
                0x080126e4        0x4 c:/users/niggi/gcc-arm-none-eabi-4_8-2014q3-20140805-win32/bin/../lib/gcc/arm-none-eabi/4.8.4/../../../../arm-none-eabi/lib/armv7e-m/fpu\libm.a(lib_a-w_pow.o)
 .rodata.dp_h   0x080126e8       0x10 c:/users/niggi/gcc-arm-none-eabi-4_8-2014q3-20140805-win32/bin/../lib/gcc/arm-none-eabi/4.8.4/../../../../arm-none-eabi/lib/armv7e-m/fpu\libm.a(lib_a-e_pow.o)
 .rodata.dp_l   0x080126f8       0x10 c:/users/niggi/gcc-arm-none-eabi-4_8-2014q3-20140805-win32/bin/../lib/gcc/arm-none-eabi/4.8.4/../../../../arm-none-eabi/lib/armv7e-m/fpu\libm.a(lib_a-e_pow.o)
 .rodata.bp     0x08012708       0x10 c:/users/niggi/gcc-arm-none-eabi-4_8-2014q3-20140805-win32/bin/../lib/gcc/arm-none-eabi/4.8.4/../../../../arm-none-eabi/lib/armv7e-m/fpu\libm.a(lib_a-e_pow.o)
 .rodata.str1.4
                0x00000000        0x4 c:/users/niggi/gcc-arm-none-eabi-4_8-2014q3-20140805-win32/bin/../lib/gcc/arm-none-eabi/4.8.4/../../../../arm-none-eabi/lib/armv7e-m/fpu\libm.a(lib_a-e_pow.o)
 .rodata.TWO52  0x08012718       0x10 c:/users/niggi/gcc-arm-none-eabi-4_8-2014q3-20140805-win32/bin/../lib/gcc/arm-none-eabi/4.8.4/../../../../arm-none-eabi/lib/armv7e-m/fpu\libm.a(lib_a-s_rint.o)
 .rodata.str1.4
                0x08012728        0x2 c:/users/niggi/gcc-arm-none-eabi-4_8-2014q3-20140805-win32/bin/../lib/gcc/arm-none-eabi/4.8.4/../../../../arm-none-eabi/lib/armv7e-m/fpu\libg.a(lib_a-impure.o)
                                  0x4 (size before relaxing)
 *fill*         0x0801272a        0x2 
 .rodata.zeroes.6763
                0x0801272c       0x10 c:/users/niggi/gcc-arm-none-eabi-4_8-2014q3-20140805-win32/bin/../lib/gcc/arm-none-eabi/4.8.4/../../../../arm-none-eabi/lib/armv7e-m/fpu\libg.a(lib_a-svfprintf.o)
 .rodata.str1.4
                0x0801273c       0x3f c:/users/niggi/gcc-arm-none-eabi-4_8-2014q3-20140805-win32/bin/../lib/gcc/arm-none-eabi/4.8.4/../../../../arm-none-eabi/lib/armv7e-m/fpu\libg.a(lib_a-svfprintf.o)
                                 0x44 (size before relaxing)
 *fill*         0x0801277b        0x1 
 .rodata.blanks.6762
                0x0801277c       0x10 c:/users/niggi/gcc-arm-none-eabi-4_8-2014q3-20140805-win32/bin/../lib/gcc/arm-none-eabi/4.8.4/../../../../arm-none-eabi/lib/armv7e-m/fpu\libg.a(lib_a-svfprintf.o)
 .rodata.str1.4
                0x0801278c       0x10 c:/users/niggi/gcc-arm-none-eabi-4_8-2014q3-20140805-win32/bin/../lib/gcc/arm-none-eabi/4.8.4/../../../../arm-none-eabi/lib/armv7e-m/fpu\libg.a(lib_a-dtoa.o)
                                 0x14 (size before relaxing)
 .rodata.str1.4
                0x0801279c        0xc c:/users/niggi/gcc-arm-none-eabi-4_8-2014q3-20140805-win32/bin/../lib/gcc/arm-none-eabi/4.8.4/../../../../arm-none-eabi/lib/armv7e-m/fpu\libg.a(lib_a-locale.o)
                                 0x14 (size before relaxing)
 .rodata.__mprec_tens
                0x080127a8       0xc8 c:/users/niggi/gcc-arm-none-eabi-4_8-2014q3-20140805-win32/bin/../lib/gcc/arm-none-eabi/4.8.4/../../../../arm-none-eabi/lib/armv7e-m/fpu\libg.a(lib_a-mprec.o)
                0x080127a8                __mprec_tens
 .rodata.__mprec_bigtens
                0x08012870       0x28 c:/users/niggi/gcc-arm-none-eabi-4_8-2014q3-20140805-win32/bin/../lib/gcc/arm-none-eabi/4.8.4/../../../../arm-none-eabi/lib/armv7e-m/fpu\libg.a(lib_a-mprec.o)
                0x08012870                __mprec_bigtens
 .rodata.p05.5269
                0x08012898        0xc c:/users/niggi/gcc-arm-none-eabi-4_8-2014q3-20140805-win32/bin/../lib/gcc/arm-none-eabi/4.8.4/../../../../arm-none-eabi/lib/armv7e-m/fpu\libg.a(lib_a-mprec.o)
 *(.eh_fram e*)

.glue_7         0x080128a4        0x0
 .glue_7        0x00000000        0x0 linker stubs

.glue_7t        0x080128a4        0x0
 .glue_7t       0x00000000        0x0 linker stubs

.vfp11_veneer   0x080128a4        0x0
 .vfp11_veneer  0x00000000        0x0 linker stubs

.v4_bx          0x080128a4        0x0
 .v4_bx         0x00000000        0x0 linker stubs

.iplt           0x080128a4        0x0
 .iplt          0x00000000        0x0 ..\obj\socket.o

.ARM.extab
 *(.ARM.extab* .gnu.linkonce.armextab.*)
                0x080128a4                __exidx_start = .

.ARM.exidx      0x080128a4        0x8
 *(.ARM.exidx* .gnu.linkonce.armexidx.*)
 .ARM.exidx     0x080128a4        0x8 c:/users/niggi/gcc-arm-none-eabi-4_8-2014q3-20140805-win32/bin/../lib/gcc/arm-none-eabi/4.8.4/armv7e-m/fpu\libgcc.a(_divdi3.o)
 .ARM.exidx     0x080128ac        0x0 c:/users/niggi/gcc-arm-none-eabi-4_8-2014q3-20140805-win32/bin/../lib/gcc/arm-none-eabi/4.8.4/armv7e-m/fpu\libgcc.a(_udivdi3.o)
                                  0x8 (size before relaxing)
                0x080128ac                __exidx_end = .
                0x080128ac                __etext = .
                0x080128ac                _sidata = __etext

.rel.dyn        0x080128ac        0x0
 .rel.iplt      0x00000000        0x0 ..\obj\socket.o

.data           0x20000000      0x8e4 load address 0x080128ac
                0x20000000                __data_start__ = .
                0x20000000                _sdata = __data_start__
 *(vtable)
 *(.data*)
 .data          0x20000000       0x40 ..\obj\CC3100.o
                0x20000000                SEC_TYPE_STA_MODE
                0x20000004                socket_Handles
                0x2000002c                handle_FTP_Command
                0x20000030                handle_FTP_Data
                0x20000034                handle_TCP
                0x20000038                handle_NTP
                0x2000003c                handle_MQTT
 .data          0x20000040        0x1 ..\obj\diskio.o
 *fill*         0x20000041        0x3 
 .data          0x20000044        0x4 ..\obj\CC3100_Board.o
 .data          0x20000048       0x14 ..\obj\system_stm32f4xx.o
                0x20000048                SystemCoreClock
                0x2000004c                AHBPrescTable
 .data          0x2000005c        0xc ..\obj\port.o
                0x2000005c                NVIC_INT_CTRL
                0x20000060                NVIC_PENDSVSET
                0x20000064                INT_EXIT
 .data.__fdlib_version
                0x20000068        0x1 c:/users/niggi/gcc-arm-none-eabi-4_8-2014q3-20140805-win32/bin/../lib/gcc/arm-none-eabi/4.8.4/../../../../arm-none-eabi/lib/armv7e-m/fpu\libm.a(lib_a-s_lib_ver.o)
                0x20000068                __fdlib_version
 *fill*         0x20000069        0x7 
 .data.impure_data
                0x20000070      0x428 c:/users/niggi/gcc-arm-none-eabi-4_8-2014q3-20140805-win32/bin/../lib/gcc/arm-none-eabi/4.8.4/../../../../arm-none-eabi/lib/armv7e-m/fpu\libg.a(lib_a-impure.o)
 .data._impure_ptr
                0x20000498        0x4 c:/users/niggi/gcc-arm-none-eabi-4_8-2014q3-20140805-win32/bin/../lib/gcc/arm-none-eabi/4.8.4/../../../../arm-none-eabi/lib/armv7e-m/fpu\libg.a(lib_a-impure.o)
                0x20000498                _impure_ptr
 .data.lconv    0x2000049c       0x38 c:/users/niggi/gcc-arm-none-eabi-4_8-2014q3-20140805-win32/bin/../lib/gcc/arm-none-eabi/4.8.4/../../../../arm-none-eabi/lib/armv7e-m/fpu\libg.a(lib_a-locale.o)
 .data.__malloc_av_
                0x200004d4      0x408 c:/users/niggi/gcc-arm-none-eabi-4_8-2014q3-20140805-win32/bin/../lib/gcc/arm-none-eabi/4.8.4/../../../../arm-none-eabi/lib/armv7e-m/fpu\libg.a(lib_a-mallocr.o)
                0x200004d4                __malloc_av_
 .data.__malloc_trim_threshold
                0x200008dc        0x4 c:/users/niggi/gcc-arm-none-eabi-4_8-2014q3-20140805-win32/bin/../lib/gcc/arm-none-eabi/4.8.4/../../../../arm-none-eabi/lib/armv7e-m/fpu\libg.a(lib_a-mallocr.o)
                0x200008dc                __malloc_trim_threshold
 .data.__malloc_sbrk_base
                0x200008e0        0x4 c:/users/niggi/gcc-arm-none-eabi-4_8-2014q3-20140805-win32/bin/../lib/gcc/arm-none-eabi/4.8.4/../../../../arm-none-eabi/lib/armv7e-m/fpu\libg.a(lib_a-mallocr.o)
                0x200008e0                __malloc_sbrk_base
                0x200008e4                . = ALIGN (0x4)
                0x200008e4                PROVIDE (__preinit_array_start, .)
 *(.preinit_array)
                0x200008e4                PROVIDE (__preinit_array_end, .)
                0x200008e4                . = ALIGN (0x4)
                0x200008e4                PROVIDE (__init_array_start, .)
 *(SORT(.init_array.*))
 *(.init_array)
                0x200008e4                PROVIDE (__init_array_end, .)
                0x200008e4                . = ALIGN (0x4)
                0x200008e4                PROVIDE (__fini_array_start, .)
 *(SORT(.fini_array.*))
 *(.fini_array)
                0x200008e4                PROVIDE (__fini_array_end, .)
 *(.jcr*)
                0x200008e4                . = ALIGN (0x4)
                0x200008e4                __data_end__ = .
                0x200008e4                _edata = __data_end__

.igot.plt       0x200008e4        0x0 load address 0x08013190
 .igot.plt      0x00000000        0x0 ..\obj\socket.o

.bss            0x200008e8     0xe12c load address 0x08013198
                0x200008e8                . = ALIGN (0x4)
                0x200008e8                __bss_start__ = .
                0x200008e8                _sbss = __bss_start__
 *(.bss*)
 .bss           0x200008e8     0x1080 ..\obj\dw1000_io.o
                0x200008e8                dw1000_tempbuffer
 .bss           0x20001968        0x3 ..\obj\core.o
                0x20001968                OSIntNesting
                0x20001969                OSSchedLock
                0x2000196a                TaskSchedReq
 *fill*         0x2000196b        0x1 
 .bss           0x2000196c       0x18 ..\obj\MQTT.o
                0x2000196c                Broker_IP
                0x20001970                mqtt_run
                0x20001971                abbruch
                0x20001974                tx_mqtt_msg
                0x20001978                tx_mqtt_bytes
                0x2000197c                rx_mqtt_msg
                0x20001980                rx_mqtt_bytes
 .bss           0x20001984       0x20 ..\obj\interrupts.o
 .bss           0x200019a4       0x38 ..\obj\timer.o
                0x200019a4                TmrTbl
                0x200019d4                TmrList
                0x200019d8                TmrIDVessel
 .bss           0x200019dc        0xc ..\obj\driver.o
                0x200019dc                g_pCB
                0x200019e0                pPingCallBackFunc
                0x200019e4                gFirstCmdMode
 .bss           0x200019e8       0x10 ..\obj\dw1000_driver.o
                0x200019e8                dw1000_temperature
                0x200019ec                dw1000_lasttemperaturemeasure
                0x200019f0                dw1000_receivecounter
                0x200019f4                dw1000_reftemperature
                0x200019f5                dw1000_lasttemperature
                0x200019f6                dw1000_refvoltage
 .bss           0x200019f8       0x28 ..\obj\CC3100.o
                0x200019f8                SEC_TYPE_AP_MODE
                0x200019fc                WiFi_RTC
                0x20001a00                CC3100_select_status
                0x20001a04                Stop_CC3100_select
                0x20001a08                socket_Type
                0x20001a1c                S3_WaitForAnswer
 .bss           0x20001a20       0x18 ..\obj\dw1000_config.o
                0x20001a20                dw1000_extendedFrameLength
                0x20001a21                dw1000_pacSize
                0x20001a22                dw1000_pulseFrequency
                0x20001a23                dw1000_dataRate
                0x20001a24                dw1000_preambleLength
                0x20001a25                dw1000_preambleCode
                0x20001a26                dw1000_channel
                0x20001a27                dw1000_frameCheck
                0x20001a28                dw1000_smartPower
                0x20001a29                dw1000_doublebuffered
                0x20001a2a                dw1000_framefilter
                0x20001a2b                dw1000_receiverAutoReenable
                0x20001a2c                dw1000_receiveAfterTX
                0x20001a2d                dw1000_devicemode
                0x20001a2e                dw1000_irqactive
                0x20001a2f                dw1000_isinitializeing
                0x20001a30                dw1000_clockoffset
                0x20001a32                dw1000_antennadelay_rx
                0x20001a34                dw1000_antennadelay_tx
                0x20001a36                dw1000_sniffmodeoff
                0x20001a37                dw1000_sniffmodeon
 .bss           0x20001a38      0x188 ..\obj\task.o
                0x20001a38                TCBTbl
                0x20001b40                idle_stk
                0x20001ba4                FreeTCB
                0x20001ba8                TCBRdy
                0x20001bac                TCBNext
                0x20001bb0                TCBRunning
                0x20001bb8                OSCheckTime
 .bss           0x20001bc0        0xc ..\obj\diskio.o
 .bss           0x20001bcc       0x30 ..\obj\serviceReq.o
                0x20001bcc                ServiceReq
                0x20001bf8                IsrReq
                0x20001bf9                TimeReq
                0x20001bfa                TimerReq
 .bss           0x20001bfc     0x1008 ..\obj\CC3100_Board.o
                0x20001bfc                ack_cc3100_resceived
                0x20001c00                cc3100_rx_puffer
                0x20002400                cc3100_tx_puffer
                0x20002c00                pIrqEventHandler
 .bss           0x20002c04        0x4 ..\obj\time.o
                0x20002c04                DlyList
 .bss           0x20002c08      0x144 ..\obj\event.o
                0x20002c08                EventTbl
                0x20002d48                FreeEventList
 .bss           0x20002d4c        0x4 ..\obj\CC3100_EventHandler.o
                0x20002d4c                WiFi_Status
 .bss           0x20002d50        0x4 ..\obj\syscalls.o
 .bss           0x20002d54       0x14 ..\obj\flag.o
                0x20002d54                FlagCrl
 .bss           0x20002d68        0x8 ..\obj\arch.o
                0x20002d68                OSTickCnt
 .bss           0x20002d70        0x4 ..\obj\beeper.o
 .bss           0x20002d74       0x14 ..\obj\dw1000_ranging.o
                0x20002d74                dw1000_id
                0x20002d76                ismeasuring
                0x20002d77                uwbranging_rangingid
                0x20002d78                uwbranging_textmessagehandler
                0x20002d7c                uwbranging_bytemessagehandler
                0x20002d80                uwbranging_txhandler
                0x20002d84                uwbranging_rangehandler
 .bss           0x20002d88       0x84 ..\obj\DW1000.o
                0x20002d88                systickcounter
                0x20002d8c                dw1000_timeout_ms
                0x20002d90                r1
                0x20002d94                r2
                0x20002d98                r3
                0x20002d9c                r4
                0x20002da0                knoten_id
                0x20002da4                uwb_send
                0x20002da8                temp
 .bss           0x20002e0c        0x8 ..\obj\usart.o
                0x20002e0c                uart2_RX_zeichen
                0x20002e0d                usart2_running
 .bss.__malloc_max_total_mem
                0x20002e14        0x4 c:/users/niggi/gcc-arm-none-eabi-4_8-2014q3-20140805-win32/bin/../lib/gcc/arm-none-eabi/4.8.4/../../../../arm-none-eabi/lib/armv7e-m/fpu\libg.a(lib_a-mallocr.o)
                0x20002e14                __malloc_max_total_mem
 .bss.__malloc_max_sbrked_mem
                0x20002e18        0x4 c:/users/niggi/gcc-arm-none-eabi-4_8-2014q3-20140805-win32/bin/../lib/gcc/arm-none-eabi/4.8.4/../../../../arm-none-eabi/lib/armv7e-m/fpu\libg.a(lib_a-mallocr.o)
                0x20002e18                __malloc_max_sbrked_mem
 .bss.__malloc_top_pad
                0x20002e1c        0x4 c:/users/niggi/gcc-arm-none-eabi-4_8-2014q3-20140805-win32/bin/../lib/gcc/arm-none-eabi/4.8.4/../../../../arm-none-eabi/lib/armv7e-m/fpu\libg.a(lib_a-mallocr.o)
                0x20002e1c                __malloc_top_pad
 .bss.__malloc_current_mallinfo
                0x20002e20       0x28 c:/users/niggi/gcc-arm-none-eabi-4_8-2014q3-20140805-win32/bin/../lib/gcc/arm-none-eabi/4.8.4/../../../../arm-none-eabi/lib/armv7e-m/fpu\libg.a(lib_a-mallocr.o)
                0x20002e20                __malloc_current_mallinfo
 *(COMMON)
 COMMON         0x20002e48       0x70 ..\obj\MPU9250.o
                0x20002e48                quaternion
                0x20002e68                magnetometer
                0x20002e80                rotation
                0x20002e98                mytime
                0x20002ea0                acceleration
 COMMON         0x20002eb8      0x200 ..\obj\MQTT.o
                0x20002eb8                buf_out
                0x20002f80                client
                0x20002fdc                MilliTimer
                0x20002fe0                network
                0x20002ff0                buf_in
 COMMON         0x200030b8      0x274 ..\obj\driver.o
                0x200030b8                RxIrqCnt
                0x200030bc                g_StatMem
 COMMON         0x2000332c       0x68 ..\obj\rtc.o
                0x2000332c                RTC_Init_Struct
                0x20003338                ntp_sync_stop_Date
                0x2000333c                ntp_sync_stop_Time
                0x20003340                ntp_sync_startTime
                0x20003344                RTC_Alarm_Struct
                0x20003354                RTC_Time_Aktuell
                0x20003358                RTC_Time_Struct
                0x2000335c                RTC_Date_Struct
                0x20003360                RTC_InitStructure
                0x2000336c                NVIC_InitStruct
                0x20003370                RTC_Alarm_Aktuell
                0x20003380                ntp_sync_startDate
                0x20003384                EXTI_InitStruct
                0x2000338c                RTC_TimeStructure
                0x20003390                RTC_Date_Aktuell
 COMMON         0x20003394     0xa9e4 ..\obj\CC3100.o
                0x20003394                exceptsds
                0x20003398                rx_daten
                0x20003b98                my_IP
                0x20003ba8                from
                0x20003c48                readds
                0x20003c4c                sockets
                0x20003cec                rx_buf
                0x20008cec                timeout
                0x20008cf4                write_cbs
                0x20008d1c                tx_buf
                0x2000dd1c                read_cbs
                0x2000dd44                except_cbs
                0x2000dd6c                senderIP
                0x2000dd74                writeds
 COMMON         0x2000dd78        0xc ..\obj\dw1000_config.o
                0x2000dd78                dw1000_chan_ctrl
                0x2000dd7c                dw1000_tx_fctrl
                0x2000dd80                dw1000_sys_cfg
 COMMON         0x2000dd84       0x20 ..\obj\dw1000_user.o
                0x2000dd84                dw1000_exti_structure
                0x2000dd8c                dw1000_spi_structure
                0x2000dda0                dw1000_nvic_structure
 COMMON         0x2000dda4      0x443 ..\obj\dw1000_ranging.o
                0x2000dda4                uwbranging_rxbuffer
                0x2000e1a4                uwbranging_config
                0x2000e1b0                uwbranging_process
 *fill*         0x2000e1e7        0x1 
 COMMON         0x2000e1e8       0x28 ..\obj\nonos.o
                0x2000e1e8                g__SlNonOsCB
 COMMON         0x2000e210      0x800 ..\obj\usart.o
                0x2000e210                usart2_tx_buffer
                0x2000e610                usart2_rx_buffer
 COMMON         0x2000ea10        0x4 c:/users/niggi/gcc-arm-none-eabi-4_8-2014q3-20140805-win32/bin/../lib/gcc/arm-none-eabi/4.8.4/../../../../arm-none-eabi/lib/armv7e-m/fpu\libg.a(lib_a-reent.o)
                0x2000ea10                errno
                0x2000ea14                . = ALIGN (0x4)
                0x2000ea14                __bss_end__ = .
                0x2000ea14                _ebss = __bss_end__

.heap           0x2000ea14        0x0
                0x2000ea14                __end__ = .
                0x2000ea14                _end = __end__
                0x2000ea14                end = __end__
 *(.heap*)
                0x2000ea14                __HeapLimit = .

.co_stack       0x2000ea14     0x4004 load address 0x080212c4
                0x2000ea18                . = ALIGN (0x8)
 *fill*         0x2000ea14        0x4 
 *(.co_stack .co_stack.*)
 .co_stack      0x2000ea18     0x4000 ..\obj\startup_stm32f4xx.o
                0x2000ea18                pulStack
                0x20020000                __StackTop = (ORIGIN (ram) + 0x20000)
                0x2001bffc                __StackLimit = (__StackTop - SIZEOF (.co_stack))
                0x20020000                PROVIDE (__stack, __StackTop)
                0x00000001                ASSERT ((__StackLimit >= __HeapLimit), region ram  overflowed with stack)
LOAD ..\obj\socket.o
LOAD ..\obj\dw1000_io.o
LOAD ..\obj\stm32f4xx_syscfg.o
LOAD ..\obj\MPU9250.o
LOAD ..\obj\kernelHeap.o
LOAD ..\obj\stm32f4xx_sdio.o
LOAD ..\obj\i2c.o
LOAD ..\obj\netapp.o
LOAD ..\obj\core.o
LOAD ..\obj\stm32f4xx_cryp_aes.o
LOAD ..\obj\stm32f4xx_hash.o
LOAD ..\obj\MQTT.o
LOAD ..\obj\interrupts.o
LOAD ..\obj\stm32f4xx_hash_sha1.o
LOAD ..\obj\timer.o
LOAD ..\obj\utility.o
LOAD ..\obj\driver.o
LOAD ..\obj\stm32f4xx_usart.o
LOAD ..\obj\stm32f4xx_pwr.o
LOAD ..\obj\rtc.o
LOAD ..\obj\dw1000_driver.o
LOAD ..\obj\stm32f4xx_can.o
LOAD ..\obj\CC3100.o
LOAD ..\obj\led.o
LOAD ..\obj\stm32f4xx_wwdg.o
LOAD ..\obj\stm32f4xx_hash_md5.o
LOAD ..\obj\stm32f4xx_dac.o
LOAD ..\obj\MQTTPacket.o
LOAD ..\obj\dw1000_config.o
LOAD ..\obj\fs.o
LOAD ..\obj\task.o
LOAD ..\obj\diskio.o
LOAD ..\obj\MQTTSubscribeClient.o
LOAD ..\obj\startup_stm32f4xx.o
LOAD ..\obj\serviceReq.o
LOAD ..\obj\stm32f4xx_crc.o
LOAD ..\obj\MQTTClient.o
LOAD ..\obj\stm32f4xx_iwdg.o
LOAD ..\obj\mpu9250_math.o
LOAD ..\obj\aufgabe.o
LOAD ..\obj\main.o
LOAD ..\obj\stm32f4xx_rcc.o
LOAD ..\obj\SDCARD.o
LOAD ..\obj\mpu9250_serial.o
LOAD ..\obj\client_ntp.o
LOAD ..\obj\flowcont.o
LOAD ..\obj\init.o
LOAD ..\obj\stm32f4xx_adc.o
LOAD ..\obj\MQTTConnectClient.o
LOAD ..\obj\dw1000_user.o
LOAD ..\obj\MQTTDeserializePublish.o
LOAD ..\obj\wlan.o
LOAD ..\obj\power.o
LOAD ..\obj\stm32f4xx_dcmi.o
LOAD ..\obj\mbox.o
LOAD ..\obj\MQTTUnsubscribeClient.o
LOAD ..\obj\mm.o
LOAD ..\obj\CC3100_HttpServer.o
LOAD ..\obj\test.o
LOAD ..\obj\stm32f4xx_cryp_des.o
LOAD ..\obj\client_ftp.o
LOAD ..\obj\CC3100_Board.o
LOAD ..\obj\stm32f4xx_cryp.o
LOAD ..\obj\stm32f4xx_fsmc.o
LOAD ..\obj\netcfg.o
LOAD ..\obj\time.o
LOAD ..\obj\spawn.o
LOAD ..\obj\MQTTFormat.o
LOAD ..\obj\event.o
LOAD ..\obj\stm32f4xx_gpio.o
LOAD ..\obj\stm32f4xx_flash.o
LOAD ..\obj\device.o
LOAD ..\obj\CC3100_EventHandler.o
LOAD ..\obj\system_stm32f4xx.o
LOAD ..\obj\syscalls.o
LOAD ..\obj\MQTTSerializePublish.o
LOAD ..\obj\stm32f4xx_dma.o
LOAD ..\obj\mpu9250_driver.o
LOAD ..\obj\ccsbcs.o
LOAD ..\obj\queue.o
LOAD ..\obj\port.o
LOAD ..\obj\mutex.o
LOAD ..\obj\flag.o
LOAD ..\obj\BME280.o
LOAD ..\obj\ff.o
LOAD ..\obj\taster.o
LOAD ..\obj\MQTTConnectServer.o
LOAD ..\obj\stm32f4xx_spi.o
LOAD ..\obj\stm32f4xx_i2c.o
LOAD ..\obj\arch.o
LOAD ..\obj\stm32f4xx_rng.o
LOAD ..\obj\stm32f4xx_exti.o
LOAD ..\obj\MQTTUnsubscribeServer.o
LOAD ..\obj\misc.o
LOAD ..\obj\beeper.o
LOAD ..\obj\dw1000_ranging.o
LOAD ..\obj\DW1000.o
LOAD ..\obj\sem.o
LOAD ..\obj\stm32f4xx_rtc.o
LOAD ..\obj\bme280_driver.o
LOAD ..\obj\dw1000_def.o
LOAD ..\obj\hook.o
LOAD ..\obj\stm32f4xx_cryp_tdes.o
LOAD ..\obj\stm32f4xx_tim.o
LOAD ..\obj\nonos.o
LOAD ..\obj\stm32f4xx_dbgmcu.o
LOAD ..\obj\usart.o
LOAD ..\obj\MQTTSubscribeServer.o
LOAD c:/users/niggi/gcc-arm-none-eabi-4_8-2014q3-20140805-win32/bin/../lib/gcc/arm-none-eabi/4.8.4/../../../../arm-none-eabi/lib/armv7e-m/fpu\libm.a
START GROUP
LOAD c:/users/niggi/gcc-arm-none-eabi-4_8-2014q3-20140805-win32/bin/../lib/gcc/arm-none-eabi/4.8.4/armv7e-m/fpu\libgcc.a
LOAD c:/users/niggi/gcc-arm-none-eabi-4_8-2014q3-20140805-win32/bin/../lib/gcc/arm-none-eabi/4.8.4/../../../../arm-none-eabi/lib/armv7e-m/fpu\libg.a
LOAD c:/users/niggi/gcc-arm-none-eabi-4_8-2014q3-20140805-win32/bin/../lib/gcc/arm-none-eabi/4.8.4/../../../../arm-none-eabi/lib/armv7e-m/fpu\libc.a
END GROUP
OUTPUT(STM32F415RG.elf elf32-littlearm)

.debug_info     0x00000000    0x1e182
 .debug_info    0x00000000     0x19e0 ..\obj\socket.o
 .debug_info    0x000019e0      0x663 ..\obj\dw1000_io.o
 .debug_info    0x00002043      0x26c ..\obj\stm32f4xx_syscfg.o
 .debug_info    0x000022af      0x2bf ..\obj\MPU9250.o
 .debug_info    0x0000256e     0x187b ..\obj\netapp.o
 .debug_info    0x00003de9      0x2c8 ..\obj\core.o
 .debug_info    0x000040b1     0x1122 ..\obj\MQTT.o
 .debug_info    0x000051d3      0xc60 ..\obj\interrupts.o
 .debug_info    0x00005e33      0x3bd ..\obj\timer.o
 .debug_info    0x000061f0     0x17c7 ..\obj\driver.o
 .debug_info    0x000079b7      0x9c2 ..\obj\stm32f4xx_usart.o
 .debug_info    0x00008379      0x4fc ..\obj\stm32f4xx_pwr.o
 .debug_info    0x00008875      0xd86 ..\obj\rtc.o
 .debug_info    0x000095fb      0x88c ..\obj\dw1000_driver.o
 .debug_info    0x00009e87     0x1010 ..\obj\CC3100.o
 .debug_info    0x0000ae97      0x244 ..\obj\stm32f4xx_wwdg.o
 .debug_info    0x0000b0db      0x70d ..\obj\dw1000_config.o
 .debug_info    0x0000b7e8      0x6d7 ..\obj\task.o
 .debug_info    0x0000bebf      0xa27 ..\obj\diskio.o
 .debug_info    0x0000c8e6       0xed ..\obj\startup_stm32f4xx.o
 .debug_info    0x0000c9d3      0x1e5 ..\obj\serviceReq.o
 .debug_info    0x0000cbb8      0xdec ..\obj\aufgabe.o
 .debug_info    0x0000d9a4       0xee ..\obj\main.o
 .debug_info    0x0000da92      0xc4d ..\obj\stm32f4xx_rcc.o
 .debug_info    0x0000e6df      0x742 ..\obj\SDCARD.o
 .debug_info    0x0000ee21      0x6fe ..\obj\init.o
 .debug_info    0x0000f51f      0xc38 ..\obj\stm32f4xx_adc.o
 .debug_info    0x00010157      0xb9c ..\obj\dw1000_user.o
 .debug_info    0x00010cf3      0x40e ..\obj\mbox.o
 .debug_info    0x00011101      0x877 ..\obj\CC3100_HttpServer.o
 .debug_info    0x00011978     0x10de ..\obj\CC3100_Board.o
 .debug_info    0x00012a56      0x3d2 ..\obj\time.o
 .debug_info    0x00012e28      0x4a6 ..\obj\event.o
 .debug_info    0x000132ce      0x602 ..\obj\stm32f4xx_gpio.o
 .debug_info    0x000138d0      0xd5a ..\obj\device.o
 .debug_info    0x0001462a      0x996 ..\obj\CC3100_EventHandler.o
 .debug_info    0x00014fc0      0x592 ..\obj\system_stm32f4xx.o
 .debug_info    0x00015552      0x3ee ..\obj\syscalls.o
 .debug_info    0x00015940      0x739 ..\obj\stm32f4xx_dma.o
 .debug_info    0x00016079      0x528 ..\obj\queue.o
 .debug_info    0x000165a1      0x197 ..\obj\port.o
 .debug_info    0x00016738      0x639 ..\obj\flag.o
 .debug_info    0x00016d71      0xb07 ..\obj\stm32f4xx_spi.o
 .debug_info    0x00017878      0x2fe ..\obj\arch.o
 .debug_info    0x00017b76      0x347 ..\obj\stm32f4xx_exti.o
 .debug_info    0x00017ebd      0x53d ..\obj\misc.o
 .debug_info    0x000183fa      0x9bc ..\obj\beeper.o
 .debug_info    0x00018db6      0xc0e ..\obj\dw1000_ranging.o
 .debug_info    0x000199c4      0x4f7 ..\obj\DW1000.o
 .debug_info    0x00019ebb      0x3ce ..\obj\sem.o
 .debug_info    0x0001a289     0x10df ..\obj\stm32f4xx_rtc.o
 .debug_info    0x0001b368       0xbc ..\obj\hook.o
 .debug_info    0x0001b424     0x1c61 ..\obj\stm32f4xx_tim.o
 .debug_info    0x0001d085      0x63e ..\obj\nonos.o
 .debug_info    0x0001d6c3      0xabf ..\obj\usart.o

.debug_abbrev   0x00000000     0x5b93
 .debug_abbrev  0x00000000      0x30d ..\obj\socket.o
 .debug_abbrev  0x0000030d      0x16b ..\obj\dw1000_io.o
 .debug_abbrev  0x00000478      0x131 ..\obj\stm32f4xx_syscfg.o
 .debug_abbrev  0x000005a9       0xe5 ..\obj\MPU9250.o
 .debug_abbrev  0x0000068e      0x2bf ..\obj\netapp.o
 .debug_abbrev  0x0000094d       0xf5 ..\obj\core.o
 .debug_abbrev  0x00000a42      0x2a2 ..\obj\MQTT.o
 .debug_abbrev  0x00000ce4      0x218 ..\obj\interrupts.o
 .debug_abbrev  0x00000efc      0x194 ..\obj\timer.o
 .debug_abbrev  0x00001090      0x261 ..\obj\driver.o
 .debug_abbrev  0x000012f1      0x155 ..\obj\stm32f4xx_usart.o
 .debug_abbrev  0x00001446      0x17f ..\obj\stm32f4xx_pwr.o
 .debug_abbrev  0x000015c5      0x21d ..\obj\rtc.o
 .debug_abbrev  0x000017e2      0x204 ..\obj\dw1000_driver.o
 .debug_abbrev  0x000019e6      0x23f ..\obj\CC3100.o
 .debug_abbrev  0x00001c25      0x140 ..\obj\stm32f4xx_wwdg.o
 .debug_abbrev  0x00001d65      0x1ff ..\obj\dw1000_config.o
 .debug_abbrev  0x00001f64      0x1ef ..\obj\task.o
 .debug_abbrev  0x00002153      0x23c ..\obj\diskio.o
 .debug_abbrev  0x0000238f       0xb0 ..\obj\startup_stm32f4xx.o
 .debug_abbrev  0x0000243f      0x114 ..\obj\serviceReq.o
 .debug_abbrev  0x00002553      0x22f ..\obj\aufgabe.o
 .debug_abbrev  0x00002782       0x92 ..\obj\main.o
 .debug_abbrev  0x00002814      0x1e3 ..\obj\stm32f4xx_rcc.o
 .debug_abbrev  0x000029f7      0x151 ..\obj\SDCARD.o
 .debug_abbrev  0x00002b48      0x190 ..\obj\init.o
 .debug_abbrev  0x00002cd8      0x196 ..\obj\stm32f4xx_adc.o
 .debug_abbrev  0x00002e6e      0x2d5 ..\obj\dw1000_user.o
 .debug_abbrev  0x00003143      0x15f ..\obj\mbox.o
 .debug_abbrev  0x000032a2      0x23f ..\obj\CC3100_HttpServer.o
 .debug_abbrev  0x000034e1      0x32d ..\obj\CC3100_Board.o
 .debug_abbrev  0x0000380e      0x194 ..\obj\time.o
 .debug_abbrev  0x000039a2      0x1d4 ..\obj\event.o
 .debug_abbrev  0x00003b76      0x1a3 ..\obj\stm32f4xx_gpio.o
 .debug_abbrev  0x00003d19      0x2be ..\obj\device.o
 .debug_abbrev  0x00003fd7      0x1bb ..\obj\CC3100_EventHandler.o
 .debug_abbrev  0x00004192      0x136 ..\obj\system_stm32f4xx.o
 .debug_abbrev  0x000042c8       0xe2 ..\obj\syscalls.o
 .debug_abbrev  0x000043aa      0x155 ..\obj\stm32f4xx_dma.o
 .debug_abbrev  0x000044ff      0x17f ..\obj\queue.o
 .debug_abbrev  0x0000467e       0xe7 ..\obj\port.o
 .debug_abbrev  0x00004765      0x1b1 ..\obj\flag.o
 .debug_abbrev  0x00004916      0x167 ..\obj\stm32f4xx_spi.o
 .debug_abbrev  0x00004a7d      0x111 ..\obj\arch.o
 .debug_abbrev  0x00004b8e      0x1a5 ..\obj\stm32f4xx_exti.o
 .debug_abbrev  0x00004d33      0x145 ..\obj\misc.o
 .debug_abbrev  0x00004e78      0x14d ..\obj\beeper.o
 .debug_abbrev  0x00004fc5      0x20b ..\obj\dw1000_ranging.o
 .debug_abbrev  0x000051d0      0x157 ..\obj\DW1000.o
 .debug_abbrev  0x00005327      0x141 ..\obj\sem.o
 .debug_abbrev  0x00005468      0x1ae ..\obj\stm32f4xx_rtc.o
 .debug_abbrev  0x00005616       0x8a ..\obj\hook.o
 .debug_abbrev  0x000056a0      0x187 ..\obj\stm32f4xx_tim.o
 .debug_abbrev  0x00005827      0x188 ..\obj\nonos.o
 .debug_abbrev  0x000059af      0x1e4 ..\obj\usart.o

.debug_aranges  0x00000000     0x20f0
 .debug_aranges
                0x00000000       0xe0 ..\obj\socket.o
 .debug_aranges
                0x000000e0       0xb0 ..\obj\dw1000_io.o
 .debug_aranges
                0x00000190       0x48 ..\obj\stm32f4xx_syscfg.o
 .debug_aranges
                0x000001d8       0x28 ..\obj\MPU9250.o
 .debug_aranges
                0x00000200       0xa8 ..\obj\netapp.o
 .debug_aranges
                0x000002a8       0x58 ..\obj\core.o
 .debug_aranges
                0x00000300      0x100 ..\obj\MQTT.o
 .debug_aranges
                0x00000400      0x100 ..\obj\interrupts.o
 .debug_aranges
                0x00000500       0x68 ..\obj\timer.o
 .debug_aranges
                0x00000568       0xf8 ..\obj\driver.o
 .debug_aranges
                0x00000660      0x100 ..\obj\stm32f4xx_usart.o
 .debug_aranges
                0x00000760       0x78 ..\obj\stm32f4xx_pwr.o
 .debug_aranges
                0x000007d8       0xb8 ..\obj\rtc.o
 .debug_aranges
                0x00000890      0x128 ..\obj\dw1000_driver.o
 .debug_aranges
                0x000009b8       0x90 ..\obj\CC3100.o
 .debug_aranges
                0x00000a48       0x58 ..\obj\stm32f4xx_wwdg.o
 .debug_aranges
                0x00000aa0      0x130 ..\obj\dw1000_config.o
 .debug_aranges
                0x00000bd0       0x78 ..\obj\task.o
 .debug_aranges
                0x00000c48       0xa8 ..\obj\diskio.o
 .debug_aranges
                0x00000cf0       0x28 ..\obj\startup_stm32f4xx.o
 .debug_aranges
                0x00000d18       0x28 ..\obj\serviceReq.o
 .debug_aranges
                0x00000d40      0x118 ..\obj\aufgabe.o
 .debug_aranges
                0x00000e58       0x20 ..\obj\main.o
 .debug_aranges
                0x00000e78      0x178 ..\obj\stm32f4xx_rcc.o
 .debug_aranges
                0x00000ff0       0x50 ..\obj\SDCARD.o
 .debug_aranges
                0x00001040       0x40 ..\obj\init.o
 .debug_aranges
                0x00001080      0x148 ..\obj\stm32f4xx_adc.o
 .debug_aranges
                0x000011c8       0xa8 ..\obj\dw1000_user.o
 .debug_aranges
                0x00001270       0x48 ..\obj\mbox.o
 .debug_aranges
                0x000012b8       0x88 ..\obj\CC3100_HttpServer.o
 .debug_aranges
                0x00001340       0xf0 ..\obj\CC3100_Board.o
 .debug_aranges
                0x00001430       0x58 ..\obj\time.o
 .debug_aranges
                0x00001488       0x50 ..\obj\event.o
 .debug_aranges
                0x000014d8       0x88 ..\obj\stm32f4xx_gpio.o
 .debug_aranges
                0x00001560       0x70 ..\obj\device.o
 .debug_aranges
                0x000015d0       0x40 ..\obj\CC3100_EventHandler.o
 .debug_aranges
                0x00001610       0x30 ..\obj\system_stm32f4xx.o
 .debug_aranges
                0x00001640       0x60 ..\obj\syscalls.o
 .debug_aranges
                0x000016a0       0xb0 ..\obj\stm32f4xx_dma.o
 .debug_aranges
                0x00001750       0x48 ..\obj\queue.o
 .debug_aranges
                0x00001798       0x50 ..\obj\port.o
 .debug_aranges
                0x000017e8       0x78 ..\obj\flag.o
 .debug_aranges
                0x00001860       0xe0 ..\obj\stm32f4xx_spi.o
 .debug_aranges
                0x00001940       0x28 ..\obj\arch.o
 .debug_aranges
                0x00001968       0x58 ..\obj\stm32f4xx_exti.o
 .debug_aranges
                0x000019c0       0x40 ..\obj\misc.o
 .debug_aranges
                0x00001a00       0x48 ..\obj\beeper.o
 .debug_aranges
                0x00001a48       0x80 ..\obj\dw1000_ranging.o
 .debug_aranges
                0x00001ac8       0x58 ..\obj\DW1000.o
 .debug_aranges
                0x00001b20       0x48 ..\obj\sem.o
 .debug_aranges
                0x00001b68      0x1e0 ..\obj\stm32f4xx_rtc.o
 .debug_aranges
                0x00001d48       0x28 ..\obj\hook.o
 .debug_aranges
                0x00001d70      0x2f8 ..\obj\stm32f4xx_tim.o
 .debug_aranges
                0x00002068       0x38 ..\obj\nonos.o
 .debug_aranges
                0x000020a0       0x50 ..\obj\usart.o

.debug_ranges   0x00000000     0x1db0
 .debug_ranges  0x00000000       0xd0 ..\obj\socket.o
 .debug_ranges  0x000000d0       0xa0 ..\obj\dw1000_io.o
 .debug_ranges  0x00000170       0x38 ..\obj\stm32f4xx_syscfg.o
 .debug_ranges  0x000001a8       0x18 ..\obj\MPU9250.o
 .debug_ranges  0x000001c0       0x98 ..\obj\netapp.o
 .debug_ranges  0x00000258       0x48 ..\obj\core.o
 .debug_ranges  0x000002a0       0xf0 ..\obj\MQTT.o
 .debug_ranges  0x00000390       0xf0 ..\obj\interrupts.o
 .debug_ranges  0x00000480       0x58 ..\obj\timer.o
 .debug_ranges  0x000004d8       0xe8 ..\obj\driver.o
 .debug_ranges  0x000005c0       0xf0 ..\obj\stm32f4xx_usart.o
 .debug_ranges  0x000006b0       0x68 ..\obj\stm32f4xx_pwr.o
 .debug_ranges  0x00000718       0xa8 ..\obj\rtc.o
 .debug_ranges  0x000007c0      0x130 ..\obj\dw1000_driver.o
 .debug_ranges  0x000008f0       0x80 ..\obj\CC3100.o
 .debug_ranges  0x00000970       0x48 ..\obj\stm32f4xx_wwdg.o
 .debug_ranges  0x000009b8      0x120 ..\obj\dw1000_config.o
 .debug_ranges  0x00000ad8       0x68 ..\obj\task.o
 .debug_ranges  0x00000b40       0x98 ..\obj\diskio.o
 .debug_ranges  0x00000bd8       0x18 ..\obj\startup_stm32f4xx.o
 .debug_ranges  0x00000bf0       0x18 ..\obj\serviceReq.o
 .debug_ranges  0x00000c08      0x108 ..\obj\aufgabe.o
 .debug_ranges  0x00000d10       0x10 ..\obj\main.o
 .debug_ranges  0x00000d20      0x168 ..\obj\stm32f4xx_rcc.o
 .debug_ranges  0x00000e88       0x40 ..\obj\SDCARD.o
 .debug_ranges  0x00000ec8       0x30 ..\obj\init.o
 .debug_ranges  0x00000ef8      0x138 ..\obj\stm32f4xx_adc.o
 .debug_ranges  0x00001030       0x98 ..\obj\dw1000_user.o
 .debug_ranges  0x000010c8       0x38 ..\obj\mbox.o
 .debug_ranges  0x00001100       0x78 ..\obj\CC3100_HttpServer.o
 .debug_ranges  0x00001178       0xe0 ..\obj\CC3100_Board.o
 .debug_ranges  0x00001258       0x48 ..\obj\time.o
 .debug_ranges  0x000012a0       0x40 ..\obj\event.o
 .debug_ranges  0x000012e0       0x78 ..\obj\stm32f4xx_gpio.o
 .debug_ranges  0x00001358       0x60 ..\obj\device.o
 .debug_ranges  0x000013b8       0x48 ..\obj\CC3100_EventHandler.o
 .debug_ranges  0x00001400       0x20 ..\obj\system_stm32f4xx.o
 .debug_ranges  0x00001420       0x50 ..\obj\syscalls.o
 .debug_ranges  0x00001470       0xa0 ..\obj\stm32f4xx_dma.o
 .debug_ranges  0x00001510       0x38 ..\obj\queue.o
 .debug_ranges  0x00001548       0x40 ..\obj\port.o
 .debug_ranges  0x00001588       0x68 ..\obj\flag.o
 .debug_ranges  0x000015f0       0xd0 ..\obj\stm32f4xx_spi.o
 .debug_ranges  0x000016c0       0x18 ..\obj\arch.o
 .debug_ranges  0x000016d8       0x48 ..\obj\stm32f4xx_exti.o
 .debug_ranges  0x00001720       0x30 ..\obj\misc.o
 .debug_ranges  0x00001750       0x38 ..\obj\beeper.o
 .debug_ranges  0x00001788       0x70 ..\obj\dw1000_ranging.o
 .debug_ranges  0x000017f8       0x48 ..\obj\DW1000.o
 .debug_ranges  0x00001840       0x38 ..\obj\sem.o
 .debug_ranges  0x00001878      0x1d0 ..\obj\stm32f4xx_rtc.o
 .debug_ranges  0x00001a48       0x18 ..\obj\hook.o
 .debug_ranges  0x00001a60      0x2e8 ..\obj\stm32f4xx_tim.o
 .debug_ranges  0x00001d48       0x28 ..\obj\nonos.o
 .debug_ranges  0x00001d70       0x40 ..\obj\usart.o

.debug_line     0x00000000     0xcb8d
 .debug_line    0x00000000      0x58f ..\obj\socket.o
 .debug_line    0x0000058f      0x2f5 ..\obj\dw1000_io.o
 .debug_line    0x00000884      0x230 ..\obj\stm32f4xx_syscfg.o
 .debug_line    0x00000ab4      0x231 ..\obj\MPU9250.o
 .debug_line    0x00000ce5      0x4c1 ..\obj\netapp.o
 .debug_line    0x000011a6      0x128 ..\obj\core.o
 .debug_line    0x000012ce      0x77d ..\obj\MQTT.o
 .debug_line    0x00001a4b      0x61d ..\obj\interrupts.o
 .debug_line    0x00002068      0x1f7 ..\obj\timer.o
 .debug_line    0x0000225f      0x884 ..\obj\driver.o
 .debug_line    0x00002ae3      0x4bd ..\obj\stm32f4xx_usart.o
 .debug_line    0x00002fa0      0x2ce ..\obj\stm32f4xx_pwr.o
 .debug_line    0x0000326e      0x59b ..\obj\rtc.o
 .debug_line    0x00003809      0x5a9 ..\obj\dw1000_driver.o
 .debug_line    0x00003db2      0x64c ..\obj\CC3100.o
 .debug_line    0x000043fe      0x253 ..\obj\stm32f4xx_wwdg.o
 .debug_line    0x00004651      0x71c ..\obj\dw1000_config.o
 .debug_line    0x00004d6d      0x2ee ..\obj\task.o
 .debug_line    0x0000505b      0x607 ..\obj\diskio.o
 .debug_line    0x00005662       0xa4 ..\obj\startup_stm32f4xx.o
 .debug_line    0x00005706       0xd1 ..\obj\serviceReq.o
 .debug_line    0x000057d7      0x5a7 ..\obj\aufgabe.o
 .debug_line    0x00005d7e      0x182 ..\obj\main.o
 .debug_line    0x00005f00      0x5b5 ..\obj\stm32f4xx_rcc.o
 .debug_line    0x000064b5      0x2d1 ..\obj\SDCARD.o
 .debug_line    0x00006786      0x27f ..\obj\init.o
 .debug_line    0x00006a05      0x56d ..\obj\stm32f4xx_adc.o
 .debug_line    0x00006f72      0x4cf ..\obj\dw1000_user.o
 .debug_line    0x00007441      0x13c ..\obj\mbox.o
 .debug_line    0x0000757d      0x47d ..\obj\CC3100_HttpServer.o
 .debug_line    0x000079fa      0x64e ..\obj\CC3100_Board.o
 .debug_line    0x00008048      0x1e1 ..\obj\time.o
 .debug_line    0x00008229      0x1bc ..\obj\event.o
 .debug_line    0x000083e5      0x35a ..\obj\stm32f4xx_gpio.o
 .debug_line    0x0000873f      0x3ae ..\obj\device.o
 .debug_line    0x00008aed      0x2d4 ..\obj\CC3100_EventHandler.o
 .debug_line    0x00008dc1      0x20a ..\obj\system_stm32f4xx.o
 .debug_line    0x00008fcb      0x17e ..\obj\syscalls.o
 .debug_line    0x00009149      0x3f7 ..\obj\stm32f4xx_dma.o
 .debug_line    0x00009540      0x17f ..\obj\queue.o
 .debug_line    0x000096bf      0x12e ..\obj\port.o
 .debug_line    0x000097ed      0x265 ..\obj\flag.o
 .debug_line    0x00009a52      0x46d ..\obj\stm32f4xx_spi.o
 .debug_line    0x00009ebf       0xfa ..\obj\arch.o
 .debug_line    0x00009fb9      0x2c0 ..\obj\stm32f4xx_exti.o
 .debug_line    0x0000a279      0x260 ..\obj\misc.o
 .debug_line    0x0000a4d9      0x2fd ..\obj\beeper.o
 .debug_line    0x0000a7d6      0x5ce ..\obj\dw1000_ranging.o
 .debug_line    0x0000ada4      0x350 ..\obj\DW1000.o
 .debug_line    0x0000b0f4      0x137 ..\obj\sem.o
 .debug_line    0x0000b22b      0x828 ..\obj\stm32f4xx_rtc.o
 .debug_line    0x0000ba53       0x8f ..\obj\hook.o
 .debug_line    0x0000bae2      0xa80 ..\obj\stm32f4xx_tim.o
 .debug_line    0x0000c562      0x28b ..\obj\nonos.o
 .debug_line    0x0000c7ed      0x3a0 ..\obj\usart.o

.debug_str      0x00000000     0xb4ac
 .debug_str     0x00000000      0xcc2 ..\obj\socket.o
                                0xd94 (size before relaxing)
 .debug_str     0x00000cc2      0x2d5 ..\obj\dw1000_io.o
                                0x43d (size before relaxing)
 .debug_str     0x00000f97      0x1a5 ..\obj\stm32f4xx_syscfg.o
                                0x319 (size before relaxing)
 .debug_str     0x0000113c      0x38b ..\obj\MPU9250.o
                                0x534 (size before relaxing)
 .debug_str     0x000014c7      0xad2 ..\obj\netapp.o
                               0x1254 (size before relaxing)
 .debug_str     0x00001f99      0x189 ..\obj\core.o
                                0x2ac (size before relaxing)
 .debug_str     0x00002122      0x65f ..\obj\MQTT.o
                                0x990 (size before relaxing)
 .debug_str     0x00002781      0x615 ..\obj\interrupts.o
                                0x8af (size before relaxing)
 .debug_str     0x00002d96      0x151 ..\obj\timer.o
                                0x29a (size before relaxing)
 .debug_str     0x00002ee7      0x539 ..\obj\driver.o
                                0xc89 (size before relaxing)
 .debug_str     0x00003420      0x47f ..\obj\stm32f4xx_usart.o
                                0x6b4 (size before relaxing)
 .debug_str     0x0000389f      0x189 ..\obj\stm32f4xx_pwr.o
                                0x3b6 (size before relaxing)
 .debug_str     0x00003a28      0xa8f ..\obj\rtc.o
                                0xd45 (size before relaxing)
 .debug_str     0x000044b7      0x649 ..\obj\dw1000_driver.o
                                0x841 (size before relaxing)
 .debug_str     0x00004b00      0x750 ..\obj\CC3100.o
                                0xc33 (size before relaxing)
 .debug_str     0x00005250       0xe6 ..\obj\stm32f4xx_wwdg.o
                                0x29c (size before relaxing)
 .debug_str     0x00005336      0x51e ..\obj\dw1000_config.o
                                0x79a (size before relaxing)
 .debug_str     0x00005854      0x217 ..\obj\task.o
                                0x44b (size before relaxing)
 .debug_str     0x00005a6b      0x3ad ..\obj\diskio.o
                                0x6c4 (size before relaxing)
 .debug_str     0x00005e18       0xb2 ..\obj\startup_stm32f4xx.o
                                0x16c (size before relaxing)
 .debug_str     0x00005eca       0x9d ..\obj\serviceReq.o
                                0x1d2 (size before relaxing)
 .debug_str     0x00005f67      0x282 ..\obj\aufgabe.o
                                0xea6 (size before relaxing)
 .debug_str     0x000061e9       0x31 ..\obj\main.o
                                0x1f0 (size before relaxing)
 .debug_str     0x0000621a      0x5df ..\obj\stm32f4xx_rcc.o
                                0x875 (size before relaxing)
 .debug_str     0x000067f9      0x39b ..\obj\SDCARD.o
                                0x5c9 (size before relaxing)
 .debug_str     0x00006b94       0xf6 ..\obj\init.o
                                0x868 (size before relaxing)
 .debug_str     0x00006c8a      0x5e4 ..\obj\stm32f4xx_adc.o
                                0x829 (size before relaxing)
 .debug_str     0x0000726e      0x34a ..\obj\dw1000_user.o
                                0xe79 (size before relaxing)
 .debug_str     0x000075b8       0x94 ..\obj\mbox.o
                                0x2ed (size before relaxing)
 .debug_str     0x0000764c      0x277 ..\obj\CC3100_HttpServer.o
                                0x74b (size before relaxing)
 .debug_str     0x000078c3      0x363 ..\obj\CC3100_Board.o
                               0x1085 (size before relaxing)
 .debug_str     0x00007c26       0xcd ..\obj\time.o
                                0x309 (size before relaxing)
 .debug_str     0x00007cf3       0xe7 ..\obj\event.o
                                0x354 (size before relaxing)
 .debug_str     0x00007dda      0x18d ..\obj\stm32f4xx_gpio.o
                                0x4c8 (size before relaxing)
 .debug_str     0x00007f67      0x4bd ..\obj\device.o
                                0xb71 (size before relaxing)
 .debug_str     0x00008424      0x497 ..\obj\CC3100_EventHandler.o
                                0xa77 (size before relaxing)
 .debug_str     0x000088bb       0xaa ..\obj\system_stm32f4xx.o
                                0x3cf (size before relaxing)
 .debug_str     0x00008965      0x15b ..\obj\syscalls.o
                                0x305 (size before relaxing)
 .debug_str     0x00008ac0      0x232 ..\obj\stm32f4xx_dma.o
                                0x567 (size before relaxing)
 .debug_str     0x00008cf2       0xb2 ..\obj\queue.o
                                0x351 (size before relaxing)
 .debug_str     0x00008da4       0xc8 ..\obj\port.o
                                0x1ec (size before relaxing)
 .debug_str     0x00008e6c      0x1ad ..\obj\flag.o
                                0x3ca (size before relaxing)
 .debug_str     0x00009019      0x2f2 ..\obj\stm32f4xx_spi.o
                                0x6af (size before relaxing)
 .debug_str     0x0000930b       0x72 ..\obj\arch.o
                                0x2d1 (size before relaxing)
 .debug_str     0x0000937d       0xd5 ..\obj\stm32f4xx_exti.o
                                0x37e (size before relaxing)
 .debug_str     0x00009452       0xfe ..\obj\misc.o
                                0x3f3 (size before relaxing)
 .debug_str     0x00009550      0x26e ..\obj\beeper.o
                                0xc2e (size before relaxing)
 .debug_str     0x000097be      0x69e ..\obj\dw1000_ranging.o
                                0xa96 (size before relaxing)
 .debug_str     0x00009e5c      0x11c ..\obj\DW1000.o
                                0x66a (size before relaxing)
 .debug_str     0x00009f78       0x8c ..\obj\sem.o
                                0x2f0 (size before relaxing)
 .debug_str     0x0000a004      0x850 ..\obj\stm32f4xx_rtc.o
                                0xb6d (size before relaxing)
 .debug_str     0x0000a854       0x60 ..\obj\hook.o
                                0x17f (size before relaxing)
 .debug_str     0x0000a8b4      0xa00 ..\obj\stm32f4xx_tim.o
                                0xdf5 (size before relaxing)
 .debug_str     0x0000b2b4      0x10e ..\obj\nonos.o
                                0x609 (size before relaxing)
 .debug_str     0x0000b3c2       0xea ..\obj\usart.o
                                0xc01 (size before relaxing)

.comment        0x00000000       0x70
 .comment       0x00000000       0x70 ..\obj\socket.o
                                 0x71 (size before relaxing)
 .comment       0x00000000       0x71 ..\obj\dw1000_io.o
 .comment       0x00000000       0x71 ..\obj\stm32f4xx_syscfg.o
 .comment       0x00000000       0x71 ..\obj\MPU9250.o
 .comment       0x00000000       0x71 ..\obj\netapp.o
 .comment       0x00000000       0x71 ..\obj\core.o
 .comment       0x00000000       0x71 ..\obj\MQTT.o
 .comment       0x00000000       0x71 ..\obj\interrupts.o
 .comment       0x00000000       0x71 ..\obj\timer.o
 .comment       0x00000000       0x71 ..\obj\driver.o
 .comment       0x00000000       0x71 ..\obj\stm32f4xx_usart.o
 .comment       0x00000000       0x71 ..\obj\stm32f4xx_pwr.o
 .comment       0x00000000       0x71 ..\obj\rtc.o
 .comment       0x00000000       0x71 ..\obj\dw1000_driver.o
 .comment       0x00000000       0x71 ..\obj\CC3100.o
 .comment       0x00000000       0x71 ..\obj\stm32f4xx_wwdg.o
 .comment       0x00000000       0x71 ..\obj\dw1000_config.o
 .comment       0x00000000       0x71 ..\obj\task.o
 .comment       0x00000000       0x71 ..\obj\diskio.o
 .comment       0x00000000       0x71 ..\obj\startup_stm32f4xx.o
 .comment       0x00000000       0x71 ..\obj\serviceReq.o
 .comment       0x00000000       0x71 ..\obj\aufgabe.o
 .comment       0x00000000       0x71 ..\obj\main.o
 .comment       0x00000000       0x71 ..\obj\stm32f4xx_rcc.o
 .comment       0x00000000       0x71 ..\obj\SDCARD.o
 .comment       0x00000000       0x71 ..\obj\init.o
 .comment       0x00000000       0x71 ..\obj\stm32f4xx_adc.o
 .comment       0x00000000       0x71 ..\obj\dw1000_user.o
 .comment       0x00000000       0x71 ..\obj\mbox.o
 .comment       0x00000000       0x71 ..\obj\CC3100_HttpServer.o
 .comment       0x00000000       0x71 ..\obj\CC3100_Board.o
 .comment       0x00000000       0x71 ..\obj\time.o
 .comment       0x00000000       0x71 ..\obj\event.o
 .comment       0x00000000       0x71 ..\obj\stm32f4xx_gpio.o
 .comment       0x00000000       0x71 ..\obj\device.o
 .comment       0x00000000       0x71 ..\obj\CC3100_EventHandler.o
 .comment       0x00000000       0x71 ..\obj\system_stm32f4xx.o
 .comment       0x00000000       0x71 ..\obj\syscalls.o
 .comment       0x00000000       0x71 ..\obj\stm32f4xx_dma.o
 .comment       0x00000000       0x71 ..\obj\queue.o
 .comment       0x00000000       0x71 ..\obj\port.o
 .comment       0x00000000       0x71 ..\obj\flag.o
 .comment       0x00000000       0x71 ..\obj\stm32f4xx_spi.o
 .comment       0x00000000       0x71 ..\obj\arch.o
 .comment       0x00000000       0x71 ..\obj\stm32f4xx_exti.o
 .comment       0x00000000       0x71 ..\obj\misc.o
 .comment       0x00000000       0x71 ..\obj\beeper.o
 .comment       0x00000000       0x71 ..\obj\dw1000_ranging.o
 .comment       0x00000000       0x71 ..\obj\DW1000.o
 .comment       0x00000000       0x71 ..\obj\sem.o
 .comment       0x00000000       0x71 ..\obj\stm32f4xx_rtc.o
 .comment       0x00000000       0x71 ..\obj\hook.o
 .comment       0x00000000       0x71 ..\obj\stm32f4xx_tim.o
 .comment       0x00000000       0x71 ..\obj\nonos.o
 .comment       0x00000000       0x71 ..\obj\usart.o

.ARM.attributes
                0x00000000       0x37
 .ARM.attributes
                0x00000000       0x39 ..\obj\socket.o
 .ARM.attributes
                0x00000039       0x39 ..\obj\dw1000_io.o
 .ARM.attributes
                0x00000072       0x39 ..\obj\stm32f4xx_syscfg.o
 .ARM.attributes
                0x000000ab       0x39 ..\obj\MPU9250.o
 .ARM.attributes
                0x000000e4       0x39 ..\obj\netapp.o
 .ARM.attributes
                0x0000011d       0x39 ..\obj\core.o
 .ARM.attributes
                0x00000156       0x39 ..\obj\MQTT.o
 .ARM.attributes
                0x0000018f       0x39 ..\obj\interrupts.o
 .ARM.attributes
                0x000001c8       0x39 ..\obj\timer.o
 .ARM.attributes
                0x00000201       0x39 ..\obj\driver.o
 .ARM.attributes
                0x0000023a       0x39 ..\obj\stm32f4xx_usart.o
 .ARM.attributes
                0x00000273       0x39 ..\obj\stm32f4xx_pwr.o
 .ARM.attributes
                0x000002ac       0x39 ..\obj\rtc.o
 .ARM.attributes
                0x000002e5       0x39 ..\obj\dw1000_driver.o
 .ARM.attributes
                0x0000031e       0x39 ..\obj\CC3100.o
 .ARM.attributes
                0x00000357       0x39 ..\obj\stm32f4xx_wwdg.o
 .ARM.attributes
                0x00000390       0x39 ..\obj\dw1000_config.o
 .ARM.attributes
                0x000003c9       0x39 ..\obj\task.o
 .ARM.attributes
                0x00000402       0x39 ..\obj\diskio.o
 .ARM.attributes
                0x0000043b       0x39 ..\obj\startup_stm32f4xx.o
 .ARM.attributes
                0x00000474       0x39 ..\obj\serviceReq.o
 .ARM.attributes
                0x000004ad       0x39 ..\obj\aufgabe.o
 .ARM.attributes
                0x000004e6       0x39 ..\obj\main.o
 .ARM.attributes
                0x0000051f       0x39 ..\obj\stm32f4xx_rcc.o
 .ARM.attributes
                0x00000558       0x39 ..\obj\SDCARD.o
 .ARM.attributes
                0x00000591       0x39 ..\obj\init.o
 .ARM.attributes
                0x000005ca       0x39 ..\obj\stm32f4xx_adc.o
 .ARM.attributes
                0x00000603       0x39 ..\obj\dw1000_user.o
 .ARM.attributes
                0x0000063c       0x39 ..\obj\mbox.o
 .ARM.attributes
                0x00000675       0x39 ..\obj\CC3100_HttpServer.o
 .ARM.attributes
                0x000006ae       0x39 ..\obj\CC3100_Board.o
 .ARM.attributes
                0x000006e7       0x39 ..\obj\time.o
 .ARM.attributes
                0x00000720       0x39 ..\obj\event.o
 .ARM.attributes
                0x00000759       0x39 ..\obj\stm32f4xx_gpio.o
 .ARM.attributes
                0x00000792       0x39 ..\obj\device.o
 .ARM.attributes
                0x000007cb       0x39 ..\obj\CC3100_EventHandler.o
 .ARM.attributes
                0x00000804       0x39 ..\obj\system_stm32f4xx.o
 .ARM.attributes
                0x0000083d       0x39 ..\obj\syscalls.o
 .ARM.attributes
                0x00000876       0x39 ..\obj\stm32f4xx_dma.o
 .ARM.attributes
                0x000008af       0x39 ..\obj\queue.o
 .ARM.attributes
                0x000008e8       0x39 ..\obj\port.o
 .ARM.attributes
                0x00000921       0x39 ..\obj\flag.o
 .ARM.attributes
                0x0000095a       0x39 ..\obj\stm32f4xx_spi.o
 .ARM.attributes
                0x00000993       0x39 ..\obj\arch.o
 .ARM.attributes
                0x000009cc       0x39 ..\obj\stm32f4xx_exti.o
 .ARM.attributes
                0x00000a05       0x39 ..\obj\misc.o
 .ARM.attributes
                0x00000a3e       0x39 ..\obj\beeper.o
 .ARM.attributes
                0x00000a77       0x39 ..\obj\dw1000_ranging.o
 .ARM.attributes
                0x00000ab0       0x39 ..\obj\DW1000.o
 .ARM.attributes
                0x00000ae9       0x39 ..\obj\sem.o
 .ARM.attributes
                0x00000b22       0x39 ..\obj\stm32f4xx_rtc.o
 .ARM.attributes
                0x00000b5b       0x39 ..\obj\hook.o
 .ARM.attributes
                0x00000b94       0x39 ..\obj\stm32f4xx_tim.o
 .ARM.attributes
                0x00000bcd       0x39 ..\obj\nonos.o
 .ARM.attributes
                0x00000c06       0x39 ..\obj\usart.o
 .ARM.attributes
                0x00000c3f       0x34 c:/users/niggi/gcc-arm-none-eabi-4_8-2014q3-20140805-win32/bin/../lib/gcc/arm-none-eabi/4.8.4/../../../../arm-none-eabi/lib/armv7e-m/fpu\libm.a(lib_a-s_round.o)
 .ARM.attributes
                0x00000c73       0x34 c:/users/niggi/gcc-arm-none-eabi-4_8-2014q3-20140805-win32/bin/../lib/gcc/arm-none-eabi/4.8.4/../../../../arm-none-eabi/lib/armv7e-m/fpu\libm.a(lib_a-w_log10.o)
 .ARM.attributes
                0x00000ca7       0x34 c:/users/niggi/gcc-arm-none-eabi-4_8-2014q3-20140805-win32/bin/../lib/gcc/arm-none-eabi/4.8.4/../../../../arm-none-eabi/lib/armv7e-m/fpu\libm.a(lib_a-w_pow.o)
 .ARM.attributes
                0x00000cdb       0x34 c:/users/niggi/gcc-arm-none-eabi-4_8-2014q3-20140805-win32/bin/../lib/gcc/arm-none-eabi/4.8.4/../../../../arm-none-eabi/lib/armv7e-m/fpu\libm.a(lib_a-e_log10.o)
 .ARM.attributes
                0x00000d0f       0x34 c:/users/niggi/gcc-arm-none-eabi-4_8-2014q3-20140805-win32/bin/../lib/gcc/arm-none-eabi/4.8.4/../../../../arm-none-eabi/lib/armv7e-m/fpu\libm.a(lib_a-e_pow.o)
 .ARM.attributes
                0x00000d43       0x34 c:/users/niggi/gcc-arm-none-eabi-4_8-2014q3-20140805-win32/bin/../lib/gcc/arm-none-eabi/4.8.4/../../../../arm-none-eabi/lib/armv7e-m/fpu\libm.a(lib_a-e_sqrt.o)
 .ARM.attributes
                0x00000d77       0x34 c:/users/niggi/gcc-arm-none-eabi-4_8-2014q3-20140805-win32/bin/../lib/gcc/arm-none-eabi/4.8.4/../../../../arm-none-eabi/lib/armv7e-m/fpu\libm.a(lib_a-s_fabs.o)
 .ARM.attributes
                0x00000dab       0x34 c:/users/niggi/gcc-arm-none-eabi-4_8-2014q3-20140805-win32/bin/../lib/gcc/arm-none-eabi/4.8.4/../../../../arm-none-eabi/lib/armv7e-m/fpu\libm.a(lib_a-s_finite.o)
 .ARM.attributes
                0x00000ddf       0x34 c:/users/niggi/gcc-arm-none-eabi-4_8-2014q3-20140805-win32/bin/../lib/gcc/arm-none-eabi/4.8.4/../../../../arm-none-eabi/lib/armv7e-m/fpu\libm.a(lib_a-s_fpclassify.o)
 .ARM.attributes
                0x00000e13       0x34 c:/users/niggi/gcc-arm-none-eabi-4_8-2014q3-20140805-win32/bin/../lib/gcc/arm-none-eabi/4.8.4/../../../../arm-none-eabi/lib/armv7e-m/fpu\libm.a(lib_a-s_lib_ver.o)
 .ARM.attributes
                0x00000e47       0x34 c:/users/niggi/gcc-arm-none-eabi-4_8-2014q3-20140805-win32/bin/../lib/gcc/arm-none-eabi/4.8.4/../../../../arm-none-eabi/lib/armv7e-m/fpu\libm.a(lib_a-s_matherr.o)
 .ARM.attributes
                0x00000e7b       0x34 c:/users/niggi/gcc-arm-none-eabi-4_8-2014q3-20140805-win32/bin/../lib/gcc/arm-none-eabi/4.8.4/../../../../arm-none-eabi/lib/armv7e-m/fpu\libm.a(lib_a-s_nan.o)
 .ARM.attributes
                0x00000eaf       0x34 c:/users/niggi/gcc-arm-none-eabi-4_8-2014q3-20140805-win32/bin/../lib/gcc/arm-none-eabi/4.8.4/../../../../arm-none-eabi/lib/armv7e-m/fpu\libm.a(lib_a-s_rint.o)
 .ARM.attributes
                0x00000ee3       0x34 c:/users/niggi/gcc-arm-none-eabi-4_8-2014q3-20140805-win32/bin/../lib/gcc/arm-none-eabi/4.8.4/../../../../arm-none-eabi/lib/armv7e-m/fpu\libm.a(lib_a-s_scalbn.o)
 .ARM.attributes
                0x00000f17       0x34 c:/users/niggi/gcc-arm-none-eabi-4_8-2014q3-20140805-win32/bin/../lib/gcc/arm-none-eabi/4.8.4/../../../../arm-none-eabi/lib/armv7e-m/fpu\libm.a(lib_a-e_log.o)
 .ARM.attributes
                0x00000f4b       0x34 c:/users/niggi/gcc-arm-none-eabi-4_8-2014q3-20140805-win32/bin/../lib/gcc/arm-none-eabi/4.8.4/../../../../arm-none-eabi/lib/armv7e-m/fpu\libm.a(lib_a-s_copysign.o)
 .ARM.attributes
                0x00000f7f       0x22 c:/users/niggi/gcc-arm-none-eabi-4_8-2014q3-20140805-win32/bin/../lib/gcc/arm-none-eabi/4.8.4/armv7e-m/fpu\libgcc.a(_arm_addsubdf3.o)
 .ARM.attributes
                0x00000fa1       0x22 c:/users/niggi/gcc-arm-none-eabi-4_8-2014q3-20140805-win32/bin/../lib/gcc/arm-none-eabi/4.8.4/armv7e-m/fpu\libgcc.a(_arm_muldivdf3.o)
 .ARM.attributes
                0x00000fc3       0x22 c:/users/niggi/gcc-arm-none-eabi-4_8-2014q3-20140805-win32/bin/../lib/gcc/arm-none-eabi/4.8.4/armv7e-m/fpu\libgcc.a(_arm_cmpdf2.o)
 .ARM.attributes
                0x00000fe5       0x22 c:/users/niggi/gcc-arm-none-eabi-4_8-2014q3-20140805-win32/bin/../lib/gcc/arm-none-eabi/4.8.4/armv7e-m/fpu\libgcc.a(_arm_fixdfsi.o)
 .ARM.attributes
                0x00001007       0x22 c:/users/niggi/gcc-arm-none-eabi-4_8-2014q3-20140805-win32/bin/../lib/gcc/arm-none-eabi/4.8.4/armv7e-m/fpu\libgcc.a(_arm_truncdfsf2.o)
 .ARM.attributes
                0x00001029       0x22 c:/users/niggi/gcc-arm-none-eabi-4_8-2014q3-20140805-win32/bin/../lib/gcc/arm-none-eabi/4.8.4/armv7e-m/fpu\libgcc.a(_arm_addsubsf3.o)
 .ARM.attributes
                0x0000104b       0x34 c:/users/niggi/gcc-arm-none-eabi-4_8-2014q3-20140805-win32/bin/../lib/gcc/arm-none-eabi/4.8.4/../../../../arm-none-eabi/lib/armv7e-m/fpu\libg.a(lib_a-errno.o)
 .ARM.attributes
                0x0000107f       0x34 c:/users/niggi/gcc-arm-none-eabi-4_8-2014q3-20140805-win32/bin/../lib/gcc/arm-none-eabi/4.8.4/../../../../arm-none-eabi/lib/armv7e-m/fpu\libg.a(lib_a-impure.o)
 .ARM.attributes
                0x000010b3       0x20 c:/users/niggi/gcc-arm-none-eabi-4_8-2014q3-20140805-win32/bin/../lib/gcc/arm-none-eabi/4.8.4/../../../../arm-none-eabi/lib/armv7e-m/fpu\libg.a(lib_a-memcpy.o)
 .ARM.attributes
                0x000010d3       0x34 c:/users/niggi/gcc-arm-none-eabi-4_8-2014q3-20140805-win32/bin/../lib/gcc/arm-none-eabi/4.8.4/../../../../arm-none-eabi/lib/armv7e-m/fpu\libg.a(lib_a-memset.o)
 .ARM.attributes
                0x00001107       0x34 c:/users/niggi/gcc-arm-none-eabi-4_8-2014q3-20140805-win32/bin/../lib/gcc/arm-none-eabi/4.8.4/../../../../arm-none-eabi/lib/armv7e-m/fpu\libg.a(lib_a-sprintf.o)
 .ARM.attributes
                0x0000113b       0x34 c:/users/niggi/gcc-arm-none-eabi-4_8-2014q3-20140805-win32/bin/../lib/gcc/arm-none-eabi/4.8.4/../../../../arm-none-eabi/lib/armv7e-m/fpu\libg.a(lib_a-strcpy.o)
 .ARM.attributes
                0x0000116f       0x34 c:/users/niggi/gcc-arm-none-eabi-4_8-2014q3-20140805-win32/bin/../lib/gcc/arm-none-eabi/4.8.4/../../../../arm-none-eabi/lib/armv7e-m/fpu\libg.a(lib_a-strlen.o)
 .ARM.attributes
                0x000011a3       0x34 c:/users/niggi/gcc-arm-none-eabi-4_8-2014q3-20140805-win32/bin/../lib/gcc/arm-none-eabi/4.8.4/../../../../arm-none-eabi/lib/armv7e-m/fpu\libg.a(lib_a-strncmp.o)
 .ARM.attributes
                0x000011d7       0x34 c:/users/niggi/gcc-arm-none-eabi-4_8-2014q3-20140805-win32/bin/../lib/gcc/arm-none-eabi/4.8.4/../../../../arm-none-eabi/lib/armv7e-m/fpu\libg.a(lib_a-svfprintf.o)
 .ARM.attributes
                0x0000120b       0x34 c:/users/niggi/gcc-arm-none-eabi-4_8-2014q3-20140805-win32/bin/../lib/gcc/arm-none-eabi/4.8.4/../../../../arm-none-eabi/lib/armv7e-m/fpu\libg.a(lib_a-vsnprintf.o)
 .ARM.attributes
                0x0000123f       0x34 c:/users/niggi/gcc-arm-none-eabi-4_8-2014q3-20140805-win32/bin/../lib/gcc/arm-none-eabi/4.8.4/../../../../arm-none-eabi/lib/armv7e-m/fpu\libg.a(lib_a-dtoa.o)
 .ARM.attributes
                0x00001273       0x34 c:/users/niggi/gcc-arm-none-eabi-4_8-2014q3-20140805-win32/bin/../lib/gcc/arm-none-eabi/4.8.4/../../../../arm-none-eabi/lib/armv7e-m/fpu\libg.a(lib_a-freer.o)
 .ARM.attributes
                0x000012a7       0x34 c:/users/niggi/gcc-arm-none-eabi-4_8-2014q3-20140805-win32/bin/../lib/gcc/arm-none-eabi/4.8.4/../../../../arm-none-eabi/lib/armv7e-m/fpu\libg.a(lib_a-locale.o)
 .ARM.attributes
                0x000012db       0x34 c:/users/niggi/gcc-arm-none-eabi-4_8-2014q3-20140805-win32/bin/../lib/gcc/arm-none-eabi/4.8.4/../../../../arm-none-eabi/lib/armv7e-m/fpu\libg.a(lib_a-mallocr.o)
 .ARM.attributes
                0x0000130f       0x34 c:/users/niggi/gcc-arm-none-eabi-4_8-2014q3-20140805-win32/bin/../lib/gcc/arm-none-eabi/4.8.4/../../../../arm-none-eabi/lib/armv7e-m/fpu\libg.a(lib_a-memchr-stub.o)
 .ARM.attributes
                0x00001343       0x34 c:/users/niggi/gcc-arm-none-eabi-4_8-2014q3-20140805-win32/bin/../lib/gcc/arm-none-eabi/4.8.4/../../../../arm-none-eabi/lib/armv7e-m/fpu\libg.a(lib_a-memmove.o)
 .ARM.attributes
                0x00001377       0x34 c:/users/niggi/gcc-arm-none-eabi-4_8-2014q3-20140805-win32/bin/../lib/gcc/arm-none-eabi/4.8.4/../../../../arm-none-eabi/lib/armv7e-m/fpu\libg.a(lib_a-mlock.o)
 .ARM.attributes
                0x000013ab       0x34 c:/users/niggi/gcc-arm-none-eabi-4_8-2014q3-20140805-win32/bin/../lib/gcc/arm-none-eabi/4.8.4/../../../../arm-none-eabi/lib/armv7e-m/fpu\libg.a(lib_a-mprec.o)
 .ARM.attributes
                0x000013df       0x34 c:/users/niggi/gcc-arm-none-eabi-4_8-2014q3-20140805-win32/bin/../lib/gcc/arm-none-eabi/4.8.4/../../../../arm-none-eabi/lib/armv7e-m/fpu\libg.a(lib_a-reallocr.o)
 .ARM.attributes
                0x00001413       0x34 c:/users/niggi/gcc-arm-none-eabi-4_8-2014q3-20140805-win32/bin/../lib/gcc/arm-none-eabi/4.8.4/../../../../arm-none-eabi/lib/armv7e-m/fpu\libg.a(lib_a-sbrkr.o)
 .ARM.attributes
                0x00001447       0x34 c:/users/niggi/gcc-arm-none-eabi-4_8-2014q3-20140805-win32/bin/../lib/gcc/arm-none-eabi/4.8.4/../../../../arm-none-eabi/lib/armv7e-m/fpu\libg.a(lib_a-svfiprintf.o)
 .ARM.attributes
                0x0000147b       0x34 c:/users/niggi/gcc-arm-none-eabi-4_8-2014q3-20140805-win32/bin/../lib/gcc/arm-none-eabi/4.8.4/../../../../arm-none-eabi/lib/armv7e-m/fpu\libg.a(lib_a-callocr.o)
 .ARM.attributes
                0x000014af       0x34 c:/users/niggi/gcc-arm-none-eabi-4_8-2014q3-20140805-win32/bin/../lib/gcc/arm-none-eabi/4.8.4/../../../../arm-none-eabi/lib/armv7e-m/fpu\libg.a(lib_a-reent.o)
 .ARM.attributes
                0x000014e3       0x22 c:/users/niggi/gcc-arm-none-eabi-4_8-2014q3-20140805-win32/bin/../lib/gcc/arm-none-eabi/4.8.4/armv7e-m/fpu\libgcc.a(_aeabi_uldivmod.o)
 .ARM.attributes
                0x00001505       0x34 c:/users/niggi/gcc-arm-none-eabi-4_8-2014q3-20140805-win32/bin/../lib/gcc/arm-none-eabi/4.8.4/armv7e-m/fpu\libgcc.a(bpabi.o)
 .ARM.attributes
                0x00001539       0x22 c:/users/niggi/gcc-arm-none-eabi-4_8-2014q3-20140805-win32/bin/../lib/gcc/arm-none-eabi/4.8.4/armv7e-m/fpu\libgcc.a(_dvmd_tls.o)
 .ARM.attributes
                0x0000155b       0x34 c:/users/niggi/gcc-arm-none-eabi-4_8-2014q3-20140805-win32/bin/../lib/gcc/arm-none-eabi/4.8.4/armv7e-m/fpu\libgcc.a(_divdi3.o)
 .ARM.attributes
                0x0000158f       0x34 c:/users/niggi/gcc-arm-none-eabi-4_8-2014q3-20140805-win32/bin/../lib/gcc/arm-none-eabi/4.8.4/armv7e-m/fpu\libgcc.a(_udivdi3.o)

.debug_frame    0x00000000     0x74b0
 .debug_frame   0x00000000      0x314 ..\obj\socket.o
 .debug_frame   0x00000314      0x270 ..\obj\dw1000_io.o
 .debug_frame   0x00000584       0xbc ..\obj\stm32f4xx_syscfg.o
 .debug_frame   0x00000640       0x64 ..\obj\MPU9250.o
 .debug_frame   0x000006a4      0x248 ..\obj\netapp.o
 .debug_frame   0x000008ec       0xe8 ..\obj\core.o
 .debug_frame   0x000009d4      0x3a4 ..\obj\MQTT.o
 .debug_frame   0x00000d78      0x32c ..\obj\interrupts.o
 .debug_frame   0x000010a4      0x148 ..\obj\timer.o
 .debug_frame   0x000011ec      0x388 ..\obj\driver.o
 .debug_frame   0x00001574      0x344 ..\obj\stm32f4xx_usart.o
 .debug_frame   0x000018b8      0x15c ..\obj\stm32f4xx_pwr.o
 .debug_frame   0x00001a14      0x28c ..\obj\rtc.o
 .debug_frame   0x00001ca0      0x44c ..\obj\dw1000_driver.o
 .debug_frame   0x000020ec      0x20c ..\obj\CC3100.o
 .debug_frame   0x000022f8       0xe8 ..\obj\stm32f4xx_wwdg.o
 .debug_frame   0x000023e0      0x3d0 ..\obj\dw1000_config.o
 .debug_frame   0x000027b0      0x178 ..\obj\task.o
 .debug_frame   0x00002928      0x23c ..\obj\diskio.o
 .debug_frame   0x00002b64       0x48 ..\obj\startup_stm32f4xx.o
 .debug_frame   0x00002bac       0x50 ..\obj\serviceReq.o
 .debug_frame   0x00002bfc      0x3e8 ..\obj\aufgabe.o
 .debug_frame   0x00002fe4       0x2c ..\obj\main.o
 .debug_frame   0x00003010      0x4d8 ..\obj\stm32f4xx_rcc.o
 .debug_frame   0x000034e8       0xe8 ..\obj\SDCARD.o
 .debug_frame   0x000035d0       0xa0 ..\obj\init.o
 .debug_frame   0x00003670      0x434 ..\obj\stm32f4xx_adc.o
 .debug_frame   0x00003aa4      0x214 ..\obj\dw1000_user.o
 .debug_frame   0x00003cb8       0xd0 ..\obj\mbox.o
 .debug_frame   0x00003d88      0x1b8 ..\obj\CC3100_HttpServer.o
 .debug_frame   0x00003f40      0x328 ..\obj\CC3100_Board.o
 .debug_frame   0x00004268       0xfc ..\obj\time.o
 .debug_frame   0x00004364       0xe8 ..\obj\event.o
 .debug_frame   0x0000444c      0x19c ..\obj\stm32f4xx_gpio.o
 .debug_frame   0x000045e8      0x168 ..\obj\device.o
 .debug_frame   0x00004750       0xb0 ..\obj\CC3100_EventHandler.o
 .debug_frame   0x00004800       0x64 ..\obj\system_stm32f4xx.o
 .debug_frame   0x00004864      0x108 ..\obj\syscalls.o
 .debug_frame   0x0000496c      0x224 ..\obj\stm32f4xx_dma.o
 .debug_frame   0x00004b90       0xd0 ..\obj\queue.o
 .debug_frame   0x00004c60       0xb0 ..\obj\port.o
 .debug_frame   0x00004d10      0x184 ..\obj\flag.o
 .debug_frame   0x00004e94      0x2d0 ..\obj\stm32f4xx_spi.o
 .debug_frame   0x00005164       0x48 ..\obj\arch.o
 .debug_frame   0x000051ac       0xec ..\obj\stm32f4xx_exti.o
 .debug_frame   0x00005298       0x9c ..\obj\misc.o
 .debug_frame   0x00005334       0xcc ..\obj\beeper.o
 .debug_frame   0x00005400      0x1b4 ..\obj\dw1000_ranging.o
 .debug_frame   0x000055b4      0x130 ..\obj\DW1000.o
 .debug_frame   0x000056e4       0xd0 ..\obj\sem.o
 .debug_frame   0x000057b4      0x670 ..\obj\stm32f4xx_rtc.o
 .debug_frame   0x00005e24       0x48 ..\obj\hook.o
 .debug_frame   0x00005e6c      0xa3c ..\obj\stm32f4xx_tim.o
 .debug_frame   0x000068a8       0x88 ..\obj\nonos.o
 .debug_frame   0x00006930       0xfc ..\obj\usart.o
 .debug_frame   0x00006a2c       0x2c c:/users/niggi/gcc-arm-none-eabi-4_8-2014q3-20140805-win32/bin/../lib/gcc/arm-none-eabi/4.8.4/../../../../arm-none-eabi/lib/armv7e-m/fpu\libm.a(lib_a-s_round.o)
 .debug_frame   0x00006a58       0x34 c:/users/niggi/gcc-arm-none-eabi-4_8-2014q3-20140805-win32/bin/../lib/gcc/arm-none-eabi/4.8.4/../../../../arm-none-eabi/lib/armv7e-m/fpu\libm.a(lib_a-w_log10.o)
 .debug_frame   0x00006a8c       0x40 c:/users/niggi/gcc-arm-none-eabi-4_8-2014q3-20140805-win32/bin/../lib/gcc/arm-none-eabi/4.8.4/../../../../arm-none-eabi/lib/armv7e-m/fpu\libm.a(lib_a-w_pow.o)
 .debug_frame   0x00006acc       0x34 c:/users/niggi/gcc-arm-none-eabi-4_8-2014q3-20140805-win32/bin/../lib/gcc/arm-none-eabi/4.8.4/../../../../arm-none-eabi/lib/armv7e-m/fpu\libm.a(lib_a-e_log10.o)
 .debug_frame   0x00006b00       0x44 c:/users/niggi/gcc-arm-none-eabi-4_8-2014q3-20140805-win32/bin/../lib/gcc/arm-none-eabi/4.8.4/../../../../arm-none-eabi/lib/armv7e-m/fpu\libm.a(lib_a-e_pow.o)
 .debug_frame   0x00006b44       0x3c c:/users/niggi/gcc-arm-none-eabi-4_8-2014q3-20140805-win32/bin/../lib/gcc/arm-none-eabi/4.8.4/../../../../arm-none-eabi/lib/armv7e-m/fpu\libm.a(lib_a-e_sqrt.o)
 .debug_frame   0x00006b80       0x20 c:/users/niggi/gcc-arm-none-eabi-4_8-2014q3-20140805-win32/bin/../lib/gcc/arm-none-eabi/4.8.4/../../../../arm-none-eabi/lib/armv7e-m/fpu\libm.a(lib_a-s_fabs.o)
 .debug_frame   0x00006ba0       0x20 c:/users/niggi/gcc-arm-none-eabi-4_8-2014q3-20140805-win32/bin/../lib/gcc/arm-none-eabi/4.8.4/../../../../arm-none-eabi/lib/armv7e-m/fpu\libm.a(lib_a-s_finite.o)
 .debug_frame   0x00006bc0       0x28 c:/users/niggi/gcc-arm-none-eabi-4_8-2014q3-20140805-win32/bin/../lib/gcc/arm-none-eabi/4.8.4/../../../../arm-none-eabi/lib/armv7e-m/fpu\libm.a(lib_a-s_fpclassify.o)
 .debug_frame   0x00006be8       0x20 c:/users/niggi/gcc-arm-none-eabi-4_8-2014q3-20140805-win32/bin/../lib/gcc/arm-none-eabi/4.8.4/../../../../arm-none-eabi/lib/armv7e-m/fpu\libm.a(lib_a-s_matherr.o)
 .debug_frame   0x00006c08       0x20 c:/users/niggi/gcc-arm-none-eabi-4_8-2014q3-20140805-win32/bin/../lib/gcc/arm-none-eabi/4.8.4/../../../../arm-none-eabi/lib/armv7e-m/fpu\libm.a(lib_a-s_nan.o)
 .debug_frame   0x00006c28       0x30 c:/users/niggi/gcc-arm-none-eabi-4_8-2014q3-20140805-win32/bin/../lib/gcc/arm-none-eabi/4.8.4/../../../../arm-none-eabi/lib/armv7e-m/fpu\libm.a(lib_a-s_rint.o)
 .debug_frame   0x00006c58       0x2c c:/users/niggi/gcc-arm-none-eabi-4_8-2014q3-20140805-win32/bin/../lib/gcc/arm-none-eabi/4.8.4/../../../../arm-none-eabi/lib/armv7e-m/fpu\libm.a(lib_a-s_scalbn.o)
 .debug_frame   0x00006c84       0x38 c:/users/niggi/gcc-arm-none-eabi-4_8-2014q3-20140805-win32/bin/../lib/gcc/arm-none-eabi/4.8.4/../../../../arm-none-eabi/lib/armv7e-m/fpu\libm.a(lib_a-e_log.o)
 .debug_frame   0x00006cbc       0x28 c:/users/niggi/gcc-arm-none-eabi-4_8-2014q3-20140805-win32/bin/../lib/gcc/arm-none-eabi/4.8.4/../../../../arm-none-eabi/lib/armv7e-m/fpu\libm.a(lib_a-s_copysign.o)
 .debug_frame   0x00006ce4       0x20 c:/users/niggi/gcc-arm-none-eabi-4_8-2014q3-20140805-win32/bin/../lib/gcc/arm-none-eabi/4.8.4/../../../../arm-none-eabi/lib/armv7e-m/fpu\libg.a(lib_a-errno.o)
 .debug_frame   0x00006d04       0x2c c:/users/niggi/gcc-arm-none-eabi-4_8-2014q3-20140805-win32/bin/../lib/gcc/arm-none-eabi/4.8.4/../../../../arm-none-eabi/lib/armv7e-m/fpu\libg.a(lib_a-memset.o)
 .debug_frame   0x00006d30       0x64 c:/users/niggi/gcc-arm-none-eabi-4_8-2014q3-20140805-win32/bin/../lib/gcc/arm-none-eabi/4.8.4/../../../../arm-none-eabi/lib/armv7e-m/fpu\libg.a(lib_a-sprintf.o)
 .debug_frame   0x00006d94       0x20 c:/users/niggi/gcc-arm-none-eabi-4_8-2014q3-20140805-win32/bin/../lib/gcc/arm-none-eabi/4.8.4/../../../../arm-none-eabi/lib/armv7e-m/fpu\libg.a(lib_a-strcpy.o)
 .debug_frame   0x00006db4       0x20 c:/users/niggi/gcc-arm-none-eabi-4_8-2014q3-20140805-win32/bin/../lib/gcc/arm-none-eabi/4.8.4/../../../../arm-none-eabi/lib/armv7e-m/fpu\libg.a(lib_a-strlen.o)
 .debug_frame   0x00006dd4       0x28 c:/users/niggi/gcc-arm-none-eabi-4_8-2014q3-20140805-win32/bin/../lib/gcc/arm-none-eabi/4.8.4/../../../../arm-none-eabi/lib/armv7e-m/fpu\libg.a(lib_a-strncmp.o)
 .debug_frame   0x00006dfc       0x3c c:/users/niggi/gcc-arm-none-eabi-4_8-2014q3-20140805-win32/bin/../lib/gcc/arm-none-eabi/4.8.4/../../../../arm-none-eabi/lib/armv7e-m/fpu\libg.a(lib_a-svfprintf.o)
 .debug_frame   0x00006e38       0x50 c:/users/niggi/gcc-arm-none-eabi-4_8-2014q3-20140805-win32/bin/../lib/gcc/arm-none-eabi/4.8.4/../../../../arm-none-eabi/lib/armv7e-m/fpu\libg.a(lib_a-vsnprintf.o)
 .debug_frame   0x00006e88       0x64 c:/users/niggi/gcc-arm-none-eabi-4_8-2014q3-20140805-win32/bin/../lib/gcc/arm-none-eabi/4.8.4/../../../../arm-none-eabi/lib/armv7e-m/fpu\libg.a(lib_a-dtoa.o)
 .debug_frame   0x00006eec       0x50 c:/users/niggi/gcc-arm-none-eabi-4_8-2014q3-20140805-win32/bin/../lib/gcc/arm-none-eabi/4.8.4/../../../../arm-none-eabi/lib/armv7e-m/fpu\libg.a(lib_a-freer.o)
 .debug_frame   0x00006f3c       0x98 c:/users/niggi/gcc-arm-none-eabi-4_8-2014q3-20140805-win32/bin/../lib/gcc/arm-none-eabi/4.8.4/../../../../arm-none-eabi/lib/armv7e-m/fpu\libg.a(lib_a-locale.o)
 .debug_frame   0x00006fd4       0x38 c:/users/niggi/gcc-arm-none-eabi-4_8-2014q3-20140805-win32/bin/../lib/gcc/arm-none-eabi/4.8.4/../../../../arm-none-eabi/lib/armv7e-m/fpu\libg.a(lib_a-mallocr.o)
 .debug_frame   0x0000700c       0x2c c:/users/niggi/gcc-arm-none-eabi-4_8-2014q3-20140805-win32/bin/../lib/gcc/arm-none-eabi/4.8.4/../../../../arm-none-eabi/lib/armv7e-m/fpu\libg.a(lib_a-memchr-stub.o)
 .debug_frame   0x00007038       0x2c c:/users/niggi/gcc-arm-none-eabi-4_8-2014q3-20140805-win32/bin/../lib/gcc/arm-none-eabi/4.8.4/../../../../arm-none-eabi/lib/armv7e-m/fpu\libg.a(lib_a-memmove.o)
 .debug_frame   0x00007064       0x30 c:/users/niggi/gcc-arm-none-eabi-4_8-2014q3-20140805-win32/bin/../lib/gcc/arm-none-eabi/4.8.4/../../../../arm-none-eabi/lib/armv7e-m/fpu\libg.a(lib_a-mlock.o)
 .debug_frame   0x00007094      0x22c c:/users/niggi/gcc-arm-none-eabi-4_8-2014q3-20140805-win32/bin/../lib/gcc/arm-none-eabi/4.8.4/../../../../arm-none-eabi/lib/armv7e-m/fpu\libg.a(lib_a-mprec.o)
 .debug_frame   0x000072c0       0x38 c:/users/niggi/gcc-arm-none-eabi-4_8-2014q3-20140805-win32/bin/../lib/gcc/arm-none-eabi/4.8.4/../../../../arm-none-eabi/lib/armv7e-m/fpu\libg.a(lib_a-reallocr.o)
 .debug_frame   0x000072f8       0x2c c:/users/niggi/gcc-arm-none-eabi-4_8-2014q3-20140805-win32/bin/../lib/gcc/arm-none-eabi/4.8.4/../../../../arm-none-eabi/lib/armv7e-m/fpu\libg.a(lib_a-sbrkr.o)
 .debug_frame   0x00007324       0x64 c:/users/niggi/gcc-arm-none-eabi-4_8-2014q3-20140805-win32/bin/../lib/gcc/arm-none-eabi/4.8.4/../../../../arm-none-eabi/lib/armv7e-m/fpu\libg.a(lib_a-svfiprintf.o)
 .debug_frame   0x00007388       0x28 c:/users/niggi/gcc-arm-none-eabi-4_8-2014q3-20140805-win32/bin/../lib/gcc/arm-none-eabi/4.8.4/../../../../arm-none-eabi/lib/armv7e-m/fpu\libg.a(lib_a-callocr.o)
 .debug_frame   0x000073b0       0x48 c:/users/niggi/gcc-arm-none-eabi-4_8-2014q3-20140805-win32/bin/../lib/gcc/arm-none-eabi/4.8.4/../../../../arm-none-eabi/lib/armv7e-m/fpu\libg.a(lib_a-reent.o)
 .debug_frame   0x000073f8       0x50 c:/users/niggi/gcc-arm-none-eabi-4_8-2014q3-20140805-win32/bin/../lib/gcc/arm-none-eabi/4.8.4/armv7e-m/fpu\libgcc.a(bpabi.o)
 .debug_frame   0x00007448       0x34 c:/users/niggi/gcc-arm-none-eabi-4_8-2014q3-20140805-win32/bin/../lib/gcc/arm-none-eabi/4.8.4/armv7e-m/fpu\libgcc.a(_divdi3.o)
 .debug_frame   0x0000747c       0x34 c:/users/niggi/gcc-arm-none-eabi-4_8-2014q3-20140805-win32/bin/../lib/gcc/arm-none-eabi/4.8.4/armv7e-m/fpu\libgcc.a(_udivdi3.o)
